{
  "contractName": "ParkingReservationManager",
  "abi": [
    {
      "inputs": [],
      "stateMutability": "nonpayable",
      "type": "constructor"
    },
    {
      "anonymous": false,
      "inputs": [
        {
          "indexed": true,
          "internalType": "address",
          "name": "previousOwner",
          "type": "address"
        },
        {
          "indexed": true,
          "internalType": "address",
          "name": "newOwner",
          "type": "address"
        }
      ],
      "name": "OwnershipTransferred",
      "type": "event"
    },
    {
      "inputs": [],
      "name": "owner",
      "outputs": [
        {
          "internalType": "address",
          "name": "",
          "type": "address"
        }
      ],
      "stateMutability": "view",
      "type": "function",
      "constant": true
    },
    {
      "inputs": [],
      "name": "renounceOwnership",
      "outputs": [],
      "stateMutability": "nonpayable",
      "type": "function"
    },
    {
      "inputs": [
        {
          "internalType": "address",
          "name": "newOwner",
          "type": "address"
        }
      ],
      "name": "transferOwnership",
      "outputs": [],
      "stateMutability": "nonpayable",
      "type": "function"
    },
    {
      "inputs": [
        {
          "internalType": "string",
          "name": "_spaceName",
          "type": "string"
        },
        {
          "internalType": "address",
          "name": "_ownerAccount",
          "type": "address"
        },
        {
          "internalType": "address",
          "name": "_driverAccount",
          "type": "address"
        }
      ],
      "name": "reserveParkingSpace",
      "outputs": [
        {
          "internalType": "uint256",
          "name": "",
          "type": "uint256"
        }
      ],
      "stateMutability": "nonpayable",
      "type": "function"
    },
    {
      "inputs": [
        {
          "internalType": "uint256",
          "name": "_reservationId",
          "type": "uint256"
        }
      ],
      "name": "startParking",
      "outputs": [],
      "stateMutability": "nonpayable",
      "type": "function"
    },
    {
      "inputs": [
        {
          "internalType": "uint256",
          "name": "_reservationId",
          "type": "uint256"
        }
      ],
      "name": "cancelParking",
      "outputs": [],
      "stateMutability": "nonpayable",
      "type": "function"
    },
    {
      "inputs": [
        {
          "internalType": "uint256",
          "name": "_reservationId",
          "type": "uint256"
        }
      ],
      "name": "finishParking",
      "outputs": [],
      "stateMutability": "nonpayable",
      "type": "function"
    }
  ],
  "bytecode": "0x608060405234801561001057600080fd5b5061002d61002261003260201b60201c565b61003a60201b60201c565b6100fe565b600033905090565b60008060009054906101000a900473ffffffffffffffffffffffffffffffffffffffff169050816000806101000a81548173ffffffffffffffffffffffffffffffffffffffff021916908373ffffffffffffffffffffffffffffffffffffffff1602179055508173ffffffffffffffffffffffffffffffffffffffff168173ffffffffffffffffffffffffffffffffffffffff167f8be0079c531659141344cd1fd0a4f28419497f9722a3daafe3b4186f6b6457e060405160405180910390a35050565b610fdf8061010d6000396000f3fe608060405234801561001057600080fd5b506004361061007d5760003560e01c806381fad93e1161005b57806381fad93e146100c45780638da5cb5b146100e05780638dcd5205146100fe578063f2fde38b1461012e5761007d565b80632072a60d146100825780633d0350c11461009e578063715018a6146100ba575b600080fd5b61009c60048036038101906100979190610add565b61014a565b005b6100b860048036038101906100b39190610add565b610294565b005b6100c26103e4565b005b6100de60048036038101906100d99190610add565b61046c565b005b6100e86105ea565b6040516100f59190610b4b565b60405180910390f35b61011860048036038101906101139190610cd8565b610613565b6040516101259190610d56565b60405180910390f35b61014860048036038101906101439190610d71565b610808565b005b806000600481111561015f5761015e610d9e565b5b6002600083815260200190815260200160002060020160149054906101000a900460ff16600481111561019557610194610d9e565b5b146101d5576040517f08c379a00000000000000000000000000000000000000000000000000000000081526004016101cc90610e2a565b60405180910390fd5b6101dd610900565b73ffffffffffffffffffffffffffffffffffffffff166101fb6105ea565b73ffffffffffffffffffffffffffffffffffffffff1614610251576040517f08c379a000000000000000000000000000000000000000000000000000000000815260040161024890610e96565b60405180910390fd5b60016002600084815260200190815260200160002060020160146101000a81548160ff0219169083600481111561028b5761028a610d9e565b5b02179055505050565b8060006002600083815260200190815260200160002060020160149054906101000a900460ff169050600160048111156102d1576102d0610d9e565b5b8160048111156102e4576102e3610d9e565b5b14610324576040517f08c379a000000000000000000000000000000000000000000000000000000000815260040161031b90610e2a565b60405180910390fd5b61032c610900565b73ffffffffffffffffffffffffffffffffffffffff1661034a6105ea565b73ffffffffffffffffffffffffffffffffffffffff16146103a0576040517f08c379a000000000000000000000000000000000000000000000000000000000815260040161039790610e96565b60405180910390fd5b60036002600085815260200190815260200160002060020160146101000a81548160ff021916908360048111156103da576103d9610d9e565b5b0217905550505050565b6103ec610900565b73ffffffffffffffffffffffffffffffffffffffff1661040a6105ea565b73ffffffffffffffffffffffffffffffffffffffff1614610460576040517f08c379a000000000000000000000000000000000000000000000000000000000815260040161045790610e96565b60405180910390fd5b61046a6000610908565b565b8060006002600083815260200190815260200160002060020160149054906101000a900460ff169050600060048111156104a9576104a8610d9e565b5b8160048111156104bc576104bb610d9e565b5b14806104ec5750600160048111156104d7576104d6610d9e565b5b8160048111156104ea576104e9610d9e565b5b145b61052b576040517f08c379a000000000000000000000000000000000000000000000000000000000815260040161052290610e2a565b60405180910390fd5b610533610900565b73ffffffffffffffffffffffffffffffffffffffff166105516105ea565b73ffffffffffffffffffffffffffffffffffffffff16146105a7576040517f08c379a000000000000000000000000000000000000000000000000000000000815260040161059e90610e96565b60405180910390fd5b600280600085815260200190815260200160002060020160146101000a81548160ff021916908360048111156105e0576105df610d9e565b5b0217905550505050565b60008060009054906101000a900473ffffffffffffffffffffffffffffffffffffffff16905090565b600061061d610900565b73ffffffffffffffffffffffffffffffffffffffff1661063b6105ea565b73ffffffffffffffffffffffffffffffffffffffff1614610691576040517f08c379a000000000000000000000000000000000000000000000000000000000815260040161068890610e96565b60405180910390fd5b61069b60016109cc565b60405180608001604052808581526020018473ffffffffffffffffffffffffffffffffffffffff1681526020018373ffffffffffffffffffffffffffffffffffffffff168152602001600060048111156106f8576106f7610d9e565b5b8152506002600061070960016109e2565b815260200190815260200160002060008201518160000190805190602001906107339291906109f0565b5060208201518160010160006101000a81548173ffffffffffffffffffffffffffffffffffffffff021916908373ffffffffffffffffffffffffffffffffffffffff16021790555060408201518160020160006101000a81548173ffffffffffffffffffffffffffffffffffffffff021916908373ffffffffffffffffffffffffffffffffffffffff16021790555060608201518160020160146101000a81548160ff021916908360048111156107ed576107ec610d9e565b5b02179055509050506107ff60016109e2565b90509392505050565b610810610900565b73ffffffffffffffffffffffffffffffffffffffff1661082e6105ea565b73ffffffffffffffffffffffffffffffffffffffff1614610884576040517f08c379a000000000000000000000000000000000000000000000000000000000815260040161087b90610e96565b60405180910390fd5b600073ffffffffffffffffffffffffffffffffffffffff168173ffffffffffffffffffffffffffffffffffffffff1614156108f4576040517f08c379a00000000000000000000000000000000000000000000000000000000081526004016108eb90610f28565b60405180910390fd5b6108fd81610908565b50565b600033905090565b60008060009054906101000a900473ffffffffffffffffffffffffffffffffffffffff169050816000806101000a81548173ffffffffffffffffffffffffffffffffffffffff021916908373ffffffffffffffffffffffffffffffffffffffff1602179055508173ffffffffffffffffffffffffffffffffffffffff168173ffffffffffffffffffffffffffffffffffffffff167f8be0079c531659141344cd1fd0a4f28419497f9722a3daafe3b4186f6b6457e060405160405180910390a35050565b6001816000016000828254019250508190555050565b600081600001549050919050565b8280546109fc90610f77565b90600052602060002090601f016020900481019282610a1e5760008555610a65565b82601f10610a3757805160ff1916838001178555610a65565b82800160010185558215610a65579182015b82811115610a64578251825591602001919060010190610a49565b5b509050610a729190610a76565b5090565b5b80821115610a8f576000816000905550600101610a77565b5090565b6000604051905090565b600080fd5b600080fd5b6000819050919050565b610aba81610aa7565b8114610ac557600080fd5b50565b600081359050610ad781610ab1565b92915050565b600060208284031215610af357610af2610a9d565b5b6000610b0184828501610ac8565b91505092915050565b600073ffffffffffffffffffffffffffffffffffffffff82169050919050565b6000610b3582610b0a565b9050919050565b610b4581610b2a565b82525050565b6000602082019050610b606000830184610b3c565b92915050565b600080fd5b600080fd5b6000601f19601f8301169050919050565b7f4e487b7100000000000000000000000000000000000000000000000000000000600052604160045260246000fd5b610bb982610b70565b810181811067ffffffffffffffff82111715610bd857610bd7610b81565b5b80604052505050565b6000610beb610a93565b9050610bf78282610bb0565b919050565b600067ffffffffffffffff821115610c1757610c16610b81565b5b610c2082610b70565b9050602081019050919050565b82818337600083830152505050565b6000610c4f610c4a84610bfc565b610be1565b905082815260208101848484011115610c6b57610c6a610b6b565b5b610c76848285610c2d565b509392505050565b600082601f830112610c9357610c92610b66565b5b8135610ca3848260208601610c3c565b91505092915050565b610cb581610b2a565b8114610cc057600080fd5b50565b600081359050610cd281610cac565b92915050565b600080600060608486031215610cf157610cf0610a9d565b5b600084013567ffffffffffffffff811115610d0f57610d0e610aa2565b5b610d1b86828701610c7e565b9350506020610d2c86828701610cc3565b9250506040610d3d86828701610cc3565b9150509250925092565b610d5081610aa7565b82525050565b6000602082019050610d6b6000830184610d47565b92915050565b600060208284031215610d8757610d86610a9d565b5b6000610d9584828501610cc3565b91505092915050565b7f4e487b7100000000000000000000000000000000000000000000000000000000600052602160045260246000fd5b600082825260208201905092915050565b7f496e76616c6964207265736572766174696f6e207374617475732e0000000000600082015250565b6000610e14601b83610dcd565b9150610e1f82610dde565b602082019050919050565b60006020820190508181036000830152610e4381610e07565b9050919050565b7f4f776e61626c653a2063616c6c6572206973206e6f7420746865206f776e6572600082015250565b6000610e80602083610dcd565b9150610e8b82610e4a565b602082019050919050565b60006020820190508181036000830152610eaf81610e73565b9050919050565b7f4f776e61626c653a206e6577206f776e657220697320746865207a65726f206160008201527f6464726573730000000000000000000000000000000000000000000000000000602082015250565b6000610f12602683610dcd565b9150610f1d82610eb6565b604082019050919050565b60006020820190508181036000830152610f4181610f05565b9050919050565b7f4e487b7100000000000000000000000000000000000000000000000000000000600052602260045260246000fd5b60006002820490506001821680610f8f57607f821691505b60208210811415610fa357610fa2610f48565b5b5091905056fea26469706673582212205d65743ab956bdd1815af59aabd42750f0a2943f82da7bc29df075e9d8ba31b764736f6c634300080a0033",
  "immutableReferences": {},
  "source": "// SPDX-License-Identifier: MIT\npragma solidity ^0.8.4;\n\nimport \"@openzeppelin/contracts/access/Ownable.sol\";\nimport \"@openzeppelin/contracts/utils/Counters.sol\";\n\ncontract ParkingReservationManager is Ownable{\n\n  //To create reservation Ids\n  using Counters for Counters.Counter;\n    Counters.Counter private reservationIndex;\n\n  mapping(uint256 => Reservation) private reservations;\n\n  enum Status {\n    Registered,\n    InProgress,\n    Cancelled,\n    Finished,\n    Payed\n  }\n\n  struct Reservation {\n    string spaceName;\n    address ownerAccount;\n    address driverAccount;\n    Status status;\n  }\n\n  modifier Registered(uint256 _reservationId){\n    require(reservations[_reservationId].status == Status.Registered, \"Invalid reservation status.\");\n    _;\n  }\n\n  modifier AvailableToCancel(uint256 _reservationId){\n    Status status = reservations[_reservationId].status;\n    require(status == Status.Registered || status == Status.InProgress, \"Invalid reservation status.\");\n    _;\n  }\n\n  modifier AvailableToFinish(uint256 _reservationId){\n    Status status = reservations[_reservationId].status;\n    require(status == Status.InProgress, \"Invalid reservation status.\");\n    _;\n  }\n\n  constructor() {\n    \n  }\n\n  function reserveParkingSpace(string memory _spaceName, address _ownerAccount, address _driverAccount) public onlyOwner returns (uint256) {\n\n    reservationIndex.increment();\n    reservations[reservationIndex.current()] = Reservation({\n      spaceName: _spaceName,\n      ownerAccount: _ownerAccount,\n      driverAccount: _driverAccount,\n      status: Status.Registered\n    });\n\n    return reservationIndex.current();\n  }\n\n  function startParking(uint _reservationId) public Registered(_reservationId) onlyOwner{\n\n    reservations[_reservationId].status = Status.InProgress;\n  }\n\n  function cancelParking(uint _reservationId) public AvailableToCancel(_reservationId) onlyOwner{\n\n    reservations[_reservationId].status = Status.Cancelled;\n    //falta impactar algun fee por la cancelacin\n  }\n\n    function finishParking(uint _reservationId) public AvailableToFinish(_reservationId) onlyOwner{\n\n    reservations[_reservationId].status = Status.Finished;\n    //falta impactar el pago\n  }\n\n}\n",
  "sourcePath": "/home/landino/blockchain-developer-bootcamp-final-project/contracts/ParkingReservationManager.sol",
  "compiler": {
    "name": "solc",
    "version": "0.8.10+commit.fc410830.Emscripten.clang"
  },
  "schemaVersion": "3.4.3",
  "updatedAt": "2021-12-06T01:34:13.443Z",
  "networkType": "ethereum",
  "devdoc": {
    "kind": "dev",
    "methods": {
      "owner()": {
        "details": "Returns the address of the current owner."
      },
      "renounceOwnership()": {
        "details": "Leaves the contract without owner. It will not be possible to call `onlyOwner` functions anymore. Can only be called by the current owner. NOTE: Renouncing ownership will leave the contract without an owner, thereby removing any functionality that is only available to the owner."
      },
      "transferOwnership(address)": {
        "details": "Transfers ownership of the contract to a new account (`newOwner`). Can only be called by the current owner."
      }
    },
    "version": 1
  },
  "userdoc": {
    "kind": "user",
    "methods": {},
    "version": 1
  }
}