{
  "contractName": "ParkingSystem",
  "abi": [
    {
      "inputs": [],
      "stateMutability": "nonpayable",
      "type": "constructor"
    },
    {
      "anonymous": false,
      "inputs": [
        {
          "indexed": false,
          "internalType": "string",
          "name": "_ownerName",
          "type": "string"
        },
        {
          "indexed": false,
          "internalType": "address",
          "name": "_ownerAccount",
          "type": "address"
        },
        {
          "indexed": false,
          "internalType": "uint256",
          "name": "_ownerId",
          "type": "uint256"
        }
      ],
      "name": "OwnerRegistered",
      "type": "event"
    },
    {
      "anonymous": false,
      "inputs": [
        {
          "indexed": true,
          "internalType": "address",
          "name": "previousOwner",
          "type": "address"
        },
        {
          "indexed": true,
          "internalType": "address",
          "name": "newOwner",
          "type": "address"
        }
      ],
      "name": "OwnershipTransferred",
      "type": "event"
    },
    {
      "anonymous": false,
      "inputs": [
        {
          "indexed": false,
          "internalType": "string",
          "name": "_spaceName",
          "type": "string"
        },
        {
          "indexed": false,
          "internalType": "uint256",
          "name": "reserveId",
          "type": "uint256"
        }
      ],
      "name": "ReservationCreated",
      "type": "event"
    },
    {
      "anonymous": false,
      "inputs": [
        {
          "indexed": false,
          "internalType": "string",
          "name": "_spaceName",
          "type": "string"
        },
        {
          "indexed": false,
          "internalType": "uint256",
          "name": "_ownerId",
          "type": "uint256"
        },
        {
          "indexed": false,
          "internalType": "string",
          "name": "_locationAddress",
          "type": "string"
        },
        {
          "indexed": false,
          "internalType": "uint256",
          "name": "_price",
          "type": "uint256"
        },
        {
          "indexed": false,
          "internalType": "address",
          "name": "_ownerAccount",
          "type": "address"
        }
      ],
      "name": "SpaceAdded",
      "type": "event"
    },
    {
      "inputs": [],
      "name": "owner",
      "outputs": [
        {
          "internalType": "address",
          "name": "",
          "type": "address"
        }
      ],
      "stateMutability": "view",
      "type": "function",
      "constant": true
    },
    {
      "inputs": [],
      "name": "renounceOwnership",
      "outputs": [],
      "stateMutability": "nonpayable",
      "type": "function"
    },
    {
      "inputs": [
        {
          "internalType": "address",
          "name": "newOwner",
          "type": "address"
        }
      ],
      "name": "transferOwnership",
      "outputs": [],
      "stateMutability": "nonpayable",
      "type": "function"
    },
    {
      "inputs": [
        {
          "internalType": "string",
          "name": "_ownerName",
          "type": "string"
        },
        {
          "internalType": "address",
          "name": "_spaceOwnerAccount",
          "type": "address"
        }
      ],
      "name": "addParkingSpaceOwner",
      "outputs": [
        {
          "internalType": "uint256",
          "name": "",
          "type": "uint256"
        }
      ],
      "stateMutability": "nonpayable",
      "type": "function"
    },
    {
      "inputs": [
        {
          "internalType": "string",
          "name": "_ownerName",
          "type": "string"
        }
      ],
      "name": "isOwnerEnrolled",
      "outputs": [
        {
          "internalType": "bool",
          "name": "",
          "type": "bool"
        }
      ],
      "stateMutability": "view",
      "type": "function",
      "constant": true
    },
    {
      "inputs": [],
      "name": "getOwnersQuantity",
      "outputs": [
        {
          "internalType": "uint256",
          "name": "",
          "type": "uint256"
        }
      ],
      "stateMutability": "view",
      "type": "function",
      "constant": true
    },
    {
      "inputs": [
        {
          "internalType": "uint256",
          "name": "_ownerId",
          "type": "uint256"
        }
      ],
      "name": "getSpaceOwnerInfo",
      "outputs": [
        {
          "internalType": "string",
          "name": "name",
          "type": "string"
        },
        {
          "internalType": "address",
          "name": "account",
          "type": "address"
        }
      ],
      "stateMutability": "view",
      "type": "function",
      "constant": true
    },
    {
      "inputs": [
        {
          "internalType": "string",
          "name": "_spaceName",
          "type": "string"
        },
        {
          "internalType": "string",
          "name": "_locationAddress",
          "type": "string"
        },
        {
          "internalType": "uint256",
          "name": "_price",
          "type": "uint256"
        }
      ],
      "name": "addParkingSpace",
      "outputs": [],
      "stateMutability": "payable",
      "type": "function",
      "payable": true
    },
    {
      "inputs": [],
      "name": "getSpacesQuantity",
      "outputs": [
        {
          "internalType": "uint256",
          "name": "",
          "type": "uint256"
        }
      ],
      "stateMutability": "view",
      "type": "function",
      "constant": true
    },
    {
      "inputs": [
        {
          "internalType": "uint256",
          "name": "_index",
          "type": "uint256"
        }
      ],
      "name": "getParkingSpaceInfo",
      "outputs": [
        {
          "internalType": "string",
          "name": "name",
          "type": "string"
        },
        {
          "internalType": "string",
          "name": "locationAddress",
          "type": "string"
        },
        {
          "internalType": "uint256",
          "name": "price",
          "type": "uint256"
        },
        {
          "internalType": "bool",
          "name": "isReserved",
          "type": "bool"
        },
        {
          "internalType": "uint256",
          "name": "ownerId",
          "type": "uint256"
        },
        {
          "internalType": "address",
          "name": "ownerAccount",
          "type": "address"
        }
      ],
      "stateMutability": "view",
      "type": "function",
      "constant": true
    },
    {
      "inputs": [
        {
          "internalType": "string",
          "name": "_spaceName",
          "type": "string"
        }
      ],
      "name": "getParkingSpaceInfoByName",
      "outputs": [
        {
          "internalType": "string",
          "name": "name",
          "type": "string"
        },
        {
          "internalType": "string",
          "name": "locationAddress",
          "type": "string"
        },
        {
          "internalType": "uint256",
          "name": "price",
          "type": "uint256"
        },
        {
          "internalType": "bool",
          "name": "isReserved",
          "type": "bool"
        },
        {
          "internalType": "uint256",
          "name": "ownerId",
          "type": "uint256"
        },
        {
          "internalType": "address",
          "name": "ownerAccount",
          "type": "address"
        }
      ],
      "stateMutability": "view",
      "type": "function",
      "constant": true
    },
    {
      "inputs": [],
      "name": "getSpacesStatus",
      "outputs": [
        {
          "internalType": "bool[]",
          "name": "",
          "type": "bool[]"
        }
      ],
      "stateMutability": "view",
      "type": "function",
      "constant": true
    },
    {
      "inputs": [
        {
          "internalType": "string",
          "name": "_spaceName",
          "type": "string"
        }
      ],
      "name": "isAReservedSpace",
      "outputs": [
        {
          "internalType": "bool",
          "name": "",
          "type": "bool"
        }
      ],
      "stateMutability": "view",
      "type": "function",
      "constant": true
    },
    {
      "inputs": [
        {
          "internalType": "string",
          "name": "_spaceName",
          "type": "string"
        }
      ],
      "name": "reserveParkingSpace",
      "outputs": [],
      "stateMutability": "payable",
      "type": "function",
      "payable": true
    },
    {
      "inputs": [
        {
          "internalType": "string",
          "name": "_spaceName",
          "type": "string"
        }
      ],
      "name": "finishParking",
      "outputs": [],
      "stateMutability": "payable",
      "type": "function",
      "payable": true
    }
  ],
  "bytecode": "0x60806040523480156200001157600080fd5b506200003262000026620000a460201b60201c565b620000ac60201b60201c565b604051620000409062000170565b604051809103906000f0801580156200005d573d6000803e3d6000fd5b50600c60006101000a81548173ffffffffffffffffffffffffffffffffffffffff021916908373ffffffffffffffffffffffffffffffffffffffff1602179055506200017e565b600033905090565b60008060009054906101000a900473ffffffffffffffffffffffffffffffffffffffff169050816000806101000a81548173ffffffffffffffffffffffffffffffffffffffff021916908373ffffffffffffffffffffffffffffffffffffffff1602179055508173ffffffffffffffffffffffffffffffffffffffff168173ffffffffffffffffffffffffffffffffffffffff167f8be0079c531659141344cd1fd0a4f28419497f9722a3daafe3b4186f6b6457e060405160405180910390a35050565b6111b680620032ad83390190565b61311f806200018e6000396000f3fe6080604052600436106100e85760003560e01c8063715018a61161008a578063d277bcbc11610059578063d277bcbc146102f9578063e8182fa814610315578063f2fde38b14610340578063f4de771414610369576100e8565b8063715018a61461027057806379a117d6146102875780638c245708146102b25780638da5cb5b146102ce576100e8565b806342835132116100c657806342835132146101aa57806343ff7f6f146101e75780635e5a073b146102295780636a152b4e14610245576100e8565b806324433be6146100ed5780632c48a6e61461012b5780634049f8e714610168575b600080fd5b3480156100f957600080fd5b50610114600480360381019061010f91906123c6565b6103a6565b60405161012292919061276b565b60405180910390f35b34801561013757600080fd5b50610152600480360381019061014d9190612223565b6104a4565b60405161015f9190612750565b60405180910390f35b34801561017457600080fd5b5061018f600480360381019061018a91906123c6565b610524565b6040516101a196959493929190612825565b60405180910390f35b3480156101b657600080fd5b506101d160048036038101906101cc9190612223565b610747565b6040516101de9190612750565b60405180910390f35b3480156101f357600080fd5b5061020e60048036038101906102099190612223565b610794565b60405161022096959493929190612825565b60405180910390f35b610243600480360381019061023e9190612347565b6107d9565b005b34801561025157600080fd5b5061025a610c60565b604051610267919061272e565b60405180910390f35b34801561027c57600080fd5b50610285610d36565b005b34801561029357600080fd5b5061029c610dbe565b6040516102a99190612a65565b60405180910390f35b6102cc60048036038101906102c79190612223565b610dcf565b005b3480156102da57600080fd5b506102e361127b565b6040516102f09190612713565b60405180910390f35b610313600480360381019061030e9190612223565b6112a4565b005b34801561032157600080fd5b5061032a61169d565b6040516103379190612a65565b60405180910390f35b34801561034c57600080fd5b50610367600480360381019061036291906121fa565b6116ae565b005b34801561037557600080fd5b50610390600480360381019061038b9190612264565b6117a6565b60405161039d9190612a65565b60405180910390f35b60606000600360006001856103bb9190612bf1565b8152602001908152602001600020600101600360006001866103dd9190612bf1565b815260200190815260200160002060020160009054906101000a900473ffffffffffffffffffffffffffffffffffffffff1681805461041b90612caf565b80601f016020809104026020016040519081016040528092919081815260200182805461044790612caf565b80156104945780601f1061046957610100808354040283529160200191610494565b820191906000526020600020905b81548152906001019060200180831161047757829003601f168201915b5050505050915091509150915091565b600060076006836040516104b891906126e7565b908152602001604051809103902054815481106104fe577f4e487b7100000000000000000000000000000000000000000000000000000000600052603260045260246000fd5b906000526020600020906005020160040160009054906101000a900460ff169050919050565b606080600080600080600060078881548110610569577f4e487b7100000000000000000000000000000000000000000000000000000000600052603260045260246000fd5b90600052602060002090600502016040518060a001604052908160008201805461059290612caf565b80601f01602080910402602001604051908101604052809291908181526020018280546105be90612caf565b801561060b5780601f106105e05761010080835404028352916020019161060b565b820191906000526020600020905b8154815290600101906020018083116105ee57829003601f168201915b5050505050815260200160018201805461062490612caf565b80601f016020809104026020016040519081016040528092919081815260200182805461065090612caf565b801561069d5780601f106106725761010080835404028352916020019161069d565b820191906000526020600020905b81548152906001019060200180831161068057829003601f168201915b5050505050815260200160028201548152602001600382015481526020016004820160009054906101000a900460ff16151515158152505090506000600360008360400151815260200190815260200160002060020160009054906101000a900473ffffffffffffffffffffffffffffffffffffffff1690508160000151826020015183606001518460800151856040015185975097509750975097509750505091939550919395565b60008060048360405161075a91906126e7565b90815260200160405180910390205490506005600082815260200190815260200160002060009054906101000a900460ff16915050919050565b6060806000806000806107c46006886040516107b091906126e7565b908152602001604051809103902054610524565b95509550955095509550955091939550919395565b82600015156009826040516107ee91906126e7565b908152602001604051809103902060009054906101000a900460ff1615151461084c576040517f08c379a000000000000000000000000000000000000000000000000000000000815260040161084390612985565b60405180910390fd5b6004341461088f576040517f08c379a000000000000000000000000000000000000000000000000000000000815260040161088690612965565b60405180910390fd5b6000339050600061089f82611a20565b905060006004826040516108b391906126e7565b90815260200160405180910390205490506005600082815260200190815260200160002060009054906101000a900460ff166108f6576108f382846117a6565b90505b60076040518060a001604052808981526020018881526020018381526020018781526020016000151581525090806001815401808255809150506001900390600052602060002090600502016000909190919091506000820151816000019080519060200190610967929190611f91565b506020820151816001019080519060200190610984929190611f91565b50604082015181600201556060820151816003015560808201518160040160006101000a81548160ff02191690831515021790555050506109c56008611a51565b6006886040516109d591906126e7565b9081526020016040518091039020819055506109f16008611a5f565b6001600988604051610a0391906126e7565b908152602001604051809103902060006101000a81548160ff02191690831515021790555080600a88604051610a3991906126e7565b9081526020016040518091039020819055506000610a5561127b565b73ffffffffffffffffffffffffffffffffffffffff1634604051610a78906126fe565b60006040518083038185875af1925050503d8060008114610ab5576040519150601f19603f3d011682016040523d82523d6000602084013e610aba565b606091505b5050905080610afe576040517f08c379a0000000000000000000000000000000000000000000000000000000008152600401610af590612a45565b60405180910390fd5b60006003600084815260200190815260200160002060405180606001604052908160008201548152602001600182018054610b3890612caf565b80601f0160208091040260200160405190810160405280929190818152602001828054610b6490612caf565b8015610bb15780601f10610b8657610100808354040283529160200191610bb1565b820191906000526020600020905b815481529060010190602001808311610b9457829003601f168201915b505050505081526020016002820160009054906101000a900473ffffffffffffffffffffffffffffffffffffffff1673ffffffffffffffffffffffffffffffffffffffff1673ffffffffffffffffffffffffffffffffffffffff168152505090507fedc13e3095cfb681cc32c6a29dd2dce0db849462949d52593f48d5c9e5a8bcf089848a8a8560400151604051610c4d9594939291906128c4565b60405180910390a1505050505050505050565b60608060005b610c706008611a51565b811015610d2e5760078181548110610cb1577f4e487b7100000000000000000000000000000000000000000000000000000000600052603260045260246000fd5b906000526020600020906005020160040160009054906101000a900460ff16828281518110610d09577f4e487b7100000000000000000000000000000000000000000000000000000000600052603260045260246000fd5b6020026020010190151590811515815250508080610d2690612d12565b915050610c66565b508091505090565b610d3e611a75565b73ffffffffffffffffffffffffffffffffffffffff16610d5c61127b565b73ffffffffffffffffffffffffffffffffffffffff1614610db2576040517f08c379a0000000000000000000000000000000000000000000000000000000008152600401610da9906129a5565b60405180910390fd5b610dbc6000611a7d565b565b6000610dca6002611a51565b905090565b6000600982604051610de191906126e7565b908152602001604051809103902060009054906101000a900460ff16610e3c576040517f08c379a0000000000000000000000000000000000000000000000000000000008152600401610e33906129e5565b60405180910390fd5b60006007600684604051610e5091906126e7565b90815260200160405180910390205481548110610e96577f4e487b7100000000000000000000000000000000000000000000000000000000600052603260045260246000fd5b906000526020600020906005020160020154905060006003600083815260200190815260200160002060405180606001604052908160008201548152602001600182018054610ee490612caf565b80601f0160208091040260200160405190810160405280929190818152602001828054610f1090612caf565b8015610f5d5780601f10610f3257610100808354040283529160200191610f5d565b820191906000526020600020905b815481529060010190602001808311610f4057829003601f168201915b505050505081526020016002820160009054906101000a900473ffffffffffffffffffffffffffffffffffffffff1673ffffffffffffffffffffffffffffffffffffffff1673ffffffffffffffffffffffffffffffffffffffff168152505090506000600c60009054906101000a900473ffffffffffffffffffffffffffffffffffffffff1673ffffffffffffffffffffffffffffffffffffffff1663cf639f2086846040015133600760068b60405161101791906126e7565b9081526020016040518091039020548154811061105d577f4e487b7100000000000000000000000000000000000000000000000000000000600052603260045260246000fd5b9060005260206000209060050201600301546040518563ffffffff1660e01b815260040161108e949392919061279b565b602060405180830381600087803b1580156110a857600080fd5b505af11580156110bc573d6000803e3d6000fd5b505050506040513d601f19601f820116820180604052508101906110e091906123ef565b90506110ea61127b565b73ffffffffffffffffffffffffffffffffffffffff16600160405161110e906126fe565b60006040518083038185875af1925050503d806000811461114b576040519150601f19603f3d011682016040523d82523d6000602084013e611150565b606091505b50508094505083611196576040517f08c379a000000000000000000000000000000000000000000000000000000000815260040161118d90612a05565b60405180910390fd5b600160076006876040516111aa91906126e7565b908152602001604051809103902054815481106111f0577f4e487b7100000000000000000000000000000000000000000000000000000000600052603260045260246000fd5b906000526020600020906005020160040160006101000a81548160ff02191690831515021790555080600b8660405161122991906126e7565b9081526020016040518091039020819055507fff262bb2c7d883079fca143adc6c77a55dccba4e955c6864922bfad268dff8a6858260405161126c929190612894565b60405180910390a15050505050565b60008060009054906101000a900473ffffffffffffffffffffffffffffffffffffffff16905090565b8060076006826040516112b791906126e7565b908152602001604051809103902054815481106112fd577f4e487b7100000000000000000000000000000000000000000000000000000000600052603260045260246000fd5b906000526020600020906005020160040160009054906101000a900460ff1661135b576040517f08c379a000000000000000000000000000000000000000000000000000000000815260040161135290612a25565b60405180910390fd5b6000806000806000600b8760405161137391906126e7565b9081526020016040518091039020549050600c60009054906101000a900473ffffffffffffffffffffffffffffffffffffffff1673ffffffffffffffffffffffffffffffffffffffff1663895c4c96826040518263ffffffff1660e01b81526004016113df9190612a65565b60006040518083038186803b1580156113f757600080fd5b505afa15801561140b573d6000803e3d6000fd5b505050506040513d6000823e3d601f19601f8201168201806040525081019061143491906122b8565b909192935090508094508195508296505050503373ffffffffffffffffffffffffffffffffffffffff168373ffffffffffffffffffffffffffffffffffffffff16146114b5576040517f08c379a00000000000000000000000000000000000000000000000000000000081526004016114ac906129c5565b60405180910390fd5b8373ffffffffffffffffffffffffffffffffffffffff16826040516114d9906126fe565b60006040518083038185875af1925050503d8060008114611516576040519150601f19603f3d011682016040523d82523d6000602084013e61151b565b606091505b50508095505084611561576040517f08c379a000000000000000000000000000000000000000000000000000000000815260040161155890612925565b60405180910390fd5b600c60009054906101000a900473ffffffffffffffffffffffffffffffffffffffff1673ffffffffffffffffffffffffffffffffffffffff16633d0350c1826040518263ffffffff1660e01b81526004016115bc9190612a65565b600060405180830381600087803b1580156115d657600080fd5b505af11580156115ea573d6000803e3d6000fd5b505050506000600760068960405161160291906126e7565b90815260200160405180910390205481548110611648577f4e487b7100000000000000000000000000000000000000000000000000000000600052603260045260246000fd5b906000526020600020906005020160040160006101000a81548160ff0219169083151502179055506000600b8860405161168291906126e7565b90815260200160405180910390208190555050505050505050565b60006116a96008611a51565b905090565b6116b6611a75565b73ffffffffffffffffffffffffffffffffffffffff166116d461127b565b73ffffffffffffffffffffffffffffffffffffffff161461172a576040517f08c379a0000000000000000000000000000000000000000000000000000000008152600401611721906129a5565b60405180910390fd5b600073ffffffffffffffffffffffffffffffffffffffff168173ffffffffffffffffffffffffffffffffffffffff16141561179a576040517f08c379a000000000000000000000000000000000000000000000000000000000815260040161179190612945565b60405180910390fd5b6117a381611a7d565b50565b6000806004846040516117b991906126e7565b90815260200160405180910390205490506005600082815260200190815260200160002060009054906101000a900460ff166119db576117f96002611a5f565b6118036002611a51565b90508060048560405161181691906126e7565b90815260200160405180910390208190555060405180606001604052808281526020018581526020018473ffffffffffffffffffffffffffffffffffffffff1681525060036000838152602001908152602001600020600082015181600001556020820151816001019080519060200190611892929190611f91565b5060408201518160020160006101000a81548173ffffffffffffffffffffffffffffffffffffffff021916908373ffffffffffffffffffffffffffffffffffffffff16021790555090505060016005600083815260200190815260200160002060006101000a81548160ff021916908315150217905550600160036000838152602001908152602001600020908060018154018082558091505060019003906000526020600020906003020160009091909190915060008201548160000155600182018160010190805461196590612caf565b611970929190612017565b506002820160009054906101000a900473ffffffffffffffffffffffffffffffffffffffff168160020160006101000a81548173ffffffffffffffffffffffffffffffffffffffff021916908373ffffffffffffffffffffffffffffffffffffffff16021790555050505b7f435a3c4237652bdf3454025868b80f038e31696285368352ebf7d647ae54429f848483604051611a0e939291906127e7565b60405180910390a18091505092915050565b6060611a4a82604051602001611a3691906126cc565b604051602081830303815290604052611b41565b9050919050565b600081600001549050919050565b6001816000016000828254019250508190555050565b600033905090565b60008060009054906101000a900473ffffffffffffffffffffffffffffffffffffffff169050816000806101000a81548173ffffffffffffffffffffffffffffffffffffffff021916908373ffffffffffffffffffffffffffffffffffffffff1602179055508173ffffffffffffffffffffffffffffffffffffffff168173ffffffffffffffffffffffffffffffffffffffff167f8be0079c531659141344cd1fd0a4f28419497f9722a3daafe3b4186f6b6457e060405160405180910390a35050565b606060006040518060400160405280601081526020017f30313233343536373839616263646566000000000000000000000000000000008152509050600060028451611b8d9190612b97565b6002611b999190612b41565b67ffffffffffffffff811115611bd8577f4e487b7100000000000000000000000000000000000000000000000000000000600052604160045260246000fd5b6040519080825280601f01601f191660200182016040528015611c0a5781602001600182028036833780820191505090505b5090507f300000000000000000000000000000000000000000000000000000000000000081600081518110611c68577f4e487b7100000000000000000000000000000000000000000000000000000000600052603260045260246000fd5b60200101907effffffffffffffffffffffffffffffffffffffffffffffffffffffffffffff1916908160001a9053507f780000000000000000000000000000000000000000000000000000000000000081600181518110611cf2577f4e487b7100000000000000000000000000000000000000000000000000000000600052603260045260246000fd5b60200101907effffffffffffffffffffffffffffffffffffffffffffffffffffffffffffff1916908160001a90535060005b8451811015611f8657826004868381518110611d69577f4e487b7100000000000000000000000000000000000000000000000000000000600052603260045260246000fd5b602001015160f81c60f81b7effffffffffffffffffffffffffffffffffffffffffffffffffffffffffffff1916901c60f81c60ff1681518110611dd5577f4e487b7100000000000000000000000000000000000000000000000000000000600052603260045260246000fd5b602001015160f81c60f81b82600283611dee9190612b97565b6002611dfa9190612b41565b81518110611e31577f4e487b7100000000000000000000000000000000000000000000000000000000600052603260045260246000fd5b60200101907effffffffffffffffffffffffffffffffffffffffffffffffffffffffffffff1916908160001a90535082600f60f81b868381518110611e9f577f4e487b7100000000000000000000000000000000000000000000000000000000600052603260045260246000fd5b602001015160f81c60f81b1660f81c60ff1681518110611ee8577f4e487b7100000000000000000000000000000000000000000000000000000000600052603260045260246000fd5b602001015160f81c60f81b82600283611f019190612b97565b6003611f0d9190612b41565b81518110611f44577f4e487b7100000000000000000000000000000000000000000000000000000000600052603260045260246000fd5b60200101907effffffffffffffffffffffffffffffffffffffffffffffffffffffffffffff1916908160001a9053508080611f7e90612d12565b915050611d24565b508092505050919050565b828054611f9d90612caf565b90600052602060002090601f016020900481019282611fbf5760008555612006565b82601f10611fd857805160ff1916838001178555612006565b82800160010185558215612006579182015b82811115612005578251825591602001919060010190611fea565b5b50905061201391906120a4565b5090565b82805461202390612caf565b90600052602060002090601f0160209004810192826120455760008555612093565b82601f106120565780548555612093565b8280016001018555821561209357600052602060002091601f016020900482015b82811115612092578254825591600101919060010190612077565b5b5090506120a091906120a4565b5090565b5b808211156120bd5760008160009055506001016120a5565b5090565b60006120d46120cf84612aa5565b612a80565b9050828152602081018484840111156120ec57600080fd5b6120f7848285612c6d565b509392505050565b600061211261210d84612aa5565b612a80565b90508281526020810184848401111561212a57600080fd5b612135848285612c7c565b509392505050565b60008135905061214c816130ab565b92915050565b600081519050612161816130ab565b92915050565b600081519050612176816130c2565b92915050565b600082601f83011261218d57600080fd5b813561219d8482602086016120c1565b91505092915050565b600082601f8301126121b757600080fd5b81516121c78482602086016120ff565b91505092915050565b6000813590506121df816130d2565b92915050565b6000815190506121f4816130d2565b92915050565b60006020828403121561220c57600080fd5b600061221a8482850161213d565b91505092915050565b60006020828403121561223557600080fd5b600082013567ffffffffffffffff81111561224f57600080fd5b61225b8482850161217c565b91505092915050565b6000806040838503121561227757600080fd5b600083013567ffffffffffffffff81111561229157600080fd5b61229d8582860161217c565b92505060206122ae8582860161213d565b9150509250929050565b600080600080600060a086880312156122d057600080fd5b600086015167ffffffffffffffff8111156122ea57600080fd5b6122f6888289016121a6565b955050602061230788828901612152565b945050604061231888828901612152565b935050606061232988828901612167565b925050608061233a888289016121e5565b9150509295509295909350565b60008060006060848603121561235c57600080fd5b600084013567ffffffffffffffff81111561237657600080fd5b6123828682870161217c565b935050602084013567ffffffffffffffff81111561239f57600080fd5b6123ab8682870161217c565b92505060406123bc868287016121d0565b9150509250925092565b6000602082840312156123d857600080fd5b60006123e6848285016121d0565b91505092915050565b60006020828403121561240157600080fd5b600061240f848285016121e5565b91505092915050565b600061242483836124b4565b60208301905092915050565b61243981612c25565b82525050565b61245061244b82612c25565b612d5b565b82525050565b600061246182612ae6565b61246b8185612b09565b935061247683612ad6565b8060005b838110156124a757815161248e8882612418565b975061249983612afc565b92505060018101905061247a565b5085935050505092915050565b6124bd81612c37565b82525050565b6124cc81612c37565b82525050565b60006124dd82612af1565b6124e78185612b25565b93506124f7818560208601612c7c565b61250081612e0c565b840191505092915050565b600061251682612af1565b6125208185612b36565b9350612530818560208601612c7c565b80840191505092915050565b6000612549602983612b25565b915061255482612e2a565b604082019050919050565b600061256c602683612b25565b915061257782612e79565b604082019050919050565b600061258f603583612b25565b915061259a82612ec8565b604082019050919050565b60006125b2601583612b25565b91506125bd82612f17565b602082019050919050565b60006125d5602083612b25565b91506125e082612f40565b602082019050919050565b60006125f8602d83612b25565b915061260382612f69565b604082019050919050565b600061261b603483612b25565b915061262682612fb8565b604082019050919050565b600061263e602083612b25565b915061264982613007565b602082019050919050565b6000612661600083612b1a565b915061266c82613030565b600082019050919050565b6000612684602383612b25565b915061268f82613033565b604082019050919050565b60006126a7601283612b25565b91506126b282613082565b602082019050919050565b6126c681612c63565b82525050565b60006126d8828461243f565b60148201915081905092915050565b60006126f3828461250b565b915081905092915050565b600061270982612654565b9150819050919050565b60006020820190506127286000830184612430565b92915050565b600060208201905081810360008301526127488184612456565b905092915050565b600060208201905061276560008301846124c3565b92915050565b6000604082019050818103600083015261278581856124d2565b90506127946020830184612430565b9392505050565b600060808201905081810360008301526127b581876124d2565b90506127c46020830186612430565b6127d16040830185612430565b6127de60608301846126bd565b95945050505050565b6000606082019050818103600083015261280181866124d2565b90506128106020830185612430565b61281d60408301846126bd565b949350505050565b600060c082019050818103600083015261283f81896124d2565b9050818103602083015261285381886124d2565b905061286260408301876126bd565b61286f60608301866124c3565b61287c60808301856126bd565b61288960a0830184612430565b979650505050505050565b600060408201905081810360008301526128ae81856124d2565b90506128bd60208301846126bd565b9392505050565b600060a08201905081810360008301526128de81886124d2565b90506128ed60208301876126bd565b81810360408301526128ff81866124d2565b905061290e60608301856126bd565b61291b6080830184612430565b9695505050505050565b6000602082019050818103600083015261293e8161253c565b9050919050565b6000602082019050818103600083015261295e8161255f565b9050919050565b6000602082019050818103600083015261297e81612582565b9050919050565b6000602082019050818103600083015261299e816125a5565b9050919050565b600060208201905081810360008301526129be816125c8565b9050919050565b600060208201905081810360008301526129de816125eb565b9050919050565b600060208201905081810360008301526129fe8161260e565b9050919050565b60006020820190508181036000830152612a1e81612631565b9050919050565b60006020820190508181036000830152612a3e81612677565b9050919050565b60006020820190508181036000830152612a5e8161269a565b9050919050565b6000602082019050612a7a60008301846126bd565b92915050565b6000612a8a612a9b565b9050612a968282612ce1565b919050565b6000604051905090565b600067ffffffffffffffff821115612ac057612abf612ddd565b5b612ac982612e0c565b9050602081019050919050565b6000819050602082019050919050565b600081519050919050565b600081519050919050565b6000602082019050919050565b600082825260208201905092915050565b600081905092915050565b600082825260208201905092915050565b600081905092915050565b6000612b4c82612c63565b9150612b5783612c63565b9250827fffffffffffffffffffffffffffffffffffffffffffffffffffffffffffffffff03821115612b8c57612b8b612d7f565b5b828201905092915050565b6000612ba282612c63565b9150612bad83612c63565b9250817fffffffffffffffffffffffffffffffffffffffffffffffffffffffffffffffff0483118215151615612be657612be5612d7f565b5b828202905092915050565b6000612bfc82612c63565b9150612c0783612c63565b925082821015612c1a57612c19612d7f565b5b828203905092915050565b6000612c3082612c43565b9050919050565b60008115159050919050565b600073ffffffffffffffffffffffffffffffffffffffff82169050919050565b6000819050919050565b82818337600083830152505050565b60005b83811015612c9a578082015181840152602081019050612c7f565b83811115612ca9576000848401525b50505050565b60006002820490506001821680612cc757607f821691505b60208210811415612cdb57612cda612dae565b5b50919050565b612cea82612e0c565b810181811067ffffffffffffffff82111715612d0957612d08612ddd565b5b80604052505050565b6000612d1d82612c63565b91507fffffffffffffffffffffffffffffffffffffffffffffffffffffffffffffffff821415612d5057612d4f612d7f565b5b600182019050919050565b6000612d6682612d6d565b9050919050565b6000612d7882612e1d565b9050919050565b7f4e487b7100000000000000000000000000000000000000000000000000000000600052601160045260246000fd5b7f4e487b7100000000000000000000000000000000000000000000000000000000600052602260045260246000fd5b7f4e487b7100000000000000000000000000000000000000000000000000000000600052604160045260246000fd5b6000601f19601f8301169050919050565b60008160601b9050919050565b7f5061726b696e6720436f7374205061796d656e74202d205472616e736163746960008201527f6f6e204661696c65640000000000000000000000000000000000000000000000602082015250565b7f4f776e61626c653a206e6577206f776e657220697320746865207a65726f206160008201527f6464726573730000000000000000000000000000000000000000000000000000602082015250565b7f5468652076616c7565206d75737420626520657175616c20746f20746865207360008201527f70616365207075626c69636174696f6e206665652e0000000000000000000000602082015250565b7f537061636520616c7265616479206578697374732e0000000000000000000000600082015250565b7f4f776e61626c653a2063616c6c6572206973206e6f7420746865206f776e6572600082015250565b7f447269766572206f6e6c792063616e2066696e69736820686973206f776e207260008201527f657265736572766174696f6e7300000000000000000000000000000000000000602082015250565b7f5468657265206973206e6f2061205061726b696e67205370616365207769746860008201527f2074686520737065636966696564206e616d652e000000000000000000000000602082015250565b7f466565205061796d656e74202d205472616e73616374696f6e204661696c6564600082015250565b50565b7f54686973207061726b696e67207370616365206973206e6f742072657365727660008201527f65642e0000000000000000000000000000000000000000000000000000000000602082015250565b7f5472616e73616374696f6e204661696c65640000000000000000000000000000600082015250565b6130b481612c25565b81146130bf57600080fd5b50565b600281106130cf57600080fd5b50565b6130db81612c63565b81146130e657600080fd5b5056fea2646970667358221220b6cd7a062b091aaf17d3ba5007a68d868d40c6658282fbf52bfc35d68b47e72964736f6c63430008040033608060405234801561001057600080fd5b5061002d61002261003260201b60201c565b61003a60201b60201c565b6100fe565b600033905090565b60008060009054906101000a900473ffffffffffffffffffffffffffffffffffffffff169050816000806101000a81548173ffffffffffffffffffffffffffffffffffffffff021916908373ffffffffffffffffffffffffffffffffffffffff1602179055508173ffffffffffffffffffffffffffffffffffffffff168173ffffffffffffffffffffffffffffffffffffffff167f8be0079c531659141344cd1fd0a4f28419497f9722a3daafe3b4186f6b6457e060405160405180910390a35050565b6110a98061010d6000396000f3fe608060405234801561001057600080fd5b50600436106100625760003560e01c80633d0350c114610067578063715018a614610083578063895c4c961461008d5780638da5cb5b146100c1578063cf639f20146100df578063f2fde38b1461010f575b600080fd5b610081600480360381019061007c9190610b6c565b61012b565b005b61008b61020f565b005b6100a760048036038101906100a29190610b6c565b610297565b6040516100b8959493929190610c7f565b60405180910390f35b6100c96104bd565b6040516100d69190610c64565b60405180910390f35b6100f960048036038101906100f49190610af1565b6104e6565b6040516101069190610d39565b60405180910390f35b61012960048036038101906101249190610ac8565b6107ab565b005b6101336108a3565b73ffffffffffffffffffffffffffffffffffffffff166101516104bd565b73ffffffffffffffffffffffffffffffffffffffff16146101a7576040517f08c379a000000000000000000000000000000000000000000000000000000000815260040161019e90610cf9565b60405180910390fd5b60016002600083815260200190815260200160002060020160146101000a81548160ff02191690836001811115610207577f4e487b7100000000000000000000000000000000000000000000000000000000600052602160045260246000fd5b021790555050565b6102176108a3565b73ffffffffffffffffffffffffffffffffffffffff166102356104bd565b73ffffffffffffffffffffffffffffffffffffffff161461028b576040517f08c379a000000000000000000000000000000000000000000000000000000000815260040161028290610cf9565b60405180910390fd5b61029560006108ab565b565b60606000806000806000600260008881526020019081526020016000206040518060a00160405290816000820180546102cf90610e69565b80601f01602080910402602001604051908101604052809291908181526020018280546102fb90610e69565b80156103485780601f1061031d57610100808354040283529160200191610348565b820191906000526020600020905b81548152906001019060200180831161032b57829003601f168201915b505050505081526020016001820160009054906101000a900473ffffffffffffffffffffffffffffffffffffffff1673ffffffffffffffffffffffffffffffffffffffff1673ffffffffffffffffffffffffffffffffffffffff1681526020016002820160009054906101000a900473ffffffffffffffffffffffffffffffffffffffff1673ffffffffffffffffffffffffffffffffffffffff1673ffffffffffffffffffffffffffffffffffffffff1681526020016002820160149054906101000a900460ff166001811115610448577f4e487b7100000000000000000000000000000000000000000000000000000000600052602160045260246000fd5b6001811115610480577f4e487b7100000000000000000000000000000000000000000000000000000000600052602160045260246000fd5b8152602001600382015481525050905080600001518160200151826040015183606001518460800151955095509550955095505091939590929450565b60008060009054906101000a900473ffffffffffffffffffffffffffffffffffffffff16905090565b60006104f06108a3565b73ffffffffffffffffffffffffffffffffffffffff1661050e6104bd565b73ffffffffffffffffffffffffffffffffffffffff1614610564576040517f08c379a000000000000000000000000000000000000000000000000000000000815260040161055b90610cf9565b60405180910390fd5b83838073ffffffffffffffffffffffffffffffffffffffff168273ffffffffffffffffffffffffffffffffffffffff1614156105d5576040517f08c379a00000000000000000000000000000000000000000000000000000000081526004016105cc90610d19565b60405180910390fd5b6105df600161096f565b6040518060a001604052808881526020018773ffffffffffffffffffffffffffffffffffffffff1681526020018673ffffffffffffffffffffffffffffffffffffffff16815260200160006001811115610662577f4e487b7100000000000000000000000000000000000000000000000000000000600052602160045260246000fd5b815260200185815250600260006106796001610985565b815260200190815260200160002060008201518160000190805190602001906106a3929190610993565b5060208201518160010160006101000a81548173ffffffffffffffffffffffffffffffffffffffff021916908373ffffffffffffffffffffffffffffffffffffffff16021790555060408201518160020160006101000a81548173ffffffffffffffffffffffffffffffffffffffff021916908373ffffffffffffffffffffffffffffffffffffffff16021790555060608201518160020160146101000a81548160ff02191690836001811115610783577f4e487b7100000000000000000000000000000000000000000000000000000000600052602160045260246000fd5b02179055506080820151816003015590505061079f6001610985565b92505050949350505050565b6107b36108a3565b73ffffffffffffffffffffffffffffffffffffffff166107d16104bd565b73ffffffffffffffffffffffffffffffffffffffff1614610827576040517f08c379a000000000000000000000000000000000000000000000000000000000815260040161081e90610cf9565b60405180910390fd5b600073ffffffffffffffffffffffffffffffffffffffff168173ffffffffffffffffffffffffffffffffffffffff161415610897576040517f08c379a000000000000000000000000000000000000000000000000000000000815260040161088e90610cd9565b60405180910390fd5b6108a0816108ab565b50565b600033905090565b60008060009054906101000a900473ffffffffffffffffffffffffffffffffffffffff169050816000806101000a81548173ffffffffffffffffffffffffffffffffffffffff021916908373ffffffffffffffffffffffffffffffffffffffff1602179055508173ffffffffffffffffffffffffffffffffffffffff168173ffffffffffffffffffffffffffffffffffffffff167f8be0079c531659141344cd1fd0a4f28419497f9722a3daafe3b4186f6b6457e060405160405180910390a35050565b6001816000016000828254019250508190555050565b600081600001549050919050565b82805461099f90610e69565b90600052602060002090601f0160209004810192826109c15760008555610a08565b82601f106109da57805160ff1916838001178555610a08565b82800160010185558215610a08579182015b82811115610a075782518255916020019190600101906109ec565b5b509050610a159190610a19565b5090565b5b80821115610a32576000816000905550600101610a1a565b5090565b6000610a49610a4484610d79565b610d54565b905082815260208101848484011115610a6157600080fd5b610a6c848285610e27565b509392505050565b600081359050610a8381611045565b92915050565b600082601f830112610a9a57600080fd5b8135610aaa848260208601610a36565b91505092915050565b600081359050610ac28161105c565b92915050565b600060208284031215610ada57600080fd5b6000610ae884828501610a74565b91505092915050565b60008060008060808587031215610b0757600080fd5b600085013567ffffffffffffffff811115610b2157600080fd5b610b2d87828801610a89565b9450506020610b3e87828801610a74565b9350506040610b4f87828801610a74565b9250506060610b6087828801610ab3565b91505092959194509250565b600060208284031215610b7e57600080fd5b6000610b8c84828501610ab3565b91505092915050565b610b9e81610dc6565b82525050565b610bad81610e15565b82525050565b6000610bbe82610daa565b610bc88185610db5565b9350610bd8818560208601610e36565b610be181610f59565b840191505092915050565b6000610bf9602683610db5565b9150610c0482610f6a565b604082019050919050565b6000610c1c602083610db5565b9150610c2782610fb9565b602082019050919050565b6000610c3f602283610db5565b9150610c4a82610fe2565b604082019050919050565b610c5e81610e0b565b82525050565b6000602082019050610c796000830184610b95565b92915050565b600060a0820190508181036000830152610c998188610bb3565b9050610ca86020830187610b95565b610cb56040830186610b95565b610cc26060830185610ba4565b610ccf6080830184610c55565b9695505050505050565b60006020820190508181036000830152610cf281610bec565b9050919050565b60006020820190508181036000830152610d1281610c0f565b9050919050565b60006020820190508181036000830152610d3281610c32565b9050919050565b6000602082019050610d4e6000830184610c55565b92915050565b6000610d5e610d6f565b9050610d6a8282610e9b565b919050565b6000604051905090565b600067ffffffffffffffff821115610d9457610d93610f2a565b5b610d9d82610f59565b9050602081019050919050565b600081519050919050565b600082825260208201905092915050565b6000610dd182610deb565b9050919050565b6000819050610de682611031565b919050565b600073ffffffffffffffffffffffffffffffffffffffff82169050919050565b6000819050919050565b6000610e2082610dd8565b9050919050565b82818337600083830152505050565b60005b83811015610e54578082015181840152602081019050610e39565b83811115610e63576000848401525b50505050565b60006002820490506001821680610e8157607f821691505b60208210811415610e9557610e94610efb565b5b50919050565b610ea482610f59565b810181811067ffffffffffffffff82111715610ec357610ec2610f2a565b5b80604052505050565b7f4e487b7100000000000000000000000000000000000000000000000000000000600052602160045260246000fd5b7f4e487b7100000000000000000000000000000000000000000000000000000000600052602260045260246000fd5b7f4e487b7100000000000000000000000000000000000000000000000000000000600052604160045260246000fd5b6000601f19601f8301169050919050565b7f4f776e61626c653a206e6577206f776e657220697320746865207a65726f206160008201527f6464726573730000000000000000000000000000000000000000000000000000602082015250565b7f4f776e61626c653a2063616c6c6572206973206e6f7420746865206f776e6572600082015250565b7f4f776e65722063616e6e6f74207265736572766520686973206f776e2073706160008201527f6365000000000000000000000000000000000000000000000000000000000000602082015250565b6002811061104257611041610ecc565b5b50565b61104e81610dc6565b811461105957600080fd5b50565b61106581610e0b565b811461107057600080fd5b5056fea2646970667358221220c4f0dcaf0e70926c72a1eb8c6e427894e240173a7447ba8bdfbb841189a2cd4064736f6c63430008040033",
  "immutableReferences": {},
  "source": "// SPDX-License-Identifier: MIT\npragma solidity 0.8.4;\n\nimport \"@openzeppelin/contracts/utils/Counters.sol\";\nimport \"@openzeppelin/contracts/token/ERC721/ERC721.sol\";\nimport \"@openzeppelin/contracts/security/ReentrancyGuard.sol\";\nimport \"@openzeppelin/contracts/access/Ownable.sol\";\nimport \"./ParkingReservationManager.sol\";\n\n\ncontract ParkingSystem is Ownable {\n  \n  \n\n  struct ParkingSpaceOwner {\n    uint256 id;\n    string name;\n    address account;\n  }\n\n  struct ParkingSpace {\n    string name;\n    string locationAddress;\n    uint256 ownerId;  \n    uint price;\n    bool isReserved;     \n  }\n  \n\n  //It verifies the new space has not been registered\n  modifier NonExistentParkingSpace(string memory _parkingName) {\n    require(registeredSpaces[_parkingName] == false, \"Space already exists.\" );\n    _;\n  }\n\n  //It verifies the new space has not been registered\n  modifier ExistentParkingSpace(string memory _parkingName) {\n    require(registeredSpaces[_parkingName], \"Space does not exist.\" );\n    _;\n  }\n\n  modifier CorrectSpacePublicationAmount() {\n    require(msg.value == spacePublicationFee, \"The value must be equal to the space publication fee.\");\n    _;\n  }\n\n  modifier CorrectReservationAmount() {\n    require(msg.value == reservationFee, \"The value must be equal to the reservation fee.\");\n    _;\n  }\n\n  modifier ReservedParkingSpace(string memory _spaceName) {\n    require(spaces[parkingSpaces[_spaceName]].isReserved, \"This parking space is not reserved.\");\n    _;\n  }\n\n  uint private constant enrollmentFee = 5;\n  uint private constant spacePublicationFee = 4; \n  uint private constant reservationFee = 1;\n\n\n  ///**** Owners\n  ParkingSpaceOwner[] private spaceOwners;\n  //To create owner Ids\n  using Counters for Counters.Counter;\n    Counters.Counter private ownersIndex;\n  //Owners by Id. Key: owner Id, Value: ParkingSpaceOwner\n  mapping(uint256 => ParkingSpaceOwner) private ownersById;  \n  //Owner name to Id\n  mapping(string => uint256) ownerIdByName;\n  //Allows to know if a owner is already enrolled. Key: owner Id, Value: indicates if the owner is enrolled or not \n  mapping(uint256 => bool) private enrolledOwners;\n\n  ///**** Spaces\n  //Availables Parking Spaces. Key: space name, Value: the parking space\n  mapping(string => uint256)  private parkingSpaces;\n  ParkingSpace[] private spaces;\n  using Counters for Counters.Counter;\n    Counters.Counter private spaceCount;\n  //Allows to know if the space has been registered in the app. Key: space Id, Value: indicates if the space exists or not\n  mapping(string => bool) private registeredSpaces;\n  //Allows to know easily the owner for each space\n  mapping(string => uint256) private ownerBySpaceId;\n\n  //Reservation\n  mapping(string => uint256) private activeReservation;\n\n  //**** Events\n  event OwnerRegistered(string _ownerName, address _ownerAccount, uint256 _ownerId);\n  event SpaceAdded(string _spaceName, uint256 _ownerId, string _locationAddress, uint _price, address _ownerAccount);\n  event ReservationCreated(string _spaceName, uint256 reserveId);\n\n  ParkingReservationManager private reservationMgr;\n\n  constructor()  {\n      reservationMgr = new ParkingReservationManager();\n  }\n\n  function addParkingSpaceOwner(string memory _ownerName, address _spaceOwnerAccount) public returns (uint256) {\n\n    uint256 ownerId = ownerIdByName[_ownerName];\n    if(!enrolledOwners[ownerId]){// Is a new Owner\n      ownersIndex.increment();\n      ownerId = ownersIndex.current();\n\n      ownerIdByName[_ownerName] = ownerId;\n      ownersById[ownerId] = ParkingSpaceOwner({\n                                        id: ownerId,\n                                        name: _ownerName,\n                                        account: _spaceOwnerAccount\n                                    });\n      enrolledOwners[ownerId] = true;\n      spaceOwners.push(ownersById[ownerId]);\n    }\n    emit OwnerRegistered(_ownerName, _spaceOwnerAccount, ownerId);\n    return ownerId;\n  }\n\n  function isOwnerEnrolled(string memory _ownerName) public view returns (bool){\n\n    uint256 ownerId = ownerIdByName[_ownerName];\n    return enrolledOwners[ownerId];\n  }\n\n  function getOwnersQuantity() public view returns (uint256){\n    return ownersIndex.current();\n  }\n  \n  function getSpaceOwnerInfo(uint256 _ownerId) public view returns (string memory name, address account){\n   \n    return (ownersById[_ownerId - 1].name, ownersById[_ownerId - 1].account);\n  }\n  function addParkingSpace(string memory _spaceName, string memory _locationAddress, uint _price) public NonExistentParkingSpace(_spaceName) CorrectSpacePublicationAmount payable {\n    address ownerAccount = msg.sender;\n    string memory ownerName = toString(ownerAccount);\n    uint256 ownerId = ownerIdByName[ownerName];\n\n    if(!enrolledOwners[ownerId]){\n\n      ownerId = addParkingSpaceOwner(ownerName, ownerAccount);\n    }\n    \n    //Adds a new Parking Space\n    spaces.push(ParkingSpace({\n                              name: _spaceName,\n                              locationAddress: _locationAddress,\n                              ownerId: ownerId,\n                              price: _price,\n                              isReserved: false \n                            })\n               );\n    parkingSpaces[_spaceName] = spaceCount.current();\n    spaceCount.increment();\n\n    registeredSpaces[_spaceName] = true;\n    ownerBySpaceId[_spaceName] = ownerId;\n\n    // Take the publication fee\n    (bool sent, ) = address(owner()).call{value: msg.value}(\"\");\n    require(sent, \"Transaction Failed\");\n\n    ParkingSpaceOwner memory spaceOwner = ownersById[ownerId];\n\n    emit SpaceAdded(_spaceName, ownerId, _locationAddress, _price, spaceOwner.account);\n  }\n\n  function getSpacesQuantity() public view returns (uint256){\n    return spaceCount.current();\n  }\n\n  function getParkingSpaceInfo(uint256 _index) public view returns (string memory name, \n                                                                string memory locationAddress, \n                                                                uint price, \n                                                                bool isReserved, \n                                                                uint256 ownerId, \n                                                                address ownerAccount) {\n\n    ParkingSpace memory space = spaces[_index];\n    address account = ownersById[space.ownerId].account;                                                                  \n\n    return (space.name,\n            space.locationAddress,\n            space.price,\n            space.isReserved,\n            space.ownerId,\n            account\n           );\n  }\n\n  function getParkingSpaceInfoByName(string memory _spaceName) public view returns (string memory name, \n                                                                string memory locationAddress, \n                                                                uint price, \n                                                                bool isReserved, \n                                                                uint256 ownerId, \n                                                                address ownerAccount) {\n    return getParkingSpaceInfo(parkingSpaces[_spaceName]);                                                                \n  }\n\n  function getSpacesStatus() public view returns (bool[] memory) {\n    bool[] memory spacesStatus;\n\n    for(uint i = 0; i < spaceCount.current() ; i++){\n\n      spacesStatus[i] = spaces[i].isReserved;\n    }\n    return spacesStatus;\n  }\n\n  function isAReservedSpace(string memory _spaceName) public view returns (bool) {\n\n    return spaces[parkingSpaces[_spaceName]].isReserved;\n  }\n   \n  function reserveParkingSpace(string memory _spaceName) public payable {\n\n    bool sent;\n\n      // find a parkingSpace with _spaceName\n      require(registeredSpaces[_spaceName], \"There is no a Parking Space with the specified name.\");\n\n      // Owner id\n      uint256 ownerId = spaces[parkingSpaces[_spaceName]].ownerId;\n      // find the space owner\n      ParkingSpaceOwner  memory spaceOwner = ownersById[ownerId];\n\n      // create a rervation\n      uint256 reservationId =  reservationMgr.reserveParkingSpace(_spaceName, \n                                                                  spaceOwner.account, \n                                                                  msg.sender, \n                                                                  spaces[parkingSpaces[_spaceName]].price\n                                                                 );\n\n      // get the reservation fee\n      (sent, ) = address(owner()).call{value: reservationFee}(\"\");\n      require(sent, \"Fee Payment - Transaction Failed\");   \n\n      // mark the space as busy\n      spaces[parkingSpaces[_spaceName]].isReserved = true;      \n      // save de reservation Id\n      activeReservation[_spaceName] = reservationId;\n\n      emit ReservationCreated(_spaceName, reservationId);\n  }\n\n  function finishParking(string memory _spaceName) public payable ReservedParkingSpace(_spaceName) {\n\n      bool sent;\n      address ownerAccount;\n      address driverAccount;\n      uint256 parkingValue;\n\n      uint256 reservationId = activeReservation[_spaceName];\n\n      // Gets reservationInfo\n      ( , ownerAccount, driverAccount, , parkingValue) = reservationMgr.getParkingReservationInfo(reservationId);\n\n      // Validates sender is the reservation driver\n      require(driverAccount == msg.sender, \"Driver only can finish his own rereservations\");\n\n      // Charges the parking cost to the driver and gives to the space owner\n      (sent, ) = ownerAccount.call{value: parkingValue}(\"\");\n      require(sent, \"Parking Cost Payment - Transaction Failed\"); \n\n      // Finishes the reservation\n      reservationMgr.finishParking(reservationId);\n\n      // mark the space as free\n      spaces[parkingSpaces[_spaceName]].isReserved = false;\n\n      // clear reservationId for current space\n      activeReservation[_spaceName] = 0;\n\n  }\n\n  function toString(address account) private pure returns(string memory) {\n      return toString(abi.encodePacked(account));\n  }\n\n  function toString(uint256 value) private pure returns(string memory) {\n      return toString(abi.encodePacked(value));\n  }\n\n  function toString(bytes32 value) private pure returns(string memory) {\n      return toString(abi.encodePacked(value));\n  }\n\n  function toString(bytes memory data) private pure returns(string memory) {\n      bytes memory alphabet = \"0123456789abcdef\";\n\n      bytes memory str = new bytes(2 + data.length * 2);\n      str[0] = \"0\";\n      str[1] = \"x\";\n      for (uint i = 0; i < data.length; i++) {\n          str[2+i*2] = alphabet[uint(uint8(data[i] >> 4))];\n          str[3+i*2] = alphabet[uint(uint8(data[i] & 0x0f))];\n      }\n      return string(str);\n  }\n\n}\n",
  "sourcePath": "/home/landino/blockchain-developer-bootcamp-final-project/contracts/ParkingSystem.sol",
  "compiler": {
    "name": "solc",
    "version": "0.8.4+commit.c7e474f2.Emscripten.clang"
  },
  "schemaVersion": "3.4.3",
  "updatedAt": "2022-01-15T21:02:16.712Z",
  "networkType": "ethereum",
  "devdoc": {
    "kind": "dev",
    "methods": {
      "owner()": {
        "details": "Returns the address of the current owner."
      },
      "renounceOwnership()": {
        "details": "Leaves the contract without owner. It will not be possible to call `onlyOwner` functions anymore. Can only be called by the current owner. NOTE: Renouncing ownership will leave the contract without an owner, thereby removing any functionality that is only available to the owner."
      },
      "transferOwnership(address)": {
        "details": "Transfers ownership of the contract to a new account (`newOwner`). Can only be called by the current owner."
      }
    },
    "version": 1
  },
  "userdoc": {
    "kind": "user",
    "methods": {},
    "version": 1
  }
}