{
  "contractName": "ParkingReservationManager",
  "abi": [
    {
      "inputs": [],
      "stateMutability": "nonpayable",
      "type": "constructor"
    },
    {
      "anonymous": false,
      "inputs": [
        {
          "indexed": true,
          "internalType": "address",
          "name": "previousOwner",
          "type": "address"
        },
        {
          "indexed": true,
          "internalType": "address",
          "name": "newOwner",
          "type": "address"
        }
      ],
      "name": "OwnershipTransferred",
      "type": "event"
    },
    {
      "inputs": [],
      "name": "owner",
      "outputs": [
        {
          "internalType": "address",
          "name": "",
          "type": "address"
        }
      ],
      "stateMutability": "view",
      "type": "function",
      "constant": true
    },
    {
      "inputs": [],
      "name": "renounceOwnership",
      "outputs": [],
      "stateMutability": "nonpayable",
      "type": "function"
    },
    {
      "inputs": [
        {
          "internalType": "address",
          "name": "newOwner",
          "type": "address"
        }
      ],
      "name": "transferOwnership",
      "outputs": [],
      "stateMutability": "nonpayable",
      "type": "function"
    },
    {
      "inputs": [
        {
          "internalType": "uint256",
          "name": "_reservationId",
          "type": "uint256"
        }
      ],
      "name": "getParkingReservationInfo",
      "outputs": [
        {
          "internalType": "string",
          "name": "spaceName",
          "type": "string"
        },
        {
          "internalType": "address",
          "name": "ownerAccount",
          "type": "address"
        },
        {
          "internalType": "address",
          "name": "driverAccount",
          "type": "address"
        },
        {
          "internalType": "enum ParkingReservationManager.Status",
          "name": "status",
          "type": "uint8"
        },
        {
          "internalType": "uint256",
          "name": "value",
          "type": "uint256"
        }
      ],
      "stateMutability": "view",
      "type": "function",
      "constant": true
    },
    {
      "inputs": [
        {
          "internalType": "string",
          "name": "_spaceName",
          "type": "string"
        },
        {
          "internalType": "address",
          "name": "_ownerAccount",
          "type": "address"
        },
        {
          "internalType": "address",
          "name": "_driverAccount",
          "type": "address"
        },
        {
          "internalType": "uint256",
          "name": "_value",
          "type": "uint256"
        }
      ],
      "name": "reserveParkingSpace",
      "outputs": [
        {
          "internalType": "uint256",
          "name": "",
          "type": "uint256"
        }
      ],
      "stateMutability": "nonpayable",
      "type": "function"
    },
    {
      "inputs": [
        {
          "internalType": "uint256",
          "name": "_reservationId",
          "type": "uint256"
        }
      ],
      "name": "finishParking",
      "outputs": [],
      "stateMutability": "nonpayable",
      "type": "function"
    }
  ],
  "bytecode": "0x608060405234801561001057600080fd5b5061002d61002261003260201b60201c565b61003a60201b60201c565b6100fe565b600033905090565b60008060009054906101000a900473ffffffffffffffffffffffffffffffffffffffff169050816000806101000a81548173ffffffffffffffffffffffffffffffffffffffff021916908373ffffffffffffffffffffffffffffffffffffffff1602179055508173ffffffffffffffffffffffffffffffffffffffff168173ffffffffffffffffffffffffffffffffffffffff167f8be0079c531659141344cd1fd0a4f28419497f9722a3daafe3b4186f6b6457e060405160405180910390a35050565b6110178061010d6000396000f3fe608060405234801561001057600080fd5b50600436106100625760003560e01c80633d0350c114610067578063715018a614610083578063895c4c961461008d5780638da5cb5b146100c1578063cf639f20146100df578063f2fde38b1461010f575b600080fd5b610081600480360381019061007c91906109c2565b61012b565b005b61008b6101e9565b005b6100a760048036038101906100a291906109c2565b610271565b6040516100b8959493929190610b4f565b60405180910390f35b6100c961044b565b6040516100d69190610ba9565b60405180910390f35b6100f960048036038101906100f49190610d25565b610474565b6040516101069190610da8565b60405180910390f35b61012960048036038101906101249190610dc3565b6106ed565b005b6101336107e5565b73ffffffffffffffffffffffffffffffffffffffff1661015161044b565b73ffffffffffffffffffffffffffffffffffffffff16146101a7576040517f08c379a000000000000000000000000000000000000000000000000000000000815260040161019e90610e3c565b60405180910390fd5b60016002600083815260200190815260200160002060020160146101000a81548160ff021916908360018111156101e1576101e0610ac9565b5b021790555050565b6101f16107e5565b73ffffffffffffffffffffffffffffffffffffffff1661020f61044b565b73ffffffffffffffffffffffffffffffffffffffff1614610265576040517f08c379a000000000000000000000000000000000000000000000000000000000815260040161025c90610e3c565b60405180910390fd5b61026f60006107ed565b565b60606000806000806000600260008881526020019081526020016000206040518060a00160405290816000820180546102a990610e8b565b80601f01602080910402602001604051908101604052809291908181526020018280546102d590610e8b565b80156103225780601f106102f757610100808354040283529160200191610322565b820191906000526020600020905b81548152906001019060200180831161030557829003601f168201915b505050505081526020016001820160009054906101000a900473ffffffffffffffffffffffffffffffffffffffff1673ffffffffffffffffffffffffffffffffffffffff1673ffffffffffffffffffffffffffffffffffffffff1681526020016002820160009054906101000a900473ffffffffffffffffffffffffffffffffffffffff1673ffffffffffffffffffffffffffffffffffffffff1673ffffffffffffffffffffffffffffffffffffffff1681526020016002820160149054906101000a900460ff1660018111156103fc576103fb610ac9565b5b600181111561040e5761040d610ac9565b5b8152602001600382015481525050905080600001518160200151826040015183606001518460800151955095509550955095505091939590929450565b60008060009054906101000a900473ffffffffffffffffffffffffffffffffffffffff16905090565b600061047e6107e5565b73ffffffffffffffffffffffffffffffffffffffff1661049c61044b565b73ffffffffffffffffffffffffffffffffffffffff16146104f2576040517f08c379a00000000000000000000000000000000000000000000000000000000081526004016104e990610e3c565b60405180910390fd5b83838073ffffffffffffffffffffffffffffffffffffffff168273ffffffffffffffffffffffffffffffffffffffff161415610563576040517f08c379a000000000000000000000000000000000000000000000000000000000815260040161055a90610f2f565b60405180910390fd5b61056d60016108b1565b6040518060a001604052808881526020018773ffffffffffffffffffffffffffffffffffffffff1681526020018673ffffffffffffffffffffffffffffffffffffffff168152602001600060018111156105ca576105c9610ac9565b5b815260200185815250600260006105e160016108c7565b8152602001908152602001600020600082015181600001908051906020019061060b9291906108d5565b5060208201518160010160006101000a81548173ffffffffffffffffffffffffffffffffffffffff021916908373ffffffffffffffffffffffffffffffffffffffff16021790555060408201518160020160006101000a81548173ffffffffffffffffffffffffffffffffffffffff021916908373ffffffffffffffffffffffffffffffffffffffff16021790555060608201518160020160146101000a81548160ff021916908360018111156106c5576106c4610ac9565b5b0217905550608082015181600301559050506106e160016108c7565b92505050949350505050565b6106f56107e5565b73ffffffffffffffffffffffffffffffffffffffff1661071361044b565b73ffffffffffffffffffffffffffffffffffffffff1614610769576040517f08c379a000000000000000000000000000000000000000000000000000000000815260040161076090610e3c565b60405180910390fd5b600073ffffffffffffffffffffffffffffffffffffffff168173ffffffffffffffffffffffffffffffffffffffff1614156107d9576040517f08c379a00000000000000000000000000000000000000000000000000000000081526004016107d090610fc1565b60405180910390fd5b6107e2816107ed565b50565b600033905090565b60008060009054906101000a900473ffffffffffffffffffffffffffffffffffffffff169050816000806101000a81548173ffffffffffffffffffffffffffffffffffffffff021916908373ffffffffffffffffffffffffffffffffffffffff1602179055508173ffffffffffffffffffffffffffffffffffffffff168173ffffffffffffffffffffffffffffffffffffffff167f8be0079c531659141344cd1fd0a4f28419497f9722a3daafe3b4186f6b6457e060405160405180910390a35050565b6001816000016000828254019250508190555050565b600081600001549050919050565b8280546108e190610e8b565b90600052602060002090601f016020900481019282610903576000855561094a565b82601f1061091c57805160ff191683800117855561094a565b8280016001018555821561094a579182015b8281111561094957825182559160200191906001019061092e565b5b509050610957919061095b565b5090565b5b8082111561097457600081600090555060010161095c565b5090565b6000604051905090565b600080fd5b600080fd5b6000819050919050565b61099f8161098c565b81146109aa57600080fd5b50565b6000813590506109bc81610996565b92915050565b6000602082840312156109d8576109d7610982565b5b60006109e6848285016109ad565b91505092915050565b600081519050919050565b600082825260208201905092915050565b60005b83811015610a29578082015181840152602081019050610a0e565b83811115610a38576000848401525b50505050565b6000601f19601f8301169050919050565b6000610a5a826109ef565b610a6481856109fa565b9350610a74818560208601610a0b565b610a7d81610a3e565b840191505092915050565b600073ffffffffffffffffffffffffffffffffffffffff82169050919050565b6000610ab382610a88565b9050919050565b610ac381610aa8565b82525050565b7f4e487b7100000000000000000000000000000000000000000000000000000000600052602160045260246000fd5b60028110610b0957610b08610ac9565b5b50565b6000819050610b1a82610af8565b919050565b6000610b2a82610b0c565b9050919050565b610b3a81610b1f565b82525050565b610b498161098c565b82525050565b600060a0820190508181036000830152610b698188610a4f565b9050610b786020830187610aba565b610b856040830186610aba565b610b926060830185610b31565b610b9f6080830184610b40565b9695505050505050565b6000602082019050610bbe6000830184610aba565b92915050565b600080fd5b600080fd5b7f4e487b7100000000000000000000000000000000000000000000000000000000600052604160045260246000fd5b610c0682610a3e565b810181811067ffffffffffffffff82111715610c2557610c24610bce565b5b80604052505050565b6000610c38610978565b9050610c448282610bfd565b919050565b600067ffffffffffffffff821115610c6457610c63610bce565b5b610c6d82610a3e565b9050602081019050919050565b82818337600083830152505050565b6000610c9c610c9784610c49565b610c2e565b905082815260208101848484011115610cb857610cb7610bc9565b5b610cc3848285610c7a565b509392505050565b600082601f830112610ce057610cdf610bc4565b5b8135610cf0848260208601610c89565b91505092915050565b610d0281610aa8565b8114610d0d57600080fd5b50565b600081359050610d1f81610cf9565b92915050565b60008060008060808587031215610d3f57610d3e610982565b5b600085013567ffffffffffffffff811115610d5d57610d5c610987565b5b610d6987828801610ccb565b9450506020610d7a87828801610d10565b9350506040610d8b87828801610d10565b9250506060610d9c878288016109ad565b91505092959194509250565b6000602082019050610dbd6000830184610b40565b92915050565b600060208284031215610dd957610dd8610982565b5b6000610de784828501610d10565b91505092915050565b7f4f776e61626c653a2063616c6c6572206973206e6f7420746865206f776e6572600082015250565b6000610e266020836109fa565b9150610e3182610df0565b602082019050919050565b60006020820190508181036000830152610e5581610e19565b9050919050565b7f4e487b7100000000000000000000000000000000000000000000000000000000600052602260045260246000fd5b60006002820490506001821680610ea357607f821691505b60208210811415610eb757610eb6610e5c565b5b50919050565b7f4f776e65722063616e6e6f74207265736572766520686973206f776e2073706160008201527f6365000000000000000000000000000000000000000000000000000000000000602082015250565b6000610f196022836109fa565b9150610f2482610ebd565b604082019050919050565b60006020820190508181036000830152610f4881610f0c565b9050919050565b7f4f776e61626c653a206e6577206f776e657220697320746865207a65726f206160008201527f6464726573730000000000000000000000000000000000000000000000000000602082015250565b6000610fab6026836109fa565b9150610fb682610f4f565b604082019050919050565b60006020820190508181036000830152610fda81610f9e565b905091905056fea2646970667358221220937b2486b50843ca885f87ffc284883bb3ecd1224d42bea9b9f9d1314bb7e90d64736f6c634300080b0033",
  "immutableReferences": {},
  "source": "// SPDX-License-Identifier: MIT\npragma solidity ^0.8.4;\n\nimport \"@openzeppelin/contracts/access/Ownable.sol\";\nimport \"@openzeppelin/contracts/utils/Counters.sol\";\n\ncontract ParkingReservationManager is Ownable{\n\n  //To create reservation Ids\n  using Counters for Counters.Counter;\n    Counters.Counter private reservationIndex;\n\n  mapping(uint256 => Reservation) private reservations;\n\n  enum Status {\n    InProgress,\n    Finished\n  }\n\n  struct Reservation {\n    string spaceName;\n    address ownerAccount;\n    address driverAccount;\n    Status status;\n    uint256 value;\n  }\n\n  modifier AvailableToFinish(uint256 _reservationId){\n    Status status = reservations[_reservationId].status;\n    require(status == Status.InProgress, \"Invalid reservation status.\");\n    _;\n  }\n\n  modifier OwnerCannotReserve(address _ownerAccount, address _driverAccount){\n    require(_ownerAccount != _driverAccount, \"Owner cannot reserve his own space\");\n    _;\n  }\n\n  constructor() {\n    \n  }\n\n  function getParkingReservationInfo(uint256 _reservationId) public view returns ( string memory spaceName,\n                                                                                    address ownerAccount,\n                                                                                    address driverAccount,\n                                                                                    Status status,\n                                                                                    uint256 value) {\n\n    Reservation memory res = reservations[_reservationId];\n\n    return (res.spaceName,\n            res.ownerAccount,\n            res.driverAccount,\n            res.status,\n            res.value\n           );\n  }\n\n\n  function reserveParkingSpace(string memory _spaceName, address _ownerAccount, address _driverAccount, uint256 _value) public onlyOwner OwnerCannotReserve(_ownerAccount, _driverAccount) returns (uint256) {\n\n    reservationIndex.increment();\n    reservations[reservationIndex.current()] = Reservation({\n      spaceName: _spaceName,\n      ownerAccount: _ownerAccount,\n      driverAccount: _driverAccount,\n      status: Status.InProgress,\n      value: _value\n    });\n\n    return reservationIndex.current();\n  }\n\n  function finishParking(uint _reservationId) public onlyOwner{\n\n    reservations[_reservationId].status = Status.Finished;\n  }\n\n}\n",
  "sourcePath": "/home/landino/blockchain-developer-bootcamp-final-project/contracts/ParkingReservationManager.sol",
  "compiler": {
    "name": "solc",
    "version": "0.8.11+commit.d7f03943.Emscripten.clang"
  },
  "schemaVersion": "3.4.3",
  "updatedAt": "2022-01-15T15:59:25.285Z",
  "networkType": "ethereum",
  "devdoc": {
    "kind": "dev",
    "methods": {
      "owner()": {
        "details": "Returns the address of the current owner."
      },
      "renounceOwnership()": {
        "details": "Leaves the contract without owner. It will not be possible to call `onlyOwner` functions anymore. Can only be called by the current owner. NOTE: Renouncing ownership will leave the contract without an owner, thereby removing any functionality that is only available to the owner."
      },
      "transferOwnership(address)": {
        "details": "Transfers ownership of the contract to a new account (`newOwner`). Can only be called by the current owner."
      }
    },
    "version": 1
  },
  "userdoc": {
    "kind": "user",
    "methods": {},
    "version": 1
  }
}