{
  "contractName": "ParkingSystem",
  "abi": [
    {
      "inputs": [],
      "stateMutability": "nonpayable",
      "type": "constructor"
    },
    {
      "anonymous": false,
      "inputs": [
        {
          "indexed": false,
          "internalType": "string",
          "name": "_ownerName",
          "type": "string"
        },
        {
          "indexed": false,
          "internalType": "address",
          "name": "_ownerAccount",
          "type": "address"
        },
        {
          "indexed": false,
          "internalType": "uint256",
          "name": "_ownerId",
          "type": "uint256"
        }
      ],
      "name": "OwnerRegistered",
      "type": "event"
    },
    {
      "anonymous": false,
      "inputs": [
        {
          "indexed": true,
          "internalType": "address",
          "name": "previousOwner",
          "type": "address"
        },
        {
          "indexed": true,
          "internalType": "address",
          "name": "newOwner",
          "type": "address"
        }
      ],
      "name": "OwnershipTransferred",
      "type": "event"
    },
    {
      "anonymous": false,
      "inputs": [
        {
          "indexed": false,
          "internalType": "string",
          "name": "_spaceName",
          "type": "string"
        },
        {
          "indexed": false,
          "internalType": "uint256",
          "name": "reserveId",
          "type": "uint256"
        }
      ],
      "name": "ReservationCreated",
      "type": "event"
    },
    {
      "anonymous": false,
      "inputs": [
        {
          "indexed": false,
          "internalType": "string",
          "name": "_spaceName",
          "type": "string"
        },
        {
          "indexed": false,
          "internalType": "uint256",
          "name": "_ownerId",
          "type": "uint256"
        },
        {
          "indexed": false,
          "internalType": "string",
          "name": "_locationAddress",
          "type": "string"
        },
        {
          "indexed": false,
          "internalType": "uint256",
          "name": "_price",
          "type": "uint256"
        },
        {
          "indexed": false,
          "internalType": "address",
          "name": "_ownerAccount",
          "type": "address"
        }
      ],
      "name": "SpaceAdded",
      "type": "event"
    },
    {
      "inputs": [],
      "name": "owner",
      "outputs": [
        {
          "internalType": "address",
          "name": "",
          "type": "address"
        }
      ],
      "stateMutability": "view",
      "type": "function",
      "constant": true
    },
    {
      "inputs": [],
      "name": "renounceOwnership",
      "outputs": [],
      "stateMutability": "nonpayable",
      "type": "function"
    },
    {
      "inputs": [
        {
          "internalType": "address",
          "name": "newOwner",
          "type": "address"
        }
      ],
      "name": "transferOwnership",
      "outputs": [],
      "stateMutability": "nonpayable",
      "type": "function"
    },
    {
      "inputs": [
        {
          "internalType": "string",
          "name": "_ownerName",
          "type": "string"
        },
        {
          "internalType": "address",
          "name": "_spaceOwnerAccount",
          "type": "address"
        }
      ],
      "name": "addParkingSpaceOwner",
      "outputs": [
        {
          "internalType": "uint256",
          "name": "",
          "type": "uint256"
        }
      ],
      "stateMutability": "nonpayable",
      "type": "function"
    },
    {
      "inputs": [
        {
          "internalType": "string",
          "name": "_ownerName",
          "type": "string"
        }
      ],
      "name": "isOwnerEnrolled",
      "outputs": [
        {
          "internalType": "bool",
          "name": "",
          "type": "bool"
        }
      ],
      "stateMutability": "view",
      "type": "function",
      "constant": true
    },
    {
      "inputs": [],
      "name": "getOwnersQuantity",
      "outputs": [
        {
          "internalType": "uint256",
          "name": "",
          "type": "uint256"
        }
      ],
      "stateMutability": "view",
      "type": "function",
      "constant": true
    },
    {
      "inputs": [
        {
          "internalType": "uint256",
          "name": "_ownerId",
          "type": "uint256"
        }
      ],
      "name": "getSpaceOwnerInfo",
      "outputs": [
        {
          "internalType": "string",
          "name": "name",
          "type": "string"
        },
        {
          "internalType": "address",
          "name": "account",
          "type": "address"
        }
      ],
      "stateMutability": "view",
      "type": "function",
      "constant": true
    },
    {
      "inputs": [
        {
          "internalType": "string",
          "name": "_spaceName",
          "type": "string"
        },
        {
          "internalType": "string",
          "name": "_locationAddress",
          "type": "string"
        },
        {
          "internalType": "uint256",
          "name": "_price",
          "type": "uint256"
        }
      ],
      "name": "addParkingSpace",
      "outputs": [],
      "stateMutability": "payable",
      "type": "function",
      "payable": true
    },
    {
      "inputs": [],
      "name": "getSpacesQuantity",
      "outputs": [
        {
          "internalType": "uint256",
          "name": "",
          "type": "uint256"
        }
      ],
      "stateMutability": "view",
      "type": "function",
      "constant": true
    },
    {
      "inputs": [
        {
          "internalType": "uint256",
          "name": "_index",
          "type": "uint256"
        }
      ],
      "name": "getParkingSpaceInfo",
      "outputs": [
        {
          "internalType": "string",
          "name": "name",
          "type": "string"
        },
        {
          "internalType": "string",
          "name": "locationAddress",
          "type": "string"
        },
        {
          "internalType": "uint256",
          "name": "price",
          "type": "uint256"
        },
        {
          "internalType": "bool",
          "name": "isReserved",
          "type": "bool"
        },
        {
          "internalType": "uint256",
          "name": "ownerId",
          "type": "uint256"
        },
        {
          "internalType": "address",
          "name": "ownerAccount",
          "type": "address"
        }
      ],
      "stateMutability": "view",
      "type": "function",
      "constant": true
    },
    {
      "inputs": [
        {
          "internalType": "string",
          "name": "_spaceName",
          "type": "string"
        }
      ],
      "name": "getParkingSpaceInfoByName",
      "outputs": [
        {
          "internalType": "string",
          "name": "name",
          "type": "string"
        },
        {
          "internalType": "string",
          "name": "locationAddress",
          "type": "string"
        },
        {
          "internalType": "uint256",
          "name": "price",
          "type": "uint256"
        },
        {
          "internalType": "bool",
          "name": "isReserved",
          "type": "bool"
        },
        {
          "internalType": "uint256",
          "name": "ownerId",
          "type": "uint256"
        },
        {
          "internalType": "address",
          "name": "ownerAccount",
          "type": "address"
        }
      ],
      "stateMutability": "view",
      "type": "function",
      "constant": true
    },
    {
      "inputs": [],
      "name": "getSpacesStatus",
      "outputs": [
        {
          "internalType": "bool[]",
          "name": "",
          "type": "bool[]"
        }
      ],
      "stateMutability": "view",
      "type": "function",
      "constant": true
    },
    {
      "inputs": [
        {
          "internalType": "string",
          "name": "_spaceName",
          "type": "string"
        }
      ],
      "name": "isAReservedSpace",
      "outputs": [
        {
          "internalType": "bool",
          "name": "",
          "type": "bool"
        }
      ],
      "stateMutability": "view",
      "type": "function",
      "constant": true
    },
    {
      "inputs": [
        {
          "internalType": "string",
          "name": "_spaceName",
          "type": "string"
        }
      ],
      "name": "reserveParkingSpace",
      "outputs": [],
      "stateMutability": "payable",
      "type": "function",
      "payable": true
    },
    {
      "inputs": [
        {
          "internalType": "string",
          "name": "_spaceName",
          "type": "string"
        }
      ],
      "name": "finishParking",
      "outputs": [],
      "stateMutability": "payable",
      "type": "function",
      "payable": true
    }
  ],
  "bytecode": "0x60806040523480156200001157600080fd5b506200003262000026620000a460201b60201c565b620000ac60201b60201c565b604051620000409062000170565b604051809103906000f0801580156200005d573d6000803e3d6000fd5b50600c60006101000a81548173ffffffffffffffffffffffffffffffffffffffff021916908373ffffffffffffffffffffffffffffffffffffffff1602179055506200017e565b600033905090565b60008060009054906101000a900473ffffffffffffffffffffffffffffffffffffffff169050816000806101000a81548173ffffffffffffffffffffffffffffffffffffffff021916908373ffffffffffffffffffffffffffffffffffffffff1602179055508173ffffffffffffffffffffffffffffffffffffffff168173ffffffffffffffffffffffffffffffffffffffff167f8be0079c531659141344cd1fd0a4f28419497f9722a3daafe3b4186f6b6457e060405160405180910390a35050565b611124806200306683390190565b612ed8806200018e6000396000f3fe6080604052600436106100e85760003560e01c8063715018a61161008a578063d277bcbc11610059578063d277bcbc146102f9578063e8182fa814610315578063f2fde38b14610340578063f4de771414610369576100e8565b8063715018a61461027057806379a117d6146102875780638c245708146102b25780638da5cb5b146102ce576100e8565b806342835132116100c657806342835132146101aa57806343ff7f6f146101e75780635e5a073b146102295780636a152b4e14610245576100e8565b806324433be6146100ed5780632c48a6e61461012b5780634049f8e714610168575b600080fd5b3480156100f957600080fd5b50610114600480360381019061010f9190611e41565b6103a6565b604051610122929190611f48565b60405180910390f35b34801561013757600080fd5b50610152600480360381019061014d91906120ad565b6104a4565b60405161015f9190612111565b60405180910390f35b34801561017457600080fd5b5061018f600480360381019061018a9190611e41565b6104fe565b6040516101a19695949392919061213b565b60405180910390f35b3480156101b657600080fd5b506101d160048036038101906101cc91906120ad565b6106fb565b6040516101de9190612111565b60405180910390f35b3480156101f357600080fd5b5061020e600480360381019061020991906120ad565b610748565b6040516102209695949392919061213b565b60405180910390f35b610243600480360381019061023e91906121aa565b61078d565b005b34801561025157600080fd5b5061025a610c14565b60405161026791906122f3565b60405180910390f35b34801561027c57600080fd5b50610285610c9e565b005b34801561029357600080fd5b5061029c610d26565b6040516102a99190612315565b60405180910390f35b6102cc60048036038101906102c791906120ad565b610d37565b005b3480156102da57600080fd5b506102e3611162565b6040516102f09190612330565b60405180910390f35b610313600480360381019061030e91906120ad565b61118b565b005b34801561032157600080fd5b5061032a611529565b6040516103379190612315565b60405180910390f35b34801561034c57600080fd5b5061036760048036038101906103629190612377565b61153a565b005b34801561037557600080fd5b50610390600480360381019061038b91906123a4565b611632565b60405161039d9190612315565b60405180910390f35b60606000600360006001856103bb919061242f565b8152602001908152602001600020600101600360006001866103dd919061242f565b815260200190815260200160002060020160009054906101000a900473ffffffffffffffffffffffffffffffffffffffff1681805461041b90612492565b80601f016020809104026020016040519081016040528092919081815260200182805461044790612492565b80156104945780601f1061046957610100808354040283529160200191610494565b820191906000526020600020905b81548152906001019060200180831161047757829003601f168201915b5050505050915091509150915091565b600060076006836040516104b89190612500565b908152602001604051809103902054815481106104d8576104d7612517565b5b906000526020600020906005020160040160009054906101000a900460ff169050919050565b60608060008060008060006007888154811061051d5761051c612517565b5b90600052602060002090600502016040518060a001604052908160008201805461054690612492565b80601f016020809104026020016040519081016040528092919081815260200182805461057290612492565b80156105bf5780601f10610594576101008083540402835291602001916105bf565b820191906000526020600020905b8154815290600101906020018083116105a257829003601f168201915b505050505081526020016001820180546105d890612492565b80601f016020809104026020016040519081016040528092919081815260200182805461060490612492565b80156106515780601f1061062657610100808354040283529160200191610651565b820191906000526020600020905b81548152906001019060200180831161063457829003601f168201915b5050505050815260200160028201548152602001600382015481526020016004820160009054906101000a900460ff16151515158152505090506000600360008360400151815260200190815260200160002060020160009054906101000a900473ffffffffffffffffffffffffffffffffffffffff1690508160000151826020015183606001518460800151856040015185975097509750975097509750505091939550919395565b60008060048360405161070e9190612500565b90815260200160405180910390205490506005600082815260200190815260200160002060009054906101000a900460ff16915050919050565b6060806000806000806107786006886040516107649190612500565b9081526020016040518091039020546104fe565b95509550955095509550955091939550919395565b82600015156009826040516107a29190612500565b908152602001604051809103902060009054906101000a900460ff16151514610800576040517f08c379a00000000000000000000000000000000000000000000000000000000081526004016107f790612592565b60405180910390fd5b60043414610843576040517f08c379a000000000000000000000000000000000000000000000000000000000815260040161083a90612624565b60405180910390fd5b60003390506000610853826118ac565b905060006004826040516108679190612500565b90815260200160405180910390205490506005600082815260200190815260200160002060009054906101000a900460ff166108aa576108a78284611632565b90505b60076040518060a00160405280898152602001888152602001838152602001878152602001600015158152509080600181540180825580915050600190039060005260206000209060050201600090919091909150600082015181600001908051906020019061091b929190611cc7565b506020820151816001019080519060200190610938929190611cc7565b50604082015181600201556060820151816003015560808201518160040160006101000a81548160ff021916908315150217905550505061097960086118dd565b6006886040516109899190612500565b9081526020016040518091039020819055506109a560086118eb565b60016009886040516109b79190612500565b908152602001604051809103902060006101000a81548160ff02191690831515021790555080600a886040516109ed9190612500565b9081526020016040518091039020819055506000610a09611162565b73ffffffffffffffffffffffffffffffffffffffff1634604051610a2c90612675565b60006040518083038185875af1925050503d8060008114610a69576040519150601f19603f3d011682016040523d82523d6000602084013e610a6e565b606091505b5050905080610ab2576040517f08c379a0000000000000000000000000000000000000000000000000000000008152600401610aa9906126d6565b60405180910390fd5b60006003600084815260200190815260200160002060405180606001604052908160008201548152602001600182018054610aec90612492565b80601f0160208091040260200160405190810160405280929190818152602001828054610b1890612492565b8015610b655780601f10610b3a57610100808354040283529160200191610b65565b820191906000526020600020905b815481529060010190602001808311610b4857829003601f168201915b505050505081526020016002820160009054906101000a900473ffffffffffffffffffffffffffffffffffffffff1673ffffffffffffffffffffffffffffffffffffffff1673ffffffffffffffffffffffffffffffffffffffff168152505090507fedc13e3095cfb681cc32c6a29dd2dce0db849462949d52593f48d5c9e5a8bcf089848a8a8560400151604051610c019594939291906126f6565b60405180910390a1505050505050505050565b60608060005b610c2460086118dd565b811015610c965760078181548110610c3f57610c3e612517565b5b906000526020600020906005020160040160009054906101000a900460ff16828281518110610c7157610c70612517565b5b6020026020010190151590811515815250508080610c8e90612757565b915050610c1a565b508091505090565b610ca6611901565b73ffffffffffffffffffffffffffffffffffffffff16610cc4611162565b73ffffffffffffffffffffffffffffffffffffffff1614610d1a576040517f08c379a0000000000000000000000000000000000000000000000000000000008152600401610d11906127ec565b60405180910390fd5b610d246000611909565b565b6000610d3260026118dd565b905090565b6000600982604051610d499190612500565b908152602001604051809103902060009054906101000a900460ff16610da4576040517f08c379a0000000000000000000000000000000000000000000000000000000008152600401610d9b9061287e565b60405180910390fd5b60006007600684604051610db89190612500565b90815260200160405180910390205481548110610dd857610dd7612517565b5b906000526020600020906005020160020154905060006003600083815260200190815260200160002060405180606001604052908160008201548152602001600182018054610e2690612492565b80601f0160208091040260200160405190810160405280929190818152602001828054610e5290612492565b8015610e9f5780601f10610e7457610100808354040283529160200191610e9f565b820191906000526020600020905b815481529060010190602001808311610e8257829003601f168201915b505050505081526020016002820160009054906101000a900473ffffffffffffffffffffffffffffffffffffffff1673ffffffffffffffffffffffffffffffffffffffff1673ffffffffffffffffffffffffffffffffffffffff168152505090506000600c60009054906101000a900473ffffffffffffffffffffffffffffffffffffffff1673ffffffffffffffffffffffffffffffffffffffff1663cf639f2086846040015133600760068b604051610f599190612500565b90815260200160405180910390205481548110610f7957610f78612517565b5b9060005260206000209060050201600301546040518563ffffffff1660e01b8152600401610faa949392919061289e565b6020604051808303816000875af1158015610fc9573d6000803e3d6000fd5b505050506040513d601f19601f82011682018060405250810190610fed91906128ff565b9050610ff7611162565b73ffffffffffffffffffffffffffffffffffffffff16600160405161101b90612675565b60006040518083038185875af1925050503d8060008114611058576040519150601f19603f3d011682016040523d82523d6000602084013e61105d565b606091505b505080945050836110a3576040517f08c379a000000000000000000000000000000000000000000000000000000000815260040161109a90612978565b60405180910390fd5b600160076006876040516110b79190612500565b908152602001604051809103902054815481106110d7576110d6612517565b5b906000526020600020906005020160040160006101000a81548160ff02191690831515021790555080600b866040516111109190612500565b9081526020016040518091039020819055507fff262bb2c7d883079fca143adc6c77a55dccba4e955c6864922bfad268dff8a68582604051611153929190612998565b60405180910390a15050505050565b60008060009054906101000a900473ffffffffffffffffffffffffffffffffffffffff16905090565b80600760068260405161119e9190612500565b908152602001604051809103902054815481106111be576111bd612517565b5b906000526020600020906005020160040160009054906101000a900460ff1661121c576040517f08c379a000000000000000000000000000000000000000000000000000000000815260040161121390612a3a565b60405180910390fd5b6000806000806000600b876040516112349190612500565b9081526020016040518091039020549050600c60009054906101000a900473ffffffffffffffffffffffffffffffffffffffff1673ffffffffffffffffffffffffffffffffffffffff1663895c4c96826040518263ffffffff1660e01b81526004016112a09190612315565b600060405180830381865afa1580156112bd573d6000803e3d6000fd5b505050506040513d6000823e3d601f19601f820116820180604052508101906112e69190612b04565b909192935090508094508195508296505050503373ffffffffffffffffffffffffffffffffffffffff168373ffffffffffffffffffffffffffffffffffffffff1614611367576040517f08c379a000000000000000000000000000000000000000000000000000000000815260040161135e90612c0d565b60405180910390fd5b8373ffffffffffffffffffffffffffffffffffffffff168260405161138b90612675565b60006040518083038185875af1925050503d80600081146113c8576040519150601f19603f3d011682016040523d82523d6000602084013e6113cd565b606091505b50508095505084611413576040517f08c379a000000000000000000000000000000000000000000000000000000000815260040161140a90612c9f565b60405180910390fd5b600c60009054906101000a900473ffffffffffffffffffffffffffffffffffffffff1673ffffffffffffffffffffffffffffffffffffffff16633d0350c1826040518263ffffffff1660e01b815260040161146e9190612315565b600060405180830381600087803b15801561148857600080fd5b505af115801561149c573d6000803e3d6000fd5b50505050600060076006896040516114b49190612500565b908152602001604051809103902054815481106114d4576114d3612517565b5b906000526020600020906005020160040160006101000a81548160ff0219169083151502179055506000600b8860405161150e9190612500565b90815260200160405180910390208190555050505050505050565b600061153560086118dd565b905090565b611542611901565b73ffffffffffffffffffffffffffffffffffffffff16611560611162565b73ffffffffffffffffffffffffffffffffffffffff16146115b6576040517f08c379a00000000000000000000000000000000000000000000000000000000081526004016115ad906127ec565b60405180910390fd5b600073ffffffffffffffffffffffffffffffffffffffff168173ffffffffffffffffffffffffffffffffffffffff161415611626576040517f08c379a000000000000000000000000000000000000000000000000000000000815260040161161d90612d31565b60405180910390fd5b61162f81611909565b50565b6000806004846040516116459190612500565b90815260200160405180910390205490506005600082815260200190815260200160002060009054906101000a900460ff166118675761168560026118eb565b61168f60026118dd565b9050806004856040516116a29190612500565b90815260200160405180910390208190555060405180606001604052808281526020018581526020018473ffffffffffffffffffffffffffffffffffffffff168152506003600083815260200190815260200160002060008201518160000155602082015181600101908051906020019061171e929190611cc7565b5060408201518160020160006101000a81548173ffffffffffffffffffffffffffffffffffffffff021916908373ffffffffffffffffffffffffffffffffffffffff16021790555090505060016005600083815260200190815260200160002060006101000a81548160ff02191690831515021790555060016003600083815260200190815260200160002090806001815401808255809150506001900390600052602060002090600302016000909190919091506000820154816000015560018201816001019080546117f190612492565b6117fc929190611d4d565b506002820160009054906101000a900473ffffffffffffffffffffffffffffffffffffffff168160020160006101000a81548173ffffffffffffffffffffffffffffffffffffffff021916908373ffffffffffffffffffffffffffffffffffffffff16021790555050505b7f435a3c4237652bdf3454025868b80f038e31696285368352ebf7d647ae54429f84848360405161189a93929190612d51565b60405180910390a18091505092915050565b60606118d6826040516020016118c29190612dd7565b6040516020818303038152906040526119cd565b9050919050565b600081600001549050919050565b6001816000016000828254019250508190555050565b600033905090565b60008060009054906101000a900473ffffffffffffffffffffffffffffffffffffffff169050816000806101000a81548173ffffffffffffffffffffffffffffffffffffffff021916908373ffffffffffffffffffffffffffffffffffffffff1602179055508173ffffffffffffffffffffffffffffffffffffffff168173ffffffffffffffffffffffffffffffffffffffff167f8be0079c531659141344cd1fd0a4f28419497f9722a3daafe3b4186f6b6457e060405160405180910390a35050565b606060006040518060400160405280601081526020017f30313233343536373839616263646566000000000000000000000000000000008152509050600060028451611a199190612df2565b6002611a259190612e4c565b67ffffffffffffffff811115611a3e57611a3d611f82565b5b6040519080825280601f01601f191660200182016040528015611a705781602001600182028036833780820191505090505b5090507f300000000000000000000000000000000000000000000000000000000000000081600081518110611aa857611aa7612517565b5b60200101907effffffffffffffffffffffffffffffffffffffffffffffffffffffffffffff1916908160001a9053507f780000000000000000000000000000000000000000000000000000000000000081600181518110611b0c57611b0b612517565b5b60200101907effffffffffffffffffffffffffffffffffffffffffffffffffffffffffffff1916908160001a90535060005b8451811015611cbc57826004868381518110611b5d57611b5c612517565b5b602001015160f81c60f81b7effffffffffffffffffffffffffffffffffffffffffffffffffffffffffffff1916901c60f81c60ff1681518110611ba357611ba2612517565b5b602001015160f81c60f81b82600283611bbc9190612df2565b6002611bc89190612e4c565b81518110611bd957611bd8612517565b5b60200101907effffffffffffffffffffffffffffffffffffffffffffffffffffffffffffff1916908160001a90535082600f60f81b868381518110611c2157611c20612517565b5b602001015160f81c60f81b1660f81c60ff1681518110611c4457611c43612517565b5b602001015160f81c60f81b82600283611c5d9190612df2565b6003611c699190612e4c565b81518110611c7a57611c79612517565b5b60200101907effffffffffffffffffffffffffffffffffffffffffffffffffffffffffffff1916908160001a9053508080611cb490612757565b915050611b3e565b508092505050919050565b828054611cd390612492565b90600052602060002090601f016020900481019282611cf55760008555611d3c565b82601f10611d0e57805160ff1916838001178555611d3c565b82800160010185558215611d3c579182015b82811115611d3b578251825591602001919060010190611d20565b5b509050611d499190611dda565b5090565b828054611d5990612492565b90600052602060002090601f016020900481019282611d7b5760008555611dc9565b82601f10611d8c5780548555611dc9565b82800160010185558215611dc957600052602060002091601f016020900482015b82811115611dc8578254825591600101919060010190611dad565b5b509050611dd69190611dda565b5090565b5b80821115611df3576000816000905550600101611ddb565b5090565b6000604051905090565b600080fd5b600080fd5b6000819050919050565b611e1e81611e0b565b8114611e2957600080fd5b50565b600081359050611e3b81611e15565b92915050565b600060208284031215611e5757611e56611e01565b5b6000611e6584828501611e2c565b91505092915050565b600081519050919050565b600082825260208201905092915050565b60005b83811015611ea8578082015181840152602081019050611e8d565b83811115611eb7576000848401525b50505050565b6000601f19601f8301169050919050565b6000611ed982611e6e565b611ee38185611e79565b9350611ef3818560208601611e8a565b611efc81611ebd565b840191505092915050565b600073ffffffffffffffffffffffffffffffffffffffff82169050919050565b6000611f3282611f07565b9050919050565b611f4281611f27565b82525050565b60006040820190508181036000830152611f628185611ece565b9050611f716020830184611f39565b9392505050565b600080fd5b600080fd5b7f4e487b7100000000000000000000000000000000000000000000000000000000600052604160045260246000fd5b611fba82611ebd565b810181811067ffffffffffffffff82111715611fd957611fd8611f82565b5b80604052505050565b6000611fec611df7565b9050611ff88282611fb1565b919050565b600067ffffffffffffffff82111561201857612017611f82565b5b61202182611ebd565b9050602081019050919050565b82818337600083830152505050565b600061205061204b84611ffd565b611fe2565b90508281526020810184848401111561206c5761206b611f7d565b5b61207784828561202e565b509392505050565b600082601f83011261209457612093611f78565b5b81356120a484826020860161203d565b91505092915050565b6000602082840312156120c3576120c2611e01565b5b600082013567ffffffffffffffff8111156120e1576120e0611e06565b5b6120ed8482850161207f565b91505092915050565b60008115159050919050565b61210b816120f6565b82525050565b60006020820190506121266000830184612102565b92915050565b61213581611e0b565b82525050565b600060c08201905081810360008301526121558189611ece565b905081810360208301526121698188611ece565b9050612178604083018761212c565b6121856060830186612102565b612192608083018561212c565b61219f60a0830184611f39565b979650505050505050565b6000806000606084860312156121c3576121c2611e01565b5b600084013567ffffffffffffffff8111156121e1576121e0611e06565b5b6121ed8682870161207f565b935050602084013567ffffffffffffffff81111561220e5761220d611e06565b5b61221a8682870161207f565b925050604061222b86828701611e2c565b9150509250925092565b600081519050919050565b600082825260208201905092915050565b6000819050602082019050919050565b61226a816120f6565b82525050565b600061227c8383612261565b60208301905092915050565b6000602082019050919050565b60006122a082612235565b6122aa8185612240565b93506122b583612251565b8060005b838110156122e65781516122cd8882612270565b97506122d883612288565b9250506001810190506122b9565b5085935050505092915050565b6000602082019050818103600083015261230d8184612295565b905092915050565b600060208201905061232a600083018461212c565b92915050565b60006020820190506123456000830184611f39565b92915050565b61235481611f27565b811461235f57600080fd5b50565b6000813590506123718161234b565b92915050565b60006020828403121561238d5761238c611e01565b5b600061239b84828501612362565b91505092915050565b600080604083850312156123bb576123ba611e01565b5b600083013567ffffffffffffffff8111156123d9576123d8611e06565b5b6123e58582860161207f565b92505060206123f685828601612362565b9150509250929050565b7f4e487b7100000000000000000000000000000000000000000000000000000000600052601160045260246000fd5b600061243a82611e0b565b915061244583611e0b565b92508282101561245857612457612400565b5b828203905092915050565b7f4e487b7100000000000000000000000000000000000000000000000000000000600052602260045260246000fd5b600060028204905060018216806124aa57607f821691505b602082108114156124be576124bd612463565b5b50919050565b600081905092915050565b60006124da82611e6e565b6124e481856124c4565b93506124f4818560208601611e8a565b80840191505092915050565b600061250c82846124cf565b915081905092915050565b7f4e487b7100000000000000000000000000000000000000000000000000000000600052603260045260246000fd5b7f537061636520616c7265616479206578697374732e0000000000000000000000600082015250565b600061257c601583611e79565b915061258782612546565b602082019050919050565b600060208201905081810360008301526125ab8161256f565b9050919050565b7f5468652076616c7565206d75737420626520657175616c20746f20746865207360008201527f70616365207075626c69636174696f6e206665652e0000000000000000000000602082015250565b600061260e603583611e79565b9150612619826125b2565b604082019050919050565b6000602082019050818103600083015261263d81612601565b9050919050565b600081905092915050565b50565b600061265f600083612644565b915061266a8261264f565b600082019050919050565b600061268082612652565b9150819050919050565b7f5472616e73616374696f6e204661696c65640000000000000000000000000000600082015250565b60006126c0601283611e79565b91506126cb8261268a565b602082019050919050565b600060208201905081810360008301526126ef816126b3565b9050919050565b600060a08201905081810360008301526127108188611ece565b905061271f602083018761212c565b81810360408301526127318186611ece565b9050612740606083018561212c565b61274d6080830184611f39565b9695505050505050565b600061276282611e0b565b91507fffffffffffffffffffffffffffffffffffffffffffffffffffffffffffffffff82141561279557612794612400565b5b600182019050919050565b7f4f776e61626c653a2063616c6c6572206973206e6f7420746865206f776e6572600082015250565b60006127d6602083611e79565b91506127e1826127a0565b602082019050919050565b60006020820190508181036000830152612805816127c9565b9050919050565b7f5468657265206973206e6f2061205061726b696e67205370616365207769746860008201527f2074686520737065636966696564206e616d652e000000000000000000000000602082015250565b6000612868603483611e79565b91506128738261280c565b604082019050919050565b600060208201905081810360008301526128978161285b565b9050919050565b600060808201905081810360008301526128b88187611ece565b90506128c76020830186611f39565b6128d46040830185611f39565b6128e1606083018461212c565b95945050505050565b6000815190506128f981611e15565b92915050565b60006020828403121561291557612914611e01565b5b6000612923848285016128ea565b91505092915050565b7f466565205061796d656e74202d205472616e73616374696f6e204661696c6564600082015250565b6000612962602083611e79565b915061296d8261292c565b602082019050919050565b6000602082019050818103600083015261299181612955565b9050919050565b600060408201905081810360008301526129b28185611ece565b90506129c1602083018461212c565b9392505050565b7f54686973207061726b696e67207370616365206973206e6f742072657365727660008201527f65642e0000000000000000000000000000000000000000000000000000000000602082015250565b6000612a24602383611e79565b9150612a2f826129c8565b604082019050919050565b60006020820190508181036000830152612a5381612a17565b9050919050565b6000612a6d612a6884611ffd565b611fe2565b905082815260208101848484011115612a8957612a88611f7d565b5b612a94848285611e8a565b509392505050565b600082601f830112612ab157612ab0611f78565b5b8151612ac1848260208601612a5a565b91505092915050565b600081519050612ad98161234b565b92915050565b60028110612aec57600080fd5b50565b600081519050612afe81612adf565b92915050565b600080600080600060a08688031215612b2057612b1f611e01565b5b600086015167ffffffffffffffff811115612b3e57612b3d611e06565b5b612b4a88828901612a9c565b9550506020612b5b88828901612aca565b9450506040612b6c88828901612aca565b9350506060612b7d88828901612aef565b9250506080612b8e888289016128ea565b9150509295509295909350565b7f447269766572206f6e6c792063616e2066696e69736820686973206f776e207260008201527f657265736572766174696f6e7300000000000000000000000000000000000000602082015250565b6000612bf7602d83611e79565b9150612c0282612b9b565b604082019050919050565b60006020820190508181036000830152612c2681612bea565b9050919050565b7f5061726b696e6720436f7374205061796d656e74202d205472616e736163746960008201527f6f6e204661696c65640000000000000000000000000000000000000000000000602082015250565b6000612c89602983611e79565b9150612c9482612c2d565b604082019050919050565b60006020820190508181036000830152612cb881612c7c565b9050919050565b7f4f776e61626c653a206e6577206f776e657220697320746865207a65726f206160008201527f6464726573730000000000000000000000000000000000000000000000000000602082015250565b6000612d1b602683611e79565b9150612d2682612cbf565b604082019050919050565b60006020820190508181036000830152612d4a81612d0e565b9050919050565b60006060820190508181036000830152612d6b8186611ece565b9050612d7a6020830185611f39565b612d87604083018461212c565b949350505050565b60008160601b9050919050565b6000612da782612d8f565b9050919050565b6000612db982612d9c565b9050919050565b612dd1612dcc82611f27565b612dae565b82525050565b6000612de38284612dc0565b60148201915081905092915050565b6000612dfd82611e0b565b9150612e0883611e0b565b9250817fffffffffffffffffffffffffffffffffffffffffffffffffffffffffffffffff0483118215151615612e4157612e40612400565b5b828202905092915050565b6000612e5782611e0b565b9150612e6283611e0b565b9250827fffffffffffffffffffffffffffffffffffffffffffffffffffffffffffffffff03821115612e9757612e96612400565b5b82820190509291505056fea264697066735822122038423143127f22b88d1841303502c456a42ab9675979aaff16ad210b5607522964736f6c634300080b0033608060405234801561001057600080fd5b5061002d61002261003260201b60201c565b61003a60201b60201c565b6100fe565b600033905090565b60008060009054906101000a900473ffffffffffffffffffffffffffffffffffffffff169050816000806101000a81548173ffffffffffffffffffffffffffffffffffffffff021916908373ffffffffffffffffffffffffffffffffffffffff1602179055508173ffffffffffffffffffffffffffffffffffffffff168173ffffffffffffffffffffffffffffffffffffffff167f8be0079c531659141344cd1fd0a4f28419497f9722a3daafe3b4186f6b6457e060405160405180910390a35050565b6110178061010d6000396000f3fe608060405234801561001057600080fd5b50600436106100625760003560e01c80633d0350c114610067578063715018a614610083578063895c4c961461008d5780638da5cb5b146100c1578063cf639f20146100df578063f2fde38b1461010f575b600080fd5b610081600480360381019061007c91906109c2565b61012b565b005b61008b6101e9565b005b6100a760048036038101906100a291906109c2565b610271565b6040516100b8959493929190610b4f565b60405180910390f35b6100c961044b565b6040516100d69190610ba9565b60405180910390f35b6100f960048036038101906100f49190610d25565b610474565b6040516101069190610da8565b60405180910390f35b61012960048036038101906101249190610dc3565b6106ed565b005b6101336107e5565b73ffffffffffffffffffffffffffffffffffffffff1661015161044b565b73ffffffffffffffffffffffffffffffffffffffff16146101a7576040517f08c379a000000000000000000000000000000000000000000000000000000000815260040161019e90610e3c565b60405180910390fd5b60016002600083815260200190815260200160002060020160146101000a81548160ff021916908360018111156101e1576101e0610ac9565b5b021790555050565b6101f16107e5565b73ffffffffffffffffffffffffffffffffffffffff1661020f61044b565b73ffffffffffffffffffffffffffffffffffffffff1614610265576040517f08c379a000000000000000000000000000000000000000000000000000000000815260040161025c90610e3c565b60405180910390fd5b61026f60006107ed565b565b60606000806000806000600260008881526020019081526020016000206040518060a00160405290816000820180546102a990610e8b565b80601f01602080910402602001604051908101604052809291908181526020018280546102d590610e8b565b80156103225780601f106102f757610100808354040283529160200191610322565b820191906000526020600020905b81548152906001019060200180831161030557829003601f168201915b505050505081526020016001820160009054906101000a900473ffffffffffffffffffffffffffffffffffffffff1673ffffffffffffffffffffffffffffffffffffffff1673ffffffffffffffffffffffffffffffffffffffff1681526020016002820160009054906101000a900473ffffffffffffffffffffffffffffffffffffffff1673ffffffffffffffffffffffffffffffffffffffff1673ffffffffffffffffffffffffffffffffffffffff1681526020016002820160149054906101000a900460ff1660018111156103fc576103fb610ac9565b5b600181111561040e5761040d610ac9565b5b8152602001600382015481525050905080600001518160200151826040015183606001518460800151955095509550955095505091939590929450565b60008060009054906101000a900473ffffffffffffffffffffffffffffffffffffffff16905090565b600061047e6107e5565b73ffffffffffffffffffffffffffffffffffffffff1661049c61044b565b73ffffffffffffffffffffffffffffffffffffffff16146104f2576040517f08c379a00000000000000000000000000000000000000000000000000000000081526004016104e990610e3c565b60405180910390fd5b83838073ffffffffffffffffffffffffffffffffffffffff168273ffffffffffffffffffffffffffffffffffffffff161415610563576040517f08c379a000000000000000000000000000000000000000000000000000000000815260040161055a90610f2f565b60405180910390fd5b61056d60016108b1565b6040518060a001604052808881526020018773ffffffffffffffffffffffffffffffffffffffff1681526020018673ffffffffffffffffffffffffffffffffffffffff168152602001600060018111156105ca576105c9610ac9565b5b815260200185815250600260006105e160016108c7565b8152602001908152602001600020600082015181600001908051906020019061060b9291906108d5565b5060208201518160010160006101000a81548173ffffffffffffffffffffffffffffffffffffffff021916908373ffffffffffffffffffffffffffffffffffffffff16021790555060408201518160020160006101000a81548173ffffffffffffffffffffffffffffffffffffffff021916908373ffffffffffffffffffffffffffffffffffffffff16021790555060608201518160020160146101000a81548160ff021916908360018111156106c5576106c4610ac9565b5b0217905550608082015181600301559050506106e160016108c7565b92505050949350505050565b6106f56107e5565b73ffffffffffffffffffffffffffffffffffffffff1661071361044b565b73ffffffffffffffffffffffffffffffffffffffff1614610769576040517f08c379a000000000000000000000000000000000000000000000000000000000815260040161076090610e3c565b60405180910390fd5b600073ffffffffffffffffffffffffffffffffffffffff168173ffffffffffffffffffffffffffffffffffffffff1614156107d9576040517f08c379a00000000000000000000000000000000000000000000000000000000081526004016107d090610fc1565b60405180910390fd5b6107e2816107ed565b50565b600033905090565b60008060009054906101000a900473ffffffffffffffffffffffffffffffffffffffff169050816000806101000a81548173ffffffffffffffffffffffffffffffffffffffff021916908373ffffffffffffffffffffffffffffffffffffffff1602179055508173ffffffffffffffffffffffffffffffffffffffff168173ffffffffffffffffffffffffffffffffffffffff167f8be0079c531659141344cd1fd0a4f28419497f9722a3daafe3b4186f6b6457e060405160405180910390a35050565b6001816000016000828254019250508190555050565b600081600001549050919050565b8280546108e190610e8b565b90600052602060002090601f016020900481019282610903576000855561094a565b82601f1061091c57805160ff191683800117855561094a565b8280016001018555821561094a579182015b8281111561094957825182559160200191906001019061092e565b5b509050610957919061095b565b5090565b5b8082111561097457600081600090555060010161095c565b5090565b6000604051905090565b600080fd5b600080fd5b6000819050919050565b61099f8161098c565b81146109aa57600080fd5b50565b6000813590506109bc81610996565b92915050565b6000602082840312156109d8576109d7610982565b5b60006109e6848285016109ad565b91505092915050565b600081519050919050565b600082825260208201905092915050565b60005b83811015610a29578082015181840152602081019050610a0e565b83811115610a38576000848401525b50505050565b6000601f19601f8301169050919050565b6000610a5a826109ef565b610a6481856109fa565b9350610a74818560208601610a0b565b610a7d81610a3e565b840191505092915050565b600073ffffffffffffffffffffffffffffffffffffffff82169050919050565b6000610ab382610a88565b9050919050565b610ac381610aa8565b82525050565b7f4e487b7100000000000000000000000000000000000000000000000000000000600052602160045260246000fd5b60028110610b0957610b08610ac9565b5b50565b6000819050610b1a82610af8565b919050565b6000610b2a82610b0c565b9050919050565b610b3a81610b1f565b82525050565b610b498161098c565b82525050565b600060a0820190508181036000830152610b698188610a4f565b9050610b786020830187610aba565b610b856040830186610aba565b610b926060830185610b31565b610b9f6080830184610b40565b9695505050505050565b6000602082019050610bbe6000830184610aba565b92915050565b600080fd5b600080fd5b7f4e487b7100000000000000000000000000000000000000000000000000000000600052604160045260246000fd5b610c0682610a3e565b810181811067ffffffffffffffff82111715610c2557610c24610bce565b5b80604052505050565b6000610c38610978565b9050610c448282610bfd565b919050565b600067ffffffffffffffff821115610c6457610c63610bce565b5b610c6d82610a3e565b9050602081019050919050565b82818337600083830152505050565b6000610c9c610c9784610c49565b610c2e565b905082815260208101848484011115610cb857610cb7610bc9565b5b610cc3848285610c7a565b509392505050565b600082601f830112610ce057610cdf610bc4565b5b8135610cf0848260208601610c89565b91505092915050565b610d0281610aa8565b8114610d0d57600080fd5b50565b600081359050610d1f81610cf9565b92915050565b60008060008060808587031215610d3f57610d3e610982565b5b600085013567ffffffffffffffff811115610d5d57610d5c610987565b5b610d6987828801610ccb565b9450506020610d7a87828801610d10565b9350506040610d8b87828801610d10565b9250506060610d9c878288016109ad565b91505092959194509250565b6000602082019050610dbd6000830184610b40565b92915050565b600060208284031215610dd957610dd8610982565b5b6000610de784828501610d10565b91505092915050565b7f4f776e61626c653a2063616c6c6572206973206e6f7420746865206f776e6572600082015250565b6000610e266020836109fa565b9150610e3182610df0565b602082019050919050565b60006020820190508181036000830152610e5581610e19565b9050919050565b7f4e487b7100000000000000000000000000000000000000000000000000000000600052602260045260246000fd5b60006002820490506001821680610ea357607f821691505b60208210811415610eb757610eb6610e5c565b5b50919050565b7f4f776e65722063616e6e6f74207265736572766520686973206f776e2073706160008201527f6365000000000000000000000000000000000000000000000000000000000000602082015250565b6000610f196022836109fa565b9150610f2482610ebd565b604082019050919050565b60006020820190508181036000830152610f4881610f0c565b9050919050565b7f4f776e61626c653a206e6577206f776e657220697320746865207a65726f206160008201527f6464726573730000000000000000000000000000000000000000000000000000602082015250565b6000610fab6026836109fa565b9150610fb682610f4f565b604082019050919050565b60006020820190508181036000830152610fda81610f9e565b905091905056fea2646970667358221220937b2486b50843ca885f87ffc284883bb3ecd1224d42bea9b9f9d1314bb7e90d64736f6c634300080b0033",
  "immutableReferences": {},
  "source": "// SPDX-License-Identifier: MIT\npragma solidity ^0.8.4;\n\nimport \"@openzeppelin/contracts/utils/Counters.sol\";\nimport \"@openzeppelin/contracts/token/ERC721/ERC721.sol\";\nimport \"@openzeppelin/contracts/security/ReentrancyGuard.sol\";\nimport \"@openzeppelin/contracts/access/Ownable.sol\";\nimport \"./ParkingReservationManager.sol\";\n\n\ncontract ParkingSystem is Ownable {\n  \n  \n\n  struct ParkingSpaceOwner {\n    uint256 id;\n    string name;\n    address account;\n  }\n\n  struct ParkingSpace {\n    string name;\n    string locationAddress;\n    uint256 ownerId;  \n    uint price;\n    bool isReserved;     \n  }\n  \n\n  //It verifies the new space has not been registered\n  modifier NonExistentParkingSpace(string memory _parkingName) {\n    require(registeredSpaces[_parkingName] == false, \"Space already exists.\" );\n    _;\n  }\n\n  //It verifies the new space has not been registered\n  modifier ExistentParkingSpace(string memory _parkingName) {\n    require(registeredSpaces[_parkingName], \"Space does not exist.\" );\n    _;\n  }\n\n  modifier CorrectSpacePublicationAmount() {\n    require(msg.value == spacePublicationFee, \"The value must be equal to the space publication fee.\");\n    _;\n  }\n\n  modifier CorrectReservationAmount() {\n    require(msg.value == reservationFee, \"The value must be equal to the reservation fee.\");\n    _;\n  }\n\n  modifier ReservedParkingSpace(string memory _spaceName) {\n    require(spaces[parkingSpaces[_spaceName]].isReserved, \"This parking space is not reserved.\");\n    _;\n  }\n\n  uint private constant enrollmentFee = 5;\n  uint private constant spacePublicationFee = 4; \n  uint private constant reservationFee = 1;\n\n\n  ///**** Owners\n  ParkingSpaceOwner[] private spaceOwners;\n  //To create owner Ids\n  using Counters for Counters.Counter;\n    Counters.Counter private ownersIndex;\n  //Owners by Id. Key: owner Id, Value: ParkingSpaceOwner\n  mapping(uint256 => ParkingSpaceOwner) private ownersById;  \n  //Owner name to Id\n  mapping(string => uint256) ownerIdByName;\n  //Allows to know if a owner is already enrolled. Key: owner Id, Value: indicates if the owner is enrolled or not \n  mapping(uint256 => bool) private enrolledOwners;\n\n  ///**** Spaces\n  //Availables Parking Spaces. Key: space name, Value: the parking space\n  mapping(string => uint256)  private parkingSpaces;\n  ParkingSpace[] private spaces;\n  using Counters for Counters.Counter;\n    Counters.Counter private spaceCount;\n  //Allows to know if the space has been registered in the app. Key: space Id, Value: indicates if the space exists or not\n  mapping(string => bool) private registeredSpaces;\n  //Allows to know easily the owner for each space\n  mapping(string => uint256) private ownerBySpaceId;\n\n  //Reservation\n  mapping(string => uint256) private activeReservation;\n\n  //**** Events\n  event OwnerRegistered(string _ownerName, address _ownerAccount, uint256 _ownerId);\n  event SpaceAdded(string _spaceName, uint256 _ownerId, string _locationAddress, uint _price, address _ownerAccount);\n  event ReservationCreated(string _spaceName, uint256 reserveId);\n\n  ParkingReservationManager private reservationMgr;\n\n  constructor()  {\n      reservationMgr = new ParkingReservationManager();\n  }\n\n  function addParkingSpaceOwner(string memory _ownerName, address _spaceOwnerAccount) public returns (uint256) {\n\n    uint256 ownerId = ownerIdByName[_ownerName];\n    if(!enrolledOwners[ownerId]){// Is a new Owner\n      ownersIndex.increment();\n      ownerId = ownersIndex.current();\n\n      ownerIdByName[_ownerName] = ownerId;\n      ownersById[ownerId] = ParkingSpaceOwner({\n                                        id: ownerId,\n                                        name: _ownerName,\n                                        account: _spaceOwnerAccount\n                                    });\n      enrolledOwners[ownerId] = true;\n      spaceOwners.push(ownersById[ownerId]);\n    }\n    emit OwnerRegistered(_ownerName, _spaceOwnerAccount, ownerId);\n    return ownerId;\n  }\n\n  function isOwnerEnrolled(string memory _ownerName) public view returns (bool){\n\n    uint256 ownerId = ownerIdByName[_ownerName];\n    return enrolledOwners[ownerId];\n  }\n\n  function getOwnersQuantity() public view returns (uint256){\n    return ownersIndex.current();\n  }\n  \n  function getSpaceOwnerInfo(uint256 _ownerId) public view returns (string memory name, address account){\n   \n    return (ownersById[_ownerId - 1].name, ownersById[_ownerId - 1].account);\n  }\n  function addParkingSpace(string memory _spaceName, string memory _locationAddress, uint _price) public NonExistentParkingSpace(_spaceName) CorrectSpacePublicationAmount payable {\n    address ownerAccount = msg.sender;\n    string memory ownerName = toString(ownerAccount);\n    uint256 ownerId = ownerIdByName[ownerName];\n\n    if(!enrolledOwners[ownerId]){\n\n      ownerId = addParkingSpaceOwner(ownerName, ownerAccount);\n    }\n    \n    //Adds a new Parking Space\n    spaces.push(ParkingSpace({\n                              name: _spaceName,\n                              locationAddress: _locationAddress,\n                              ownerId: ownerId,\n                              price: _price,\n                              isReserved: false \n                            })\n               );\n    parkingSpaces[_spaceName] = spaceCount.current();\n    spaceCount.increment();\n\n    registeredSpaces[_spaceName] = true;\n    ownerBySpaceId[_spaceName] = ownerId;\n\n    // Take the publication fee\n    (bool sent, ) = address(owner()).call{value: msg.value}(\"\");\n    require(sent, \"Transaction Failed\");\n\n    ParkingSpaceOwner memory spaceOwner = ownersById[ownerId];\n\n    emit SpaceAdded(_spaceName, ownerId, _locationAddress, _price, spaceOwner.account);\n  }\n\n  function getSpacesQuantity() public view returns (uint256){\n    return spaceCount.current();\n  }\n\n  function getParkingSpaceInfo(uint256 _index) public view returns (string memory name, \n                                                                string memory locationAddress, \n                                                                uint price, \n                                                                bool isReserved, \n                                                                uint256 ownerId, \n                                                                address ownerAccount) {\n\n    ParkingSpace memory space = spaces[_index];\n    address account = ownersById[space.ownerId].account;                                                                  \n\n    return (space.name,\n            space.locationAddress,\n            space.price,\n            space.isReserved,\n            space.ownerId,\n            account\n           );\n  }\n\n  function getParkingSpaceInfoByName(string memory _spaceName) public view returns (string memory name, \n                                                                string memory locationAddress, \n                                                                uint price, \n                                                                bool isReserved, \n                                                                uint256 ownerId, \n                                                                address ownerAccount) {\n    return getParkingSpaceInfo(parkingSpaces[_spaceName]);                                                                \n  }\n\n  function getSpacesStatus() public view returns (bool[] memory) {\n    bool[] memory spacesStatus;\n\n    for(uint i = 0; i < spaceCount.current() ; i++){\n\n      spacesStatus[i] = spaces[i].isReserved;\n    }\n    return spacesStatus;\n  }\n\n  function isAReservedSpace(string memory _spaceName) public view returns (bool) {\n\n    return spaces[parkingSpaces[_spaceName]].isReserved;\n  }\n   \n  function reserveParkingSpace(string memory _spaceName) public payable {\n\n    bool sent;\n\n      // find a parkingSpace with _spaceName\n      require(registeredSpaces[_spaceName], \"There is no a Parking Space with the specified name.\");\n\n      // Owner id\n      uint256 ownerId = spaces[parkingSpaces[_spaceName]].ownerId;\n      // find the space owner\n      ParkingSpaceOwner  memory spaceOwner = ownersById[ownerId];\n\n      // create a rervation\n      uint256 reservationId =  reservationMgr.reserveParkingSpace(_spaceName, \n                                                                  spaceOwner.account, \n                                                                  msg.sender, \n                                                                  spaces[parkingSpaces[_spaceName]].price\n                                                                 );\n\n      // get the reservation fee\n      (sent, ) = address(owner()).call{value: reservationFee}(\"\");\n      require(sent, \"Fee Payment - Transaction Failed\");   \n\n      // mark the space as busy\n      spaces[parkingSpaces[_spaceName]].isReserved = true;      \n      // save de reservation Id\n      activeReservation[_spaceName] = reservationId;\n\n      emit ReservationCreated(_spaceName, reservationId);\n  }\n\n  function finishParking(string memory _spaceName) public payable ReservedParkingSpace(_spaceName) {\n\n      bool sent;\n      address ownerAccount;\n      address driverAccount;\n      uint256 parkingValue;\n\n      uint256 reservationId = activeReservation[_spaceName];\n\n      // Gets reservationInfo\n      ( , ownerAccount, driverAccount, , parkingValue) = reservationMgr.getParkingReservationInfo(reservationId);\n\n      // Validates sender is the reservation driver\n      require(driverAccount == msg.sender, \"Driver only can finish his own rereservations\");\n\n      // Charges the parking cost to the driver and gives to the space owner\n      (sent, ) = ownerAccount.call{value: parkingValue}(\"\");\n      require(sent, \"Parking Cost Payment - Transaction Failed\"); \n\n      // Finishes the reservation\n      reservationMgr.finishParking(reservationId);\n\n      // mark the space as free\n      spaces[parkingSpaces[_spaceName]].isReserved = false;\n\n      // clear reservationId for current space\n      activeReservation[_spaceName] = 0;\n\n  }\n\n  function toString(address account) private pure returns(string memory) {\n      return toString(abi.encodePacked(account));\n  }\n\n  function toString(uint256 value) private pure returns(string memory) {\n      return toString(abi.encodePacked(value));\n  }\n\n  function toString(bytes32 value) private pure returns(string memory) {\n      return toString(abi.encodePacked(value));\n  }\n\n  function toString(bytes memory data) private pure returns(string memory) {\n      bytes memory alphabet = \"0123456789abcdef\";\n\n      bytes memory str = new bytes(2 + data.length * 2);\n      str[0] = \"0\";\n      str[1] = \"x\";\n      for (uint i = 0; i < data.length; i++) {\n          str[2+i*2] = alphabet[uint(uint8(data[i] >> 4))];\n          str[3+i*2] = alphabet[uint(uint8(data[i] & 0x0f))];\n      }\n      return string(str);\n  }\n\n}\n",
  "sourcePath": "/home/landino/blockchain-developer-bootcamp-final-project/contracts/ParkingSystem.sol",
  "compiler": {
    "name": "solc",
    "version": "0.8.11+commit.d7f03943.Emscripten.clang"
  },
  "schemaVersion": "3.4.3",
  "updatedAt": "2022-01-15T15:59:25.307Z",
  "networkType": "ethereum",
  "devdoc": {
    "kind": "dev",
    "methods": {
      "owner()": {
        "details": "Returns the address of the current owner."
      },
      "renounceOwnership()": {
        "details": "Leaves the contract without owner. It will not be possible to call `onlyOwner` functions anymore. Can only be called by the current owner. NOTE: Renouncing ownership will leave the contract without an owner, thereby removing any functionality that is only available to the owner."
      },
      "transferOwnership(address)": {
        "details": "Transfers ownership of the contract to a new account (`newOwner`). Can only be called by the current owner."
      }
    },
    "version": 1
  },
  "userdoc": {
    "kind": "user",
    "methods": {},
    "version": 1
  }
}