{
  "contractName": "ParkingReservationManager",
  "abi": [
    {
      "inputs": [],
      "stateMutability": "nonpayable",
      "type": "constructor"
    },
    {
      "anonymous": false,
      "inputs": [
        {
          "indexed": true,
          "internalType": "address",
          "name": "previousOwner",
          "type": "address"
        },
        {
          "indexed": true,
          "internalType": "address",
          "name": "newOwner",
          "type": "address"
        }
      ],
      "name": "OwnershipTransferred",
      "type": "event"
    },
    {
      "inputs": [],
      "name": "owner",
      "outputs": [
        {
          "internalType": "address",
          "name": "",
          "type": "address"
        }
      ],
      "stateMutability": "view",
      "type": "function",
      "constant": true
    },
    {
      "inputs": [],
      "name": "renounceOwnership",
      "outputs": [],
      "stateMutability": "nonpayable",
      "type": "function"
    },
    {
      "inputs": [
        {
          "internalType": "address",
          "name": "newOwner",
          "type": "address"
        }
      ],
      "name": "transferOwnership",
      "outputs": [],
      "stateMutability": "nonpayable",
      "type": "function"
    },
    {
      "inputs": [
        {
          "internalType": "uint256",
          "name": "_reservationId",
          "type": "uint256"
        }
      ],
      "name": "getParkingReservationInfo",
      "outputs": [
        {
          "internalType": "string",
          "name": "spaceName",
          "type": "string"
        },
        {
          "internalType": "address",
          "name": "ownerAccount",
          "type": "address"
        },
        {
          "internalType": "address",
          "name": "driverAccount",
          "type": "address"
        },
        {
          "internalType": "enum ParkingReservationManager.Status",
          "name": "status",
          "type": "uint8"
        },
        {
          "internalType": "uint256",
          "name": "value",
          "type": "uint256"
        }
      ],
      "stateMutability": "view",
      "type": "function",
      "constant": true
    },
    {
      "inputs": [
        {
          "internalType": "string",
          "name": "_spaceName",
          "type": "string"
        },
        {
          "internalType": "address",
          "name": "_ownerAccount",
          "type": "address"
        },
        {
          "internalType": "address",
          "name": "_driverAccount",
          "type": "address"
        },
        {
          "internalType": "uint256",
          "name": "_value",
          "type": "uint256"
        }
      ],
      "name": "reserveParkingSpace",
      "outputs": [
        {
          "internalType": "uint256",
          "name": "",
          "type": "uint256"
        }
      ],
      "stateMutability": "nonpayable",
      "type": "function"
    },
    {
      "inputs": [
        {
          "internalType": "uint256",
          "name": "_reservationId",
          "type": "uint256"
        }
      ],
      "name": "finishParking",
      "outputs": [],
      "stateMutability": "nonpayable",
      "type": "function"
    }
  ],
  "bytecode": "0x608060405234801561001057600080fd5b5061002d61002261003260201b60201c565b61003a60201b60201c565b6100fe565b600033905090565b60008060009054906101000a900473ffffffffffffffffffffffffffffffffffffffff169050816000806101000a81548173ffffffffffffffffffffffffffffffffffffffff021916908373ffffffffffffffffffffffffffffffffffffffff1602179055508173ffffffffffffffffffffffffffffffffffffffff168173ffffffffffffffffffffffffffffffffffffffff167f8be0079c531659141344cd1fd0a4f28419497f9722a3daafe3b4186f6b6457e060405160405180910390a35050565b6110a98061010d6000396000f3fe608060405234801561001057600080fd5b50600436106100625760003560e01c80633d0350c114610067578063715018a614610083578063895c4c961461008d5780638da5cb5b146100c1578063cf639f20146100df578063f2fde38b1461010f575b600080fd5b610081600480360381019061007c9190610b6c565b61012b565b005b61008b61020f565b005b6100a760048036038101906100a29190610b6c565b610297565b6040516100b8959493929190610c7f565b60405180910390f35b6100c96104bd565b6040516100d69190610c64565b60405180910390f35b6100f960048036038101906100f49190610af1565b6104e6565b6040516101069190610d39565b60405180910390f35b61012960048036038101906101249190610ac8565b6107ab565b005b6101336108a3565b73ffffffffffffffffffffffffffffffffffffffff166101516104bd565b73ffffffffffffffffffffffffffffffffffffffff16146101a7576040517f08c379a000000000000000000000000000000000000000000000000000000000815260040161019e90610cf9565b60405180910390fd5b60016002600083815260200190815260200160002060020160146101000a81548160ff02191690836001811115610207577f4e487b7100000000000000000000000000000000000000000000000000000000600052602160045260246000fd5b021790555050565b6102176108a3565b73ffffffffffffffffffffffffffffffffffffffff166102356104bd565b73ffffffffffffffffffffffffffffffffffffffff161461028b576040517f08c379a000000000000000000000000000000000000000000000000000000000815260040161028290610cf9565b60405180910390fd5b61029560006108ab565b565b60606000806000806000600260008881526020019081526020016000206040518060a00160405290816000820180546102cf90610e69565b80601f01602080910402602001604051908101604052809291908181526020018280546102fb90610e69565b80156103485780601f1061031d57610100808354040283529160200191610348565b820191906000526020600020905b81548152906001019060200180831161032b57829003601f168201915b505050505081526020016001820160009054906101000a900473ffffffffffffffffffffffffffffffffffffffff1673ffffffffffffffffffffffffffffffffffffffff1673ffffffffffffffffffffffffffffffffffffffff1681526020016002820160009054906101000a900473ffffffffffffffffffffffffffffffffffffffff1673ffffffffffffffffffffffffffffffffffffffff1673ffffffffffffffffffffffffffffffffffffffff1681526020016002820160149054906101000a900460ff166001811115610448577f4e487b7100000000000000000000000000000000000000000000000000000000600052602160045260246000fd5b6001811115610480577f4e487b7100000000000000000000000000000000000000000000000000000000600052602160045260246000fd5b8152602001600382015481525050905080600001518160200151826040015183606001518460800151955095509550955095505091939590929450565b60008060009054906101000a900473ffffffffffffffffffffffffffffffffffffffff16905090565b60006104f06108a3565b73ffffffffffffffffffffffffffffffffffffffff1661050e6104bd565b73ffffffffffffffffffffffffffffffffffffffff1614610564576040517f08c379a000000000000000000000000000000000000000000000000000000000815260040161055b90610cf9565b60405180910390fd5b83838073ffffffffffffffffffffffffffffffffffffffff168273ffffffffffffffffffffffffffffffffffffffff1614156105d5576040517f08c379a00000000000000000000000000000000000000000000000000000000081526004016105cc90610d19565b60405180910390fd5b6105df600161096f565b6040518060a001604052808881526020018773ffffffffffffffffffffffffffffffffffffffff1681526020018673ffffffffffffffffffffffffffffffffffffffff16815260200160006001811115610662577f4e487b7100000000000000000000000000000000000000000000000000000000600052602160045260246000fd5b815260200185815250600260006106796001610985565b815260200190815260200160002060008201518160000190805190602001906106a3929190610993565b5060208201518160010160006101000a81548173ffffffffffffffffffffffffffffffffffffffff021916908373ffffffffffffffffffffffffffffffffffffffff16021790555060408201518160020160006101000a81548173ffffffffffffffffffffffffffffffffffffffff021916908373ffffffffffffffffffffffffffffffffffffffff16021790555060608201518160020160146101000a81548160ff02191690836001811115610783577f4e487b7100000000000000000000000000000000000000000000000000000000600052602160045260246000fd5b02179055506080820151816003015590505061079f6001610985565b92505050949350505050565b6107b36108a3565b73ffffffffffffffffffffffffffffffffffffffff166107d16104bd565b73ffffffffffffffffffffffffffffffffffffffff1614610827576040517f08c379a000000000000000000000000000000000000000000000000000000000815260040161081e90610cf9565b60405180910390fd5b600073ffffffffffffffffffffffffffffffffffffffff168173ffffffffffffffffffffffffffffffffffffffff161415610897576040517f08c379a000000000000000000000000000000000000000000000000000000000815260040161088e90610cd9565b60405180910390fd5b6108a0816108ab565b50565b600033905090565b60008060009054906101000a900473ffffffffffffffffffffffffffffffffffffffff169050816000806101000a81548173ffffffffffffffffffffffffffffffffffffffff021916908373ffffffffffffffffffffffffffffffffffffffff1602179055508173ffffffffffffffffffffffffffffffffffffffff168173ffffffffffffffffffffffffffffffffffffffff167f8be0079c531659141344cd1fd0a4f28419497f9722a3daafe3b4186f6b6457e060405160405180910390a35050565b6001816000016000828254019250508190555050565b600081600001549050919050565b82805461099f90610e69565b90600052602060002090601f0160209004810192826109c15760008555610a08565b82601f106109da57805160ff1916838001178555610a08565b82800160010185558215610a08579182015b82811115610a075782518255916020019190600101906109ec565b5b509050610a159190610a19565b5090565b5b80821115610a32576000816000905550600101610a1a565b5090565b6000610a49610a4484610d79565b610d54565b905082815260208101848484011115610a6157600080fd5b610a6c848285610e27565b509392505050565b600081359050610a8381611045565b92915050565b600082601f830112610a9a57600080fd5b8135610aaa848260208601610a36565b91505092915050565b600081359050610ac28161105c565b92915050565b600060208284031215610ada57600080fd5b6000610ae884828501610a74565b91505092915050565b60008060008060808587031215610b0757600080fd5b600085013567ffffffffffffffff811115610b2157600080fd5b610b2d87828801610a89565b9450506020610b3e87828801610a74565b9350506040610b4f87828801610a74565b9250506060610b6087828801610ab3565b91505092959194509250565b600060208284031215610b7e57600080fd5b6000610b8c84828501610ab3565b91505092915050565b610b9e81610dc6565b82525050565b610bad81610e15565b82525050565b6000610bbe82610daa565b610bc88185610db5565b9350610bd8818560208601610e36565b610be181610f59565b840191505092915050565b6000610bf9602683610db5565b9150610c0482610f6a565b604082019050919050565b6000610c1c602083610db5565b9150610c2782610fb9565b602082019050919050565b6000610c3f602283610db5565b9150610c4a82610fe2565b604082019050919050565b610c5e81610e0b565b82525050565b6000602082019050610c796000830184610b95565b92915050565b600060a0820190508181036000830152610c998188610bb3565b9050610ca86020830187610b95565b610cb56040830186610b95565b610cc26060830185610ba4565b610ccf6080830184610c55565b9695505050505050565b60006020820190508181036000830152610cf281610bec565b9050919050565b60006020820190508181036000830152610d1281610c0f565b9050919050565b60006020820190508181036000830152610d3281610c32565b9050919050565b6000602082019050610d4e6000830184610c55565b92915050565b6000610d5e610d6f565b9050610d6a8282610e9b565b919050565b6000604051905090565b600067ffffffffffffffff821115610d9457610d93610f2a565b5b610d9d82610f59565b9050602081019050919050565b600081519050919050565b600082825260208201905092915050565b6000610dd182610deb565b9050919050565b6000819050610de682611031565b919050565b600073ffffffffffffffffffffffffffffffffffffffff82169050919050565b6000819050919050565b6000610e2082610dd8565b9050919050565b82818337600083830152505050565b60005b83811015610e54578082015181840152602081019050610e39565b83811115610e63576000848401525b50505050565b60006002820490506001821680610e8157607f821691505b60208210811415610e9557610e94610efb565b5b50919050565b610ea482610f59565b810181811067ffffffffffffffff82111715610ec357610ec2610f2a565b5b80604052505050565b7f4e487b7100000000000000000000000000000000000000000000000000000000600052602160045260246000fd5b7f4e487b7100000000000000000000000000000000000000000000000000000000600052602260045260246000fd5b7f4e487b7100000000000000000000000000000000000000000000000000000000600052604160045260246000fd5b6000601f19601f8301169050919050565b7f4f776e61626c653a206e6577206f776e657220697320746865207a65726f206160008201527f6464726573730000000000000000000000000000000000000000000000000000602082015250565b7f4f776e61626c653a2063616c6c6572206973206e6f7420746865206f776e6572600082015250565b7f4f776e65722063616e6e6f74207265736572766520686973206f776e2073706160008201527f6365000000000000000000000000000000000000000000000000000000000000602082015250565b6002811061104257611041610ecc565b5b50565b61104e81610dc6565b811461105957600080fd5b50565b61106581610e0b565b811461107057600080fd5b5056fea2646970667358221220c4f0dcaf0e70926c72a1eb8c6e427894e240173a7447ba8bdfbb841189a2cd4064736f6c63430008040033",
  "immutableReferences": {},
  "source": "// SPDX-License-Identifier: MIT\npragma solidity 0.8.4;\n\nimport \"@openzeppelin/contracts/access/Ownable.sol\";\nimport \"@openzeppelin/contracts/utils/Counters.sol\";\n\ncontract ParkingReservationManager is Ownable{\n\n  //To create reservation Ids\n  using Counters for Counters.Counter;\n    Counters.Counter private reservationIndex;\n\n  mapping(uint256 => Reservation) private reservations;\n\n  enum Status {\n    InProgress,\n    Finished\n  }\n\n  struct Reservation {\n    string spaceName;\n    address ownerAccount;\n    address driverAccount;\n    Status status;\n    uint256 value;\n  }\n\n  modifier AvailableToFinish(uint256 _reservationId){\n    Status status = reservations[_reservationId].status;\n    require(status == Status.InProgress, \"Invalid reservation status.\");\n    _;\n  }\n\n  modifier OwnerCannotReserve(address _ownerAccount, address _driverAccount){\n    require(_ownerAccount != _driverAccount, \"Owner cannot reserve his own space\");\n    _;\n  }\n\n  constructor() {\n    \n  }\n\n  function getParkingReservationInfo(uint256 _reservationId) public view returns ( string memory spaceName,\n                                                                                    address ownerAccount,\n                                                                                    address driverAccount,\n                                                                                    Status status,\n                                                                                    uint256 value) {\n\n    Reservation memory res = reservations[_reservationId];\n\n    return (res.spaceName,\n            res.ownerAccount,\n            res.driverAccount,\n            res.status,\n            res.value\n           );\n  }\n\n\n  function reserveParkingSpace(string memory _spaceName, address _ownerAccount, address _driverAccount, uint256 _value) public onlyOwner OwnerCannotReserve(_ownerAccount, _driverAccount) returns (uint256) {\n\n    reservationIndex.increment();\n    reservations[reservationIndex.current()] = Reservation({\n      spaceName: _spaceName,\n      ownerAccount: _ownerAccount,\n      driverAccount: _driverAccount,\n      status: Status.InProgress,\n      value: _value\n    });\n\n    return reservationIndex.current();\n  }\n\n  function finishParking(uint _reservationId) public onlyOwner{\n\n    reservations[_reservationId].status = Status.Finished;\n  }\n\n}\n",
  "sourcePath": "/home/landino/blockchain-developer-bootcamp-final-project/contracts/ParkingReservationManager.sol",
  "compiler": {
    "name": "solc",
    "version": "0.8.4+commit.c7e474f2.Emscripten.clang"
  },
  "schemaVersion": "3.4.3",
  "updatedAt": "2022-01-15T21:02:16.681Z",
  "networkType": "ethereum",
  "devdoc": {
    "kind": "dev",
    "methods": {
      "owner()": {
        "details": "Returns the address of the current owner."
      },
      "renounceOwnership()": {
        "details": "Leaves the contract without owner. It will not be possible to call `onlyOwner` functions anymore. Can only be called by the current owner. NOTE: Renouncing ownership will leave the contract without an owner, thereby removing any functionality that is only available to the owner."
      },
      "transferOwnership(address)": {
        "details": "Transfers ownership of the contract to a new account (`newOwner`). Can only be called by the current owner."
      }
    },
    "version": 1
  },
  "userdoc": {
    "kind": "user",
    "methods": {},
    "version": 1
  }
}