{
  "contractName": "ParkingSystem",
  "abi": [
    {
      "inputs": [],
      "stateMutability": "nonpayable",
      "type": "constructor"
    },
    {
      "anonymous": false,
      "inputs": [
        {
          "indexed": false,
          "internalType": "string",
          "name": "_carId",
          "type": "string"
        },
        {
          "indexed": false,
          "internalType": "uint256",
          "name": "_driverId",
          "type": "uint256"
        }
      ],
      "name": "CarAdded",
      "type": "event"
    },
    {
      "anonymous": false,
      "inputs": [
        {
          "indexed": false,
          "internalType": "string",
          "name": "_driverName",
          "type": "string"
        },
        {
          "indexed": false,
          "internalType": "address",
          "name": "_driverAccount",
          "type": "address"
        }
      ],
      "name": "DriverAdded",
      "type": "event"
    },
    {
      "anonymous": false,
      "inputs": [
        {
          "indexed": false,
          "internalType": "string",
          "name": "_ownerName",
          "type": "string"
        },
        {
          "indexed": false,
          "internalType": "address",
          "name": "_ownerAccount",
          "type": "address"
        },
        {
          "indexed": false,
          "internalType": "uint256",
          "name": "_ownerId",
          "type": "uint256"
        }
      ],
      "name": "OwnerRegistered",
      "type": "event"
    },
    {
      "anonymous": false,
      "inputs": [
        {
          "indexed": true,
          "internalType": "address",
          "name": "previousOwner",
          "type": "address"
        },
        {
          "indexed": true,
          "internalType": "address",
          "name": "newOwner",
          "type": "address"
        }
      ],
      "name": "OwnershipTransferred",
      "type": "event"
    },
    {
      "anonymous": false,
      "inputs": [
        {
          "indexed": false,
          "internalType": "string",
          "name": "_spaceName",
          "type": "string"
        },
        {
          "indexed": false,
          "internalType": "uint256",
          "name": "reserveId",
          "type": "uint256"
        }
      ],
      "name": "ReservationCreated",
      "type": "event"
    },
    {
      "anonymous": false,
      "inputs": [
        {
          "indexed": false,
          "internalType": "string",
          "name": "_spaceName",
          "type": "string"
        },
        {
          "indexed": false,
          "internalType": "uint256",
          "name": "_ownerId",
          "type": "uint256"
        },
        {
          "indexed": false,
          "internalType": "string",
          "name": "_locationAddress",
          "type": "string"
        },
        {
          "indexed": false,
          "internalType": "uint256",
          "name": "_price",
          "type": "uint256"
        },
        {
          "indexed": false,
          "internalType": "address",
          "name": "_ownerAccount",
          "type": "address"
        }
      ],
      "name": "SpaceAdded",
      "type": "event"
    },
    {
      "inputs": [],
      "name": "owner",
      "outputs": [
        {
          "internalType": "address",
          "name": "",
          "type": "address"
        }
      ],
      "stateMutability": "view",
      "type": "function",
      "constant": true
    },
    {
      "inputs": [],
      "name": "renounceOwnership",
      "outputs": [],
      "stateMutability": "nonpayable",
      "type": "function"
    },
    {
      "inputs": [
        {
          "internalType": "address",
          "name": "newOwner",
          "type": "address"
        }
      ],
      "name": "transferOwnership",
      "outputs": [],
      "stateMutability": "nonpayable",
      "type": "function"
    },
    {
      "inputs": [
        {
          "internalType": "string",
          "name": "_ownerName",
          "type": "string"
        },
        {
          "internalType": "address",
          "name": "_spaceOwnerAccount",
          "type": "address"
        }
      ],
      "name": "addParkingSpaceOwner",
      "outputs": [
        {
          "internalType": "uint256",
          "name": "",
          "type": "uint256"
        }
      ],
      "stateMutability": "nonpayable",
      "type": "function"
    },
    {
      "inputs": [
        {
          "internalType": "string",
          "name": "_ownerName",
          "type": "string"
        }
      ],
      "name": "isOwnerEnrolled",
      "outputs": [
        {
          "internalType": "bool",
          "name": "",
          "type": "bool"
        }
      ],
      "stateMutability": "view",
      "type": "function",
      "constant": true
    },
    {
      "inputs": [],
      "name": "getOwnersQuantity",
      "outputs": [
        {
          "internalType": "uint256",
          "name": "",
          "type": "uint256"
        }
      ],
      "stateMutability": "view",
      "type": "function",
      "constant": true
    },
    {
      "inputs": [
        {
          "internalType": "uint256",
          "name": "_ownerId",
          "type": "uint256"
        }
      ],
      "name": "getSpaceOwnerInfo",
      "outputs": [
        {
          "internalType": "string",
          "name": "name",
          "type": "string"
        },
        {
          "internalType": "address",
          "name": "account",
          "type": "address"
        }
      ],
      "stateMutability": "view",
      "type": "function",
      "constant": true
    },
    {
      "inputs": [
        {
          "internalType": "string",
          "name": "_spaceName",
          "type": "string"
        },
        {
          "internalType": "uint256",
          "name": "_ownerId",
          "type": "uint256"
        },
        {
          "internalType": "string",
          "name": "_locationAddress",
          "type": "string"
        },
        {
          "internalType": "uint256",
          "name": "_price",
          "type": "uint256"
        }
      ],
      "name": "addParkingSpace",
      "outputs": [],
      "stateMutability": "payable",
      "type": "function",
      "payable": true
    },
    {
      "inputs": [],
      "name": "getSpacesQuantity",
      "outputs": [
        {
          "internalType": "uint256",
          "name": "",
          "type": "uint256"
        }
      ],
      "stateMutability": "view",
      "type": "function",
      "constant": true
    },
    {
      "inputs": [
        {
          "internalType": "uint256",
          "name": "_index",
          "type": "uint256"
        }
      ],
      "name": "getParkingSpaceInfo",
      "outputs": [
        {
          "internalType": "string",
          "name": "name",
          "type": "string"
        },
        {
          "internalType": "string",
          "name": "locationAddress",
          "type": "string"
        },
        {
          "internalType": "uint256",
          "name": "price",
          "type": "uint256"
        },
        {
          "internalType": "bool",
          "name": "isReserved",
          "type": "bool"
        },
        {
          "internalType": "uint256",
          "name": "ownerId",
          "type": "uint256"
        },
        {
          "internalType": "string",
          "name": "ownerAccount",
          "type": "string"
        }
      ],
      "stateMutability": "view",
      "type": "function",
      "constant": true
    },
    {
      "inputs": [],
      "name": "getSpacesStatus",
      "outputs": [
        {
          "internalType": "bool[]",
          "name": "",
          "type": "bool[]"
        }
      ],
      "stateMutability": "view",
      "type": "function",
      "constant": true
    },
    {
      "inputs": [
        {
          "internalType": "string",
          "name": "_driverName",
          "type": "string"
        },
        {
          "internalType": "address",
          "name": "_driverAccount",
          "type": "address"
        }
      ],
      "name": "addDriver",
      "outputs": [],
      "stateMutability": "payable",
      "type": "function",
      "payable": true
    },
    {
      "inputs": [
        {
          "internalType": "string",
          "name": "_carId",
          "type": "string"
        },
        {
          "internalType": "uint256",
          "name": "_driverId",
          "type": "uint256"
        }
      ],
      "name": "addCar",
      "outputs": [],
      "stateMutability": "nonpayable",
      "type": "function"
    },
    {
      "inputs": [
        {
          "internalType": "string",
          "name": "_spaceName",
          "type": "string"
        }
      ],
      "name": "reserveParkingSpace",
      "outputs": [],
      "stateMutability": "payable",
      "type": "function",
      "payable": true
    }
  ],
  "bytecode": "0x60806040523480156200001157600080fd5b506200003262000026620000a460201b60201c565b620000ac60201b60201c565b604051620000409062000170565b604051809103906000f0801580156200005d573d6000803e3d6000fd5b50601160006101000a81548173ffffffffffffffffffffffffffffffffffffffff021916908373ffffffffffffffffffffffffffffffffffffffff1602179055506200017e565b600033905090565b60008060009054906101000a900473ffffffffffffffffffffffffffffffffffffffff169050816000806101000a81548173ffffffffffffffffffffffffffffffffffffffff021916908373ffffffffffffffffffffffffffffffffffffffff1602179055508173ffffffffffffffffffffffffffffffffffffffff168173ffffffffffffffffffffffffffffffffffffffff167f8be0079c531659141344cd1fd0a4f28419497f9722a3daafe3b4186f6b6457e060405160405180910390a35050565b6110ec8062002e2e83390190565b612ca0806200018e6000396000f3fe6080604052600436106100dd5760003560e01c80638c2457081161007f578063d50fb9f511610059578063d50fb9f514610298578063e8182fa8146102b4578063f2fde38b146102df578063f4de771414610308576100dd565b80638c245708146102285780638da5cb5b14610244578063965ac0c51461026f576100dd565b806342835132116100bb578063428351321461017e5780636a152b4e146101bb578063715018a6146101e657806379a117d6146101fd576100dd565b806318d4478b146100e257806324433be6146100fe5780634049f8e71461013c575b600080fd5b6100fc60048036038101906100f79190611e4f565b610345565b005b34801561010a57600080fd5b5061012560048036038101906101209190611ee1565b610623565b604051610133929190611fa5565b60405180910390f35b34801561014857600080fd5b50610163600480360381019061015e9190611ee1565b610721565b60405161017596959493929190611fff565b60405180910390f35b34801561018a57600080fd5b506101a560048036038101906101a09190612075565b610946565b6040516101b291906120be565b60405180910390f35b3480156101c757600080fd5b506101d0610993565b6040516101dd9190612197565b60405180910390f35b3480156101f257600080fd5b506101fb610a10565b005b34801561020957600080fd5b50610212610a98565b60405161021f91906121b9565b60405180910390f35b610242600480360381019061023d9190612075565b610aa9565b005b34801561025057600080fd5b50610259610e69565b60405161026691906121d4565b60405180910390f35b34801561027b57600080fd5b50610296600480360381019061029191906121ef565b610e92565b005b6102b260048036038101906102ad919061224b565b610f54565b005b3480156102c057600080fd5b506102c96113fa565b6040516102d691906121b9565b60405180910390f35b3480156102eb57600080fd5b50610306600480360381019061030191906122ea565b61140b565b005b34801561031457600080fd5b5061032f600480360381019061032a9190611e4f565b611503565b60405161033c91906121b9565b60405180910390f35b8160006008826040516103589190612353565b9081526020016040518091039020549050600015156009600083815260200190815260200160002060009054906101000a900460ff161515146103d0576040517f08c379a00000000000000000000000000000000000000000000000000000000081526004016103c7906123b6565b60405180910390fd5b60053414610413576040517f08c379a000000000000000000000000000000000000000000000000000000000815260040161040a90612448565b60405180910390fd5b61041d600661177d565b60006104296006611793565b90508060088660405161043c9190612353565b90815260200160405180910390208190555060405180606001604052808281526020018681526020018573ffffffffffffffffffffffffffffffffffffffff16815250600760008381526020019081526020016000206000820151816000015560208201518160010190805190602001906104b8929190611b67565b5060408201518160020160006101000a81548173ffffffffffffffffffffffffffffffffffffffff021916908373ffffffffffffffffffffffffffffffffffffffff16021790555090505060016009600083815260200190815260200160002060006101000a81548160ff0219169083151502179055506000610539610e69565b73ffffffffffffffffffffffffffffffffffffffff163460405161055c90612499565b60006040518083038185875af1925050503d8060008114610599576040519150601f19603f3d011682016040523d82523d6000602084013e61059e565b606091505b50509050806105e2576040517f08c379a00000000000000000000000000000000000000000000000000000000081526004016105d9906124fa565b60405180910390fd5b7f933bf603b67bc4dc4a3043a0569a741d76c5306aeafc70624cf041083ca2b0c98686604051610613929190611fa5565b60405180910390a1505050505050565b60606000600260006001856106389190612549565b81526020019081526020016000206001016002600060018661065a9190612549565b815260200190815260200160002060020160009054906101000a900473ffffffffffffffffffffffffffffffffffffffff16818054610698906125ac565b80601f01602080910402602001604051908101604052809291908181526020018280546106c4906125ac565b80156107115780601f106106e657610100808354040283529160200191610711565b820191906000526020600020905b8154815290600101906020018083116106f457829003601f168201915b5050505050915091509150915091565b606080600080600060606000600c8881548110610741576107406125de565b5b90600052602060002090600502016040518060a001604052908160008201805461076a906125ac565b80601f0160208091040260200160405190810160405280929190818152602001828054610796906125ac565b80156107e35780601f106107b8576101008083540402835291602001916107e3565b820191906000526020600020905b8154815290600101906020018083116107c657829003601f168201915b505050505081526020016001820180546107fc906125ac565b80601f0160208091040260200160405190810160405280929190818152602001828054610828906125ac565b80156108755780601f1061084a57610100808354040283529160200191610875565b820191906000526020600020905b81548152906001019060200180831161085857829003601f168201915b5050505050815260200160028201548152602001600382015481526020016004820160009054906101000a900460ff16151515158152505090506000600260008360400151815260200190815260200160002060020160009054906101000a900473ffffffffffffffffffffffffffffffffffffffff1690508160000151826020015183606001518460800151856040015161092f8660405160200161091b9190612655565b6040516020818303038152906040526117a1565b975097509750975097509750505091939550919395565b6000806004836040516109599190612353565b90815260200160405180910390205490506005600082815260200190815260200160002060009054906101000a900460ff16915050919050565b60606010805480602002602001604051908101604052809291908181526020018280548015610a0657602002820191906000526020600020906000905b82829054906101000a900460ff161515815260200190600101906020826000010492830192600103820291508084116109d05790505b5050505050905090565b610a18611a9b565b73ffffffffffffffffffffffffffffffffffffffff16610a36610e69565b73ffffffffffffffffffffffffffffffffffffffff1614610a8c576040517f08c379a0000000000000000000000000000000000000000000000000000000008152600401610a83906126bc565b60405180910390fd5b610a966000611aa3565b565b6000610aa46001611793565b905090565b600e81604051610ab99190612353565b908152602001604051809103902060009054906101000a900460ff16610b14576040517f08c379a0000000000000000000000000000000000000000000000000000000008152600401610b0b9061274e565b60405180910390fd5b6001600c600b83604051610b289190612353565b90815260200160405180910390205481548110610b4857610b476125de565b5b906000526020600020906005020160040160006101000a81548160ff0219169083151502179055506000600c600b83604051610b849190612353565b90815260200160405180910390205481548110610ba457610ba36125de565b5b906000526020600020906005020160020154905060006002600083815260200190815260200160002060405180606001604052908160008201548152602001600182018054610bf2906125ac565b80601f0160208091040260200160405190810160405280929190818152602001828054610c1e906125ac565b8015610c6b5780601f10610c4057610100808354040283529160200191610c6b565b820191906000526020600020905b815481529060010190602001808311610c4e57829003601f168201915b505050505081526020016002820160009054906101000a900473ffffffffffffffffffffffffffffffffffffffff1673ffffffffffffffffffffffffffffffffffffffff1673ffffffffffffffffffffffffffffffffffffffff168152505090506000601160009054906101000a900473ffffffffffffffffffffffffffffffffffffffff1673ffffffffffffffffffffffffffffffffffffffff16638dcd5205858460400151336040518463ffffffff1660e01b8152600401610d319392919061276e565b6020604051808303816000875af1158015610d50573d6000803e3d6000fd5b505050506040513d601f19601f82011682018060405250810190610d7491906127c1565b90506000610d80610e69565b73ffffffffffffffffffffffffffffffffffffffff1634604051610da390612499565b60006040518083038185875af1925050503d8060008114610de0576040519150601f19603f3d011682016040523d82523d6000602084013e610de5565b606091505b5050905080610e29576040517f08c379a0000000000000000000000000000000000000000000000000000000008152600401610e20906124fa565b60405180910390fd5b7fff262bb2c7d883079fca143adc6c77a55dccba4e955c6864922bfad268dff8a68583604051610e5a9291906127ee565b60405180910390a15050505050565b60008060009054906101000a900473ffffffffffffffffffffffffffffffffffffffff16905090565b806009600082815260200190815260200160002060009054906101000a900460ff16610ef3576040517f08c379a0000000000000000000000000000000000000000000000000000000008152600401610eea90612890565b60405180910390fd5b81600a84604051610f049190612353565b9081526020016040518091039020819055507fe7ea2f94ca6b3a33205c93fd709317a2e9184ed9f7f01a01de859ba32253df3a8383604051610f479291906127ee565b60405180910390a1505050565b826001610f96576040517f08c379a0000000000000000000000000000000000000000000000000000000008152600401610f8d90612922565b60405180910390fd5b8460001515600e82604051610fab9190612353565b908152602001604051809103902060009054906101000a900460ff16151514611009576040517f08c379a00000000000000000000000000000000000000000000000000000000081526004016110009061298e565b60405180910390fd5b6004341461104c576040517f08c379a000000000000000000000000000000000000000000000000000000000815260040161104390612a20565b60405180910390fd5b600c6040518060a0016040528088815260200186815260200187815260200185815260200160001515815250908060018154018082558091505060019003906000526020600020906005020160009091909190915060008201518160000190805190602001906110bd929190611b67565b5060208201518160010190805190602001906110da929190611b67565b50604082015181600201556060820151816003015560808201518160040160006101000a81548160ff021916908315150217905550505061111b600d611793565b600b8760405161112b9190612353565b9081526020016040518091039020819055506010600090806001815401808255809150506001900390600052602060002090602091828204019190069091909190916101000a81548160ff02191690831515021790555061118c600d61177d565b6001600e8760405161119e9190612353565b908152602001604051809103902060006101000a81548160ff02191690831515021790555084600f876040516111d49190612353565b90815260200160405180910390208190555060006111f0610e69565b73ffffffffffffffffffffffffffffffffffffffff163460405161121390612499565b60006040518083038185875af1925050503d8060008114611250576040519150601f19603f3d011682016040523d82523d6000602084013e611255565b606091505b5050905080611299576040517f08c379a0000000000000000000000000000000000000000000000000000000008152600401611290906124fa565b60405180910390fd5b600060026000888152602001908152602001600020604051806060016040529081600082015481526020016001820180546112d3906125ac565b80601f01602080910402602001604051908101604052809291908181526020018280546112ff906125ac565b801561134c5780601f106113215761010080835404028352916020019161134c565b820191906000526020600020905b81548152906001019060200180831161132f57829003601f168201915b505050505081526020016002820160009054906101000a900473ffffffffffffffffffffffffffffffffffffffff1673ffffffffffffffffffffffffffffffffffffffff1673ffffffffffffffffffffffffffffffffffffffff168152505090507fedc13e3095cfb681cc32c6a29dd2dce0db849462949d52593f48d5c9e5a8bcf08888888885604001516040516113e8959493929190612a40565b60405180910390a15050505050505050565b6000611406600d611793565b905090565b611413611a9b565b73ffffffffffffffffffffffffffffffffffffffff16611431610e69565b73ffffffffffffffffffffffffffffffffffffffff1614611487576040517f08c379a000000000000000000000000000000000000000000000000000000000815260040161147e906126bc565b60405180910390fd5b600073ffffffffffffffffffffffffffffffffffffffff168173ffffffffffffffffffffffffffffffffffffffff1614156114f7576040517f08c379a00000000000000000000000000000000000000000000000000000000081526004016114ee90612b13565b60405180910390fd5b61150081611aa3565b50565b6000806004846040516115169190612353565b90815260200160405180910390205490506005600082815260200190815260200160002060009054906101000a900460ff1661173857611556600161177d565b6115606001611793565b9050806004856040516115739190612353565b90815260200160405180910390208190555060405180606001604052808281526020018581526020018473ffffffffffffffffffffffffffffffffffffffff16815250600260008381526020019081526020016000206000820151816000015560208201518160010190805190602001906115ef929190611b67565b5060408201518160020160006101000a81548173ffffffffffffffffffffffffffffffffffffffff021916908373ffffffffffffffffffffffffffffffffffffffff16021790555090505060016005600083815260200190815260200160002060006101000a81548160ff02191690831515021790555060036002600083815260200190815260200160002090806001815401808255809150506001900390600052602060002090600302016000909190919091506000820154816000015560018201816001019080546116c2906125ac565b6116cd929190611bed565b506002820160009054906101000a900473ffffffffffffffffffffffffffffffffffffffff168160020160006101000a81548173ffffffffffffffffffffffffffffffffffffffff021916908373ffffffffffffffffffffffffffffffffffffffff16021790555050505b7f435a3c4237652bdf3454025868b80f038e31696285368352ebf7d647ae54429f84848360405161176b93929190612b33565b60405180910390a18091505092915050565b6001816000016000828254019250508190555050565b600081600001549050919050565b606060006040518060400160405280601081526020017f303132333435363738396162636465660000000000000000000000000000000081525090506000600284516117ed9190612b71565b60026117f99190612bcb565b67ffffffffffffffff81111561181257611811611cc6565b5b6040519080825280601f01601f1916602001820160405280156118445781602001600182028036833780820191505090505b5090507f30000000000000000000000000000000000000000000000000000000000000008160008151811061187c5761187b6125de565b5b60200101907effffffffffffffffffffffffffffffffffffffffffffffffffffffffffffff1916908160001a9053507f7800000000000000000000000000000000000000000000000000000000000000816001815181106118e0576118df6125de565b5b60200101907effffffffffffffffffffffffffffffffffffffffffffffffffffffffffffff1916908160001a90535060005b8451811015611a9057826004868381518110611931576119306125de565b5b602001015160f81c60f81b7effffffffffffffffffffffffffffffffffffffffffffffffffffffffffffff1916901c60f81c60ff1681518110611977576119766125de565b5b602001015160f81c60f81b826002836119909190612b71565b600261199c9190612bcb565b815181106119ad576119ac6125de565b5b60200101907effffffffffffffffffffffffffffffffffffffffffffffffffffffffffffff1916908160001a90535082600f60f81b8683815181106119f5576119f46125de565b5b602001015160f81c60f81b1660f81c60ff1681518110611a1857611a176125de565b5b602001015160f81c60f81b82600283611a319190612b71565b6003611a3d9190612bcb565b81518110611a4e57611a4d6125de565b5b60200101907effffffffffffffffffffffffffffffffffffffffffffffffffffffffffffff1916908160001a9053508080611a8890612c21565b915050611912565b508092505050919050565b600033905090565b60008060009054906101000a900473ffffffffffffffffffffffffffffffffffffffff169050816000806101000a81548173ffffffffffffffffffffffffffffffffffffffff021916908373ffffffffffffffffffffffffffffffffffffffff1602179055508173ffffffffffffffffffffffffffffffffffffffff168173ffffffffffffffffffffffffffffffffffffffff167f8be0079c531659141344cd1fd0a4f28419497f9722a3daafe3b4186f6b6457e060405160405180910390a35050565b828054611b73906125ac565b90600052602060002090601f016020900481019282611b955760008555611bdc565b82601f10611bae57805160ff1916838001178555611bdc565b82800160010185558215611bdc579182015b82811115611bdb578251825591602001919060010190611bc0565b5b509050611be99190611c7a565b5090565b828054611bf9906125ac565b90600052602060002090601f016020900481019282611c1b5760008555611c69565b82601f10611c2c5780548555611c69565b82800160010185558215611c6957600052602060002091601f016020900482015b82811115611c68578254825591600101919060010190611c4d565b5b509050611c769190611c7a565b5090565b5b80821115611c93576000816000905550600101611c7b565b5090565b6000604051905090565b600080fd5b600080fd5b600080fd5b600080fd5b6000601f19601f8301169050919050565b7f4e487b7100000000000000000000000000000000000000000000000000000000600052604160045260246000fd5b611cfe82611cb5565b810181811067ffffffffffffffff82111715611d1d57611d1c611cc6565b5b80604052505050565b6000611d30611c97565b9050611d3c8282611cf5565b919050565b600067ffffffffffffffff821115611d5c57611d5b611cc6565b5b611d6582611cb5565b9050602081019050919050565b82818337600083830152505050565b6000611d94611d8f84611d41565b611d26565b905082815260208101848484011115611db057611daf611cb0565b5b611dbb848285611d72565b509392505050565b600082601f830112611dd857611dd7611cab565b5b8135611de8848260208601611d81565b91505092915050565b600073ffffffffffffffffffffffffffffffffffffffff82169050919050565b6000611e1c82611df1565b9050919050565b611e2c81611e11565b8114611e3757600080fd5b50565b600081359050611e4981611e23565b92915050565b60008060408385031215611e6657611e65611ca1565b5b600083013567ffffffffffffffff811115611e8457611e83611ca6565b5b611e9085828601611dc3565b9250506020611ea185828601611e3a565b9150509250929050565b6000819050919050565b611ebe81611eab565b8114611ec957600080fd5b50565b600081359050611edb81611eb5565b92915050565b600060208284031215611ef757611ef6611ca1565b5b6000611f0584828501611ecc565b91505092915050565b600081519050919050565b600082825260208201905092915050565b60005b83811015611f48578082015181840152602081019050611f2d565b83811115611f57576000848401525b50505050565b6000611f6882611f0e565b611f728185611f19565b9350611f82818560208601611f2a565b611f8b81611cb5565b840191505092915050565b611f9f81611e11565b82525050565b60006040820190508181036000830152611fbf8185611f5d565b9050611fce6020830184611f96565b9392505050565b611fde81611eab565b82525050565b60008115159050919050565b611ff981611fe4565b82525050565b600060c08201905081810360008301526120198189611f5d565b9050818103602083015261202d8188611f5d565b905061203c6040830187611fd5565b6120496060830186611ff0565b6120566080830185611fd5565b81810360a08301526120688184611f5d565b9050979650505050505050565b60006020828403121561208b5761208a611ca1565b5b600082013567ffffffffffffffff8111156120a9576120a8611ca6565b5b6120b584828501611dc3565b91505092915050565b60006020820190506120d36000830184611ff0565b92915050565b600081519050919050565b600082825260208201905092915050565b6000819050602082019050919050565b61210e81611fe4565b82525050565b60006121208383612105565b60208301905092915050565b6000602082019050919050565b6000612144826120d9565b61214e81856120e4565b9350612159836120f5565b8060005b8381101561218a5781516121718882612114565b975061217c8361212c565b92505060018101905061215d565b5085935050505092915050565b600060208201905081810360008301526121b18184612139565b905092915050565b60006020820190506121ce6000830184611fd5565b92915050565b60006020820190506121e96000830184611f96565b92915050565b6000806040838503121561220657612205611ca1565b5b600083013567ffffffffffffffff81111561222457612223611ca6565b5b61223085828601611dc3565b925050602061224185828601611ecc565b9150509250929050565b6000806000806080858703121561226557612264611ca1565b5b600085013567ffffffffffffffff81111561228357612282611ca6565b5b61228f87828801611dc3565b94505060206122a087828801611ecc565b935050604085013567ffffffffffffffff8111156122c1576122c0611ca6565b5b6122cd87828801611dc3565b92505060606122de87828801611ecc565b91505092959194509250565b600060208284031215612300576122ff611ca1565b5b600061230e84828501611e3a565b91505092915050565b600081905092915050565b600061232d82611f0e565b6123378185612317565b9350612347818560208601611f2a565b80840191505092915050565b600061235f8284612322565b915081905092915050565b7f44726976657220616c7265616479206578697374732e00000000000000000000600082015250565b60006123a0601683611f19565b91506123ab8261236a565b602082019050919050565b600060208201905081810360008301526123cf81612393565b9050919050565b7f5468652076616c7565206d75737420626520657175616c20746f20746865206560008201527f6e726f6c6c6d656e74206665652e000000000000000000000000000000000000602082015250565b6000612432602e83611f19565b915061243d826123d6565b604082019050919050565b6000602082019050818103600083015261246181612425565b9050919050565b600081905092915050565b50565b6000612483600083612468565b915061248e82612473565b600082019050919050565b60006124a482612476565b9150819050919050565b7f5472616e73616374696f6e204661696c65640000000000000000000000000000600082015250565b60006124e4601283611f19565b91506124ef826124ae565b602082019050919050565b60006020820190508181036000830152612513816124d7565b9050919050565b7f4e487b7100000000000000000000000000000000000000000000000000000000600052601160045260246000fd5b600061255482611eab565b915061255f83611eab565b9250828210156125725761257161251a565b5b828203905092915050565b7f4e487b7100000000000000000000000000000000000000000000000000000000600052602260045260246000fd5b600060028204905060018216806125c457607f821691505b602082108114156125d8576125d761257d565b5b50919050565b7f4e487b7100000000000000000000000000000000000000000000000000000000600052603260045260246000fd5b60008160601b9050919050565b60006126258261260d565b9050919050565b60006126378261261a565b9050919050565b61264f61264a82611e11565b61262c565b82525050565b6000612661828461263e565b60148201915081905092915050565b7f4f776e61626c653a2063616c6c6572206973206e6f7420746865206f776e6572600082015250565b60006126a6602083611f19565b91506126b182612670565b602082019050919050565b600060208201905081810360008301526126d581612699565b9050919050565b7f5468657265206973206e6f2061205061726b696e67205370616365207769746860008201527f2074686520737065636966696564206e616d652e000000000000000000000000602082015250565b6000612738603483611f19565b9150612743826126dc565b604082019050919050565b600060208201905081810360008301526127678161272b565b9050919050565b600060608201905081810360008301526127888186611f5d565b90506127976020830185611f96565b6127a46040830184611f96565b949350505050565b6000815190506127bb81611eb5565b92915050565b6000602082840312156127d7576127d6611ca1565b5b60006127e5848285016127ac565b91505092915050565b600060408201905081810360008301526128088185611f5d565b90506128176020830184611fd5565b9392505050565b7f446f6573206e6f7420657869737420616e20447269766572207769746820707260008201527f6f7669646564206472697665722069642e000000000000000000000000000000602082015250565b600061287a603183611f19565b91506128858261281e565b604082019050919050565b600060208201905081810360008301526128a98161286d565b9050919050565b7f446f6573206e6f7420657869737420616e204f776e657220776974682070726f60008201527f7669646564206f776e65722069642e0000000000000000000000000000000000602082015250565b600061290c602f83611f19565b9150612917826128b0565b604082019050919050565b6000602082019050818103600083015261293b816128ff565b9050919050565b7f537061636520616c7265616479206578697374732e0000000000000000000000600082015250565b6000612978601583611f19565b915061298382612942565b602082019050919050565b600060208201905081810360008301526129a78161296b565b9050919050565b7f5468652076616c7565206d75737420626520657175616c20746f20746865207360008201527f70616365207075626c69636174696f6e206665652e0000000000000000000000602082015250565b6000612a0a603583611f19565b9150612a15826129ae565b604082019050919050565b60006020820190508181036000830152612a39816129fd565b9050919050565b600060a0820190508181036000830152612a5a8188611f5d565b9050612a696020830187611fd5565b8181036040830152612a7b8186611f5d565b9050612a8a6060830185611fd5565b612a976080830184611f96565b9695505050505050565b7f4f776e61626c653a206e6577206f776e657220697320746865207a65726f206160008201527f6464726573730000000000000000000000000000000000000000000000000000602082015250565b6000612afd602683611f19565b9150612b0882612aa1565b604082019050919050565b60006020820190508181036000830152612b2c81612af0565b9050919050565b60006060820190508181036000830152612b4d8186611f5d565b9050612b5c6020830185611f96565b612b696040830184611fd5565b949350505050565b6000612b7c82611eab565b9150612b8783611eab565b9250817fffffffffffffffffffffffffffffffffffffffffffffffffffffffffffffffff0483118215151615612bc057612bbf61251a565b5b828202905092915050565b6000612bd682611eab565b9150612be183611eab565b9250827fffffffffffffffffffffffffffffffffffffffffffffffffffffffffffffffff03821115612c1657612c1561251a565b5b828201905092915050565b6000612c2c82611eab565b91507fffffffffffffffffffffffffffffffffffffffffffffffffffffffffffffffff821415612c5f57612c5e61251a565b5b60018201905091905056fea2646970667358221220a4232918dab628f917b20d5441b43225553a0ae2e7139d6a520160c809116ccf64736f6c634300080a0033608060405234801561001057600080fd5b5061002d61002261003260201b60201c565b61003a60201b60201c565b6100fe565b600033905090565b60008060009054906101000a900473ffffffffffffffffffffffffffffffffffffffff169050816000806101000a81548173ffffffffffffffffffffffffffffffffffffffff021916908373ffffffffffffffffffffffffffffffffffffffff1602179055508173ffffffffffffffffffffffffffffffffffffffff168173ffffffffffffffffffffffffffffffffffffffff167f8be0079c531659141344cd1fd0a4f28419497f9722a3daafe3b4186f6b6457e060405160405180910390a35050565b610fdf8061010d6000396000f3fe608060405234801561001057600080fd5b506004361061007d5760003560e01c806381fad93e1161005b57806381fad93e146100c45780638da5cb5b146100e05780638dcd5205146100fe578063f2fde38b1461012e5761007d565b80632072a60d146100825780633d0350c11461009e578063715018a6146100ba575b600080fd5b61009c60048036038101906100979190610add565b61014a565b005b6100b860048036038101906100b39190610add565b610294565b005b6100c26103e4565b005b6100de60048036038101906100d99190610add565b61046c565b005b6100e86105ea565b6040516100f59190610b4b565b60405180910390f35b61011860048036038101906101139190610cd8565b610613565b6040516101259190610d56565b60405180910390f35b61014860048036038101906101439190610d71565b610808565b005b806000600481111561015f5761015e610d9e565b5b6002600083815260200190815260200160002060020160149054906101000a900460ff16600481111561019557610194610d9e565b5b146101d5576040517f08c379a00000000000000000000000000000000000000000000000000000000081526004016101cc90610e2a565b60405180910390fd5b6101dd610900565b73ffffffffffffffffffffffffffffffffffffffff166101fb6105ea565b73ffffffffffffffffffffffffffffffffffffffff1614610251576040517f08c379a000000000000000000000000000000000000000000000000000000000815260040161024890610e96565b60405180910390fd5b60016002600084815260200190815260200160002060020160146101000a81548160ff0219169083600481111561028b5761028a610d9e565b5b02179055505050565b8060006002600083815260200190815260200160002060020160149054906101000a900460ff169050600160048111156102d1576102d0610d9e565b5b8160048111156102e4576102e3610d9e565b5b14610324576040517f08c379a000000000000000000000000000000000000000000000000000000000815260040161031b90610e2a565b60405180910390fd5b61032c610900565b73ffffffffffffffffffffffffffffffffffffffff1661034a6105ea565b73ffffffffffffffffffffffffffffffffffffffff16146103a0576040517f08c379a000000000000000000000000000000000000000000000000000000000815260040161039790610e96565b60405180910390fd5b60036002600085815260200190815260200160002060020160146101000a81548160ff021916908360048111156103da576103d9610d9e565b5b0217905550505050565b6103ec610900565b73ffffffffffffffffffffffffffffffffffffffff1661040a6105ea565b73ffffffffffffffffffffffffffffffffffffffff1614610460576040517f08c379a000000000000000000000000000000000000000000000000000000000815260040161045790610e96565b60405180910390fd5b61046a6000610908565b565b8060006002600083815260200190815260200160002060020160149054906101000a900460ff169050600060048111156104a9576104a8610d9e565b5b8160048111156104bc576104bb610d9e565b5b14806104ec5750600160048111156104d7576104d6610d9e565b5b8160048111156104ea576104e9610d9e565b5b145b61052b576040517f08c379a000000000000000000000000000000000000000000000000000000000815260040161052290610e2a565b60405180910390fd5b610533610900565b73ffffffffffffffffffffffffffffffffffffffff166105516105ea565b73ffffffffffffffffffffffffffffffffffffffff16146105a7576040517f08c379a000000000000000000000000000000000000000000000000000000000815260040161059e90610e96565b60405180910390fd5b600280600085815260200190815260200160002060020160146101000a81548160ff021916908360048111156105e0576105df610d9e565b5b0217905550505050565b60008060009054906101000a900473ffffffffffffffffffffffffffffffffffffffff16905090565b600061061d610900565b73ffffffffffffffffffffffffffffffffffffffff1661063b6105ea565b73ffffffffffffffffffffffffffffffffffffffff1614610691576040517f08c379a000000000000000000000000000000000000000000000000000000000815260040161068890610e96565b60405180910390fd5b61069b60016109cc565b60405180608001604052808581526020018473ffffffffffffffffffffffffffffffffffffffff1681526020018373ffffffffffffffffffffffffffffffffffffffff168152602001600060048111156106f8576106f7610d9e565b5b8152506002600061070960016109e2565b815260200190815260200160002060008201518160000190805190602001906107339291906109f0565b5060208201518160010160006101000a81548173ffffffffffffffffffffffffffffffffffffffff021916908373ffffffffffffffffffffffffffffffffffffffff16021790555060408201518160020160006101000a81548173ffffffffffffffffffffffffffffffffffffffff021916908373ffffffffffffffffffffffffffffffffffffffff16021790555060608201518160020160146101000a81548160ff021916908360048111156107ed576107ec610d9e565b5b02179055509050506107ff60016109e2565b90509392505050565b610810610900565b73ffffffffffffffffffffffffffffffffffffffff1661082e6105ea565b73ffffffffffffffffffffffffffffffffffffffff1614610884576040517f08c379a000000000000000000000000000000000000000000000000000000000815260040161087b90610e96565b60405180910390fd5b600073ffffffffffffffffffffffffffffffffffffffff168173ffffffffffffffffffffffffffffffffffffffff1614156108f4576040517f08c379a00000000000000000000000000000000000000000000000000000000081526004016108eb90610f28565b60405180910390fd5b6108fd81610908565b50565b600033905090565b60008060009054906101000a900473ffffffffffffffffffffffffffffffffffffffff169050816000806101000a81548173ffffffffffffffffffffffffffffffffffffffff021916908373ffffffffffffffffffffffffffffffffffffffff1602179055508173ffffffffffffffffffffffffffffffffffffffff168173ffffffffffffffffffffffffffffffffffffffff167f8be0079c531659141344cd1fd0a4f28419497f9722a3daafe3b4186f6b6457e060405160405180910390a35050565b6001816000016000828254019250508190555050565b600081600001549050919050565b8280546109fc90610f77565b90600052602060002090601f016020900481019282610a1e5760008555610a65565b82601f10610a3757805160ff1916838001178555610a65565b82800160010185558215610a65579182015b82811115610a64578251825591602001919060010190610a49565b5b509050610a729190610a76565b5090565b5b80821115610a8f576000816000905550600101610a77565b5090565b6000604051905090565b600080fd5b600080fd5b6000819050919050565b610aba81610aa7565b8114610ac557600080fd5b50565b600081359050610ad781610ab1565b92915050565b600060208284031215610af357610af2610a9d565b5b6000610b0184828501610ac8565b91505092915050565b600073ffffffffffffffffffffffffffffffffffffffff82169050919050565b6000610b3582610b0a565b9050919050565b610b4581610b2a565b82525050565b6000602082019050610b606000830184610b3c565b92915050565b600080fd5b600080fd5b6000601f19601f8301169050919050565b7f4e487b7100000000000000000000000000000000000000000000000000000000600052604160045260246000fd5b610bb982610b70565b810181811067ffffffffffffffff82111715610bd857610bd7610b81565b5b80604052505050565b6000610beb610a93565b9050610bf78282610bb0565b919050565b600067ffffffffffffffff821115610c1757610c16610b81565b5b610c2082610b70565b9050602081019050919050565b82818337600083830152505050565b6000610c4f610c4a84610bfc565b610be1565b905082815260208101848484011115610c6b57610c6a610b6b565b5b610c76848285610c2d565b509392505050565b600082601f830112610c9357610c92610b66565b5b8135610ca3848260208601610c3c565b91505092915050565b610cb581610b2a565b8114610cc057600080fd5b50565b600081359050610cd281610cac565b92915050565b600080600060608486031215610cf157610cf0610a9d565b5b600084013567ffffffffffffffff811115610d0f57610d0e610aa2565b5b610d1b86828701610c7e565b9350506020610d2c86828701610cc3565b9250506040610d3d86828701610cc3565b9150509250925092565b610d5081610aa7565b82525050565b6000602082019050610d6b6000830184610d47565b92915050565b600060208284031215610d8757610d86610a9d565b5b6000610d9584828501610cc3565b91505092915050565b7f4e487b7100000000000000000000000000000000000000000000000000000000600052602160045260246000fd5b600082825260208201905092915050565b7f496e76616c6964207265736572766174696f6e207374617475732e0000000000600082015250565b6000610e14601b83610dcd565b9150610e1f82610dde565b602082019050919050565b60006020820190508181036000830152610e4381610e07565b9050919050565b7f4f776e61626c653a2063616c6c6572206973206e6f7420746865206f776e6572600082015250565b6000610e80602083610dcd565b9150610e8b82610e4a565b602082019050919050565b60006020820190508181036000830152610eaf81610e73565b9050919050565b7f4f776e61626c653a206e6577206f776e657220697320746865207a65726f206160008201527f6464726573730000000000000000000000000000000000000000000000000000602082015250565b6000610f12602683610dcd565b9150610f1d82610eb6565b604082019050919050565b60006020820190508181036000830152610f4181610f05565b9050919050565b7f4e487b7100000000000000000000000000000000000000000000000000000000600052602260045260246000fd5b60006002820490506001821680610f8f57607f821691505b60208210811415610fa357610fa2610f48565b5b5091905056fea26469706673582212205d65743ab956bdd1815af59aabd42750f0a2943f82da7bc29df075e9d8ba31b764736f6c634300080a0033",
  "immutableReferences": {},
  "source": "// SPDX-License-Identifier: MIT\npragma solidity ^0.8.4;\n\nimport \"@openzeppelin/contracts/utils/Counters.sol\";\nimport \"@openzeppelin/contracts/token/ERC721/ERC721.sol\";\nimport \"@openzeppelin/contracts/security/ReentrancyGuard.sol\";\nimport \"@openzeppelin/contracts/access/Ownable.sol\";\nimport \"./ParkingReservationManager.sol\";\n\n\ncontract ParkingSystem is Ownable {\n  \n  struct ParkingSpaceOwner {\n    uint256 id;\n    string name;\n    address account;\n  }\n\n  struct ParkingSpace {\n    string name;\n    string locationAddress;\n    uint256 ownerId;  \n    uint price;\n    bool isReserved;     \n  }\n  \n  struct Driver {\n    uint256 id;\n    string name;\n    address account;\n  }\n\n  //It verifies the new owner does not already enrolled\n  modifier NotEnrolledOwner(string memory _ownerName) {\n    uint256 ownerId = ownerIdByName[_ownerName];\n    require(enrolledOwners[ownerId] == false, \"User already exists.\" );\n    _;\n  }\n\n  //Check if exists an owner id _ownerId\n  modifier EnrolledOwner(uint256 _ownerId) {\n    //require(enrolledOwners[_ownerId], \"Does not exist an Owner with provided owner id.\");\n    require(true, \"Does not exist an Owner with provided owner id.\");\n    _;\n  }\n\n  //It verifies the new driver does not already enrolled\n  modifier NotEnrolledDriver(string memory _driverName) {\n    uint256 driverId = driverIdByName[_driverName];\n    require(enrolledDrivers[driverId] == false, \"Driver already exists.\" );\n    _;\n  }\n\n  //Check if exists an driver id _driverId\n  modifier EnrolledDriver(uint256 _driverId) {\n    require(enrolledDrivers[_driverId], \"Does not exist an Driver with provided driver id.\");\n    _;\n  }\n\n  //It verifies the new space has not been registered\n  modifier NonExistentParkingSpace(string memory _parkingName) {\n    require(registeredSpaces[_parkingName] == false, \"Space already exists.\" );\n    _;\n  }\n\n  //It verifies the new space has not been registered\n  modifier ExistentParkingSpace(string memory _parkingName) {\n    require(registeredSpaces[_parkingName], \"Space does not exist.\" );\n    _;\n  }\n\n  modifier CorrectEnrollmentAmount() {\n    require(msg.value == enrollmentFee, \"The value must be equal to the enrollment fee.\");\n    _;\n  }\n\n  modifier CorrectSpacePublicationAmount() {\n    require(msg.value == spacePublicationFee, \"The value must be equal to the space publication fee.\");\n    _;\n  }\n\n  modifier CorrectReservationAmount() {\n    require(msg.value == reservationFee, \"The value must be equal to the reservation fee.\");\n    _;\n  }\n\n  uint private constant enrollmentFee = 5;\n  uint private constant spacePublicationFee = 4; \n  uint private constant reservationFee = 1;\n\n\n  ///**** Owners\n  //To create owner Ids\n  using Counters for Counters.Counter;\n    Counters.Counter private ownersIndex;\n  //Owners by Id. Key: owner Id, Value: ParkingSpaceOwner\n  mapping(uint256 => ParkingSpaceOwner) private ownersById;  \n  ParkingSpaceOwner[] private spaceOwners;\n  //Owner name to Id\n  mapping(string => uint256) ownerIdByName;\n  //Allows to know if a owner is already enrolled. Key: owner Id, Value: indicates if the owner is enrolled or not \n  mapping(uint256 => bool) private enrolledOwners;\n\n  ///**** Drivers\n  //To create driver Ids\n  using Counters for Counters.Counter;\n    Counters.Counter private driversIndex;\n  //Drivers by Id. Key: driver Id, Value: Driver\n  mapping(uint256 => Driver) private driversById;  \n  //Driver name to Id\n  mapping(string => uint256) driverIdByName;\n  //Allows to know if a driver is already enrolled. Key: driver Id, Value: indicates if the driver is enrolled or not \n  mapping(uint256 => bool) private enrolledDrivers;\n  //Cars to driver\n  mapping(string => uint256) carsToDriver;\n\n\n\n  ///**** Spaces\n  //Availables Parking Spaces. Key: space name, Value: the parking space\n  mapping(string => uint256)  private parkingSpaces;\n  ParkingSpace[] private spaces;\n  using Counters for Counters.Counter;\n    Counters.Counter private spaceCount;\n  //Allows to know if the space has been registered in the app. Key: space Id, Value: indicates if the space exists or not\n  mapping(string => bool) private registeredSpaces;\n  //Allows to know easily the owner for each space\n  mapping(string => uint256) private ownerBySpaceId;\n  bool[] spacesStatus;\n\n  //**** Events\n  event OwnerRegistered(string _ownerName, address _ownerAccount, uint256 _ownerId);\n  event SpaceAdded(string _spaceName, uint256 _ownerId, string _locationAddress, uint _price, address _ownerAccount);\n  event DriverAdded(string _driverName, address _driverAccount);\n  event CarAdded(string _carId, uint256 _driverId);\n  event ReservationCreated(string _spaceName, uint256 reserveId);\n\n  ParkingReservationManager private reservationMgr;\n\n  constructor()  {\n      reservationMgr = new ParkingReservationManager();\n  }\n\n  function addParkingSpaceOwner(string memory _ownerName, address _spaceOwnerAccount) public returns (uint256){\n\n    uint256 ownerId = ownerIdByName[_ownerName];\n    if(!enrolledOwners[ownerId]){// Is a new Owner\n      ownersIndex.increment();\n      ownerId = ownersIndex.current();\n\n      ownerIdByName[_ownerName] = ownerId;\n      ownersById[ownerId] = ParkingSpaceOwner({\n                                        id: ownerId,\n                                        name: _ownerName,\n                                        account: _spaceOwnerAccount\n                                    });\n      enrolledOwners[ownerId] = true;\n      spaceOwners.push(ownersById[ownerId]);\n    }\n    emit OwnerRegistered(_ownerName, _spaceOwnerAccount, ownerId);\n    return ownerId;\n  }\n\n  function isOwnerEnrolled(string memory _ownerName) public view returns (bool){\n\n    uint256 ownerId = ownerIdByName[_ownerName];\n    return enrolledOwners[ownerId];\n  }\n\n  function getOwnersQuantity() public view returns (uint256){\n    return ownersIndex.current();\n  }\n  \n  function getSpaceOwnerInfo(uint256 _ownerId) public view returns (string memory name, address account){\n   \n    return (ownersById[_ownerId - 1].name, ownersById[_ownerId - 1].account);\n  }\n  function addParkingSpace(string memory _spaceName, uint256 _ownerId, string memory _locationAddress, uint _price) public EnrolledOwner(_ownerId) NonExistentParkingSpace(_spaceName) CorrectSpacePublicationAmount payable {\n    \n    //Adds a new Parking Space\n    spaces.push(ParkingSpace({\n                              name: _spaceName,\n                              locationAddress: _locationAddress,\n                              ownerId: _ownerId,\n                              price: _price,\n                              isReserved: false \n                            })\n               );\n    parkingSpaces[_spaceName] = spaceCount.current();\n    spacesStatus.push(false);\n    spaceCount.increment();\n\n    registeredSpaces[_spaceName] = true;\n    ownerBySpaceId[_spaceName] = _ownerId;\n\n    // Take the publication fee\n    (bool sent, ) = address(owner()).call{value: msg.value}(\"\");\n    require(sent, \"Transaction Failed\");\n\n    ParkingSpaceOwner memory spaceOwner = ownersById[_ownerId];\n\n    emit SpaceAdded(_spaceName, _ownerId, _locationAddress, _price, spaceOwner.account);\n  }\n\n  function getSpacesQuantity() public view returns (uint256){\n    return spaceCount.current();\n  }\n\n  function getParkingSpaceInfo(uint256 _index) public view returns (string memory name, \n                                                                string memory locationAddress, \n                                                                uint price, \n                                                                bool isReserved, \n                                                                uint256 ownerId, \n                                                                string memory ownerAccount) {\n\n    ParkingSpace memory space = spaces[_index];\n    address account = ownersById[space.ownerId].account;                                                                  \n\n    return (space.name,\n            space.locationAddress,\n            space.price,\n            space.isReserved,\n            space.ownerId,\n            toString(abi.encodePacked(account))\n           );\n  }\n\n  function getSpacesStatus() public view returns (bool[] memory) {\n\n    return spacesStatus;\n  }\n\n  function addDriver(string memory _driverName, address _driverAccount) public NotEnrolledDriver(_driverName) CorrectEnrollmentAmount payable {\n\n    // Increments drivers index an gets the current id\n    driversIndex.increment();\n    uint256 driverId = driversIndex.current();\n    \n    driverIdByName[_driverName] = driverId;\n    \n    driversById[driverId] = Driver({\n                                      id: driverId,\n                                      name: _driverName,\n                                      account: _driverAccount\n                                  });\n    enrolledDrivers[driverId] = true;\n\n    // Take the driver enrollment fee\n    (bool sent, ) = address(owner()).call{value: msg.value}(\"\");\n    require(sent, \"Transaction Failed\");    \n\n    emit DriverAdded(_driverName, _driverAccount);\n    \n  }\n\n  function addCar(string memory _carId, uint256 _driverId) public EnrolledDriver(_driverId){\n    \n    carsToDriver[_carId] = _driverId;\n\n    emit CarAdded(_carId, _driverId);\n\n  }\n\n   \n  function reserveParkingSpace(string memory _spaceName) public payable {\n\n      // find a parkingSpace with _spaceName\n      require(registeredSpaces[_spaceName], \"There is no a Parking Space with the specified name.\");\n\n      // mark the space as busy\n      spaces[parkingSpaces[_spaceName]].isReserved = true;\n\n      // Owner id\n      uint256 ownerId = spaces[parkingSpaces[_spaceName]].ownerId;\n\n      // find the space owner\n      ParkingSpaceOwner  memory spaceOwner = ownersById[ownerId];\n\n      // create a rervation\n      uint256 reservationId =  reservationMgr.reserveParkingSpace(_spaceName, spaceOwner.account, msg.sender);\n\n      // get the reservation fee\n      (bool sent, ) = address(owner()).call{value: msg.value}(\"\");\n      require(sent, \"Transaction Failed\");   \n\n      emit ReservationCreated(_spaceName, reservationId);\n  }\n\n  function toString(address account) private pure returns(string memory) {\n      return toString(abi.encodePacked(account));\n  }\n\n  function toString(uint256 value) private pure returns(string memory) {\n      return toString(abi.encodePacked(value));\n  }\n\n  function toString(bytes32 value) private pure returns(string memory) {\n      return toString(abi.encodePacked(value));\n  }\n\n  function toString(bytes memory data) private pure returns(string memory) {\n      bytes memory alphabet = \"0123456789abcdef\";\n\n      bytes memory str = new bytes(2 + data.length * 2);\n      str[0] = \"0\";\n      str[1] = \"x\";\n      for (uint i = 0; i < data.length; i++) {\n          str[2+i*2] = alphabet[uint(uint8(data[i] >> 4))];\n          str[3+i*2] = alphabet[uint(uint8(data[i] & 0x0f))];\n      }\n      return string(str);\n  }\n\n}\n",
  "sourcePath": "/home/landino/blockchain-developer-bootcamp-final-project/contracts/ParkingSystem.sol",
  "compiler": {
    "name": "solc",
    "version": "0.8.10+commit.fc410830.Emscripten.clang"
  },
  "schemaVersion": "3.4.3",
  "updatedAt": "2021-12-06T01:34:13.464Z",
  "networkType": "ethereum",
  "devdoc": {
    "kind": "dev",
    "methods": {
      "owner()": {
        "details": "Returns the address of the current owner."
      },
      "renounceOwnership()": {
        "details": "Leaves the contract without owner. It will not be possible to call `onlyOwner` functions anymore. Can only be called by the current owner. NOTE: Renouncing ownership will leave the contract without an owner, thereby removing any functionality that is only available to the owner."
      },
      "transferOwnership(address)": {
        "details": "Transfers ownership of the contract to a new account (`newOwner`). Can only be called by the current owner."
      }
    },
    "version": 1
  },
  "userdoc": {
    "kind": "user",
    "methods": {},
    "version": 1
  }
}